{
	"SolanaStorageAccountOnEVM/model05/storageAccount.sol": {
		"StorageAccount": {
			"abi": [
				{
					"stateMutability": "payable",
					"type": "fallback"
				},
				{
					"inputs": [
						{
							"internalType": "bytes32",
							"name": "key",
							"type": "bytes32"
						}
					],
					"name": "del",
					"outputs": [],
					"stateMutability": "nonpayable",
					"type": "function"
				},
				{
					"inputs": [
						{
							"internalType": "bytes32",
							"name": "key",
							"type": "bytes32"
						}
					],
					"name": "get",
					"outputs": [
						{
							"internalType": "bytes",
							"name": "",
							"type": "bytes"
						}
					],
					"stateMutability": "view",
					"type": "function"
				},
				{
					"inputs": [],
					"name": "lastkey",
					"outputs": [
						{
							"internalType": "bytes32",
							"name": "",
							"type": "bytes32"
						}
					],
					"stateMutability": "view",
					"type": "function"
				},
				{
					"inputs": [
						{
							"internalType": "bytes32",
							"name": "key",
							"type": "bytes32"
						},
						{
							"internalType": "bytes",
							"name": "value",
							"type": "bytes"
						}
					],
					"name": "set",
					"outputs": [],
					"stateMutability": "nonpayable",
					"type": "function"
				},
				{
					"stateMutability": "payable",
					"type": "receive"
				}
			],
			"devdoc": {
				"kind": "dev",
				"methods": {},
				"version": 1
			},
			"evm": {
				"assembly": "    /* \"SolanaStorageAccountOnEVM/model05/storageAccount.sol\":548:1511  contract StorageAccount{... */\n  mstore(0x40, 0x80)\n  callvalue\n  dup1\n  iszero\n  tag_1\n  jumpi\n  0x00\n  dup1\n  revert\ntag_1:\n  pop\n  dataSize(sub_0)\n  dup1\n  dataOffset(sub_0)\n  0x00\n  codecopy\n  0x00\n  return\nstop\n\nsub_0: assembly {\n        /* \"SolanaStorageAccountOnEVM/model05/storageAccount.sol\":548:1511  contract StorageAccount{... */\n      mstore(0x40, 0x80)\n      jumpi(tag_1, lt(calldatasize, 0x04))\n      shr(0xe0, calldataload(0x00))\n      dup1\n      0x213fcb8b\n      eq\n      tag_3\n      jumpi\n      dup1\n      0x8eaa6ac0\n      eq\n      tag_4\n      jumpi\n      dup1\n      0xa42929e0\n      eq\n      tag_5\n      jumpi\n      dup1\n      0xaac438c0\n      eq\n      tag_6\n      jumpi\n      jump(tag_2)\n    tag_1:\n      jumpi(tag_2, calldatasize)\n        /* \"SolanaStorageAccountOnEVM/model05/storageAccount.sol\":1483:1494  _fallback() */\n      tag_9\n        /* \"SolanaStorageAccountOnEVM/model05/storageAccount.sol\":1483:1492  _fallback */\n      tag_10\n        /* \"SolanaStorageAccountOnEVM/model05/storageAccount.sol\":1483:1494  _fallback() */\n      jump\t// in\n    tag_9:\n        /* \"SolanaStorageAccountOnEVM/model05/storageAccount.sol\":548:1511  contract StorageAccount{... */\n      stop\n    tag_2:\n        /* \"SolanaStorageAccountOnEVM/model05/storageAccount.sol\":1398:1409  _fallback() */\n      tag_13\n        /* \"SolanaStorageAccountOnEVM/model05/storageAccount.sol\":1398:1407  _fallback */\n      tag_10\n        /* \"SolanaStorageAccountOnEVM/model05/storageAccount.sol\":1398:1409  _fallback() */\n      jump\t// in\n    tag_13:\n        /* \"SolanaStorageAccountOnEVM/model05/storageAccount.sol\":548:1511  contract StorageAccount{... */\n      stop\n        /* \"SolanaStorageAccountOnEVM/model05/storageAccount.sol\":574:596  bytes32 public lastkey */\n    tag_3:\n      callvalue\n      dup1\n      iszero\n      tag_14\n      jumpi\n      0x00\n      dup1\n      revert\n    tag_14:\n      pop\n      tag_15\n      tag_16\n      jump\t// in\n    tag_15:\n      mload(0x40)\n      tag_17\n      swap2\n      swap1\n      tag_18\n      jump\t// in\n    tag_17:\n      mload(0x40)\n      dup1\n      swap2\n      sub\n      swap1\n      return\n        /* \"SolanaStorageAccountOnEVM/model05/storageAccount.sol\":980:1141  function get(bytes32 key) public view  returns(bytes memory){... */\n    tag_4:\n      callvalue\n      dup1\n      iszero\n      tag_19\n      jumpi\n      0x00\n      dup1\n      revert\n    tag_19:\n      pop\n      tag_20\n      0x04\n      dup1\n      calldatasize\n      sub\n      dup2\n      add\n      swap1\n      tag_21\n      swap2\n      swap1\n      tag_22\n      jump\t// in\n    tag_21:\n      tag_23\n      jump\t// in\n    tag_20:\n      mload(0x40)\n      tag_24\n      swap2\n      swap1\n      tag_25\n      jump\t// in\n    tag_24:\n      mload(0x40)\n      dup1\n      swap2\n      sub\n      swap1\n      return\n        /* \"SolanaStorageAccountOnEVM/model05/storageAccount.sol\":788:972  function del(bytes32 key) external {... */\n    tag_5:\n      callvalue\n      dup1\n      iszero\n      tag_26\n      jumpi\n      0x00\n      dup1\n      revert\n    tag_26:\n      pop\n      tag_27\n      0x04\n      dup1\n      calldatasize\n      sub\n      dup2\n      add\n      swap1\n      tag_28\n      swap2\n      swap1\n      tag_22\n      jump\t// in\n    tag_28:\n      tag_29\n      jump\t// in\n    tag_27:\n      stop\n        /* \"SolanaStorageAccountOnEVM/model05/storageAccount.sol\":603:780  function set(bytes32 key, bytes memory value) public {... */\n    tag_6:\n      callvalue\n      dup1\n      iszero\n      tag_30\n      jumpi\n      0x00\n      dup1\n      revert\n    tag_30:\n      pop\n      tag_31\n      0x04\n      dup1\n      calldatasize\n      sub\n      dup2\n      add\n      swap1\n      tag_32\n      swap2\n      swap1\n      tag_33\n      jump\t// in\n    tag_32:\n      tag_34\n      jump\t// in\n    tag_31:\n      stop\n        /* \"SolanaStorageAccountOnEVM/model05/storageAccount.sol\":1148:1342  function _fallback() internal virtual {... */\n    tag_10:\n        /* \"SolanaStorageAccountOnEVM/model05/storageAccount.sol\":1197:1207  bytes4 key */\n      0x00\n        /* \"SolanaStorageAccountOnEVM/model05/storageAccount.sol\":1217:1225  msg.data */\n      dup1\n      calldatasize\n        /* \"SolanaStorageAccountOnEVM/model05/storageAccount.sol\":1217:1229  msg.data[:4] */\n      0x00\n      swap1\n        /* \"SolanaStorageAccountOnEVM/model05/storageAccount.sol\":1227:1228  4 */\n      0x04\n        /* \"SolanaStorageAccountOnEVM/model05/storageAccount.sol\":1217:1229  msg.data[:4] */\n      swap3\n      tag_36\n      swap4\n      swap3\n      swap2\n      swap1\n      tag_37\n      jump\t// in\n    tag_36:\n        /* \"SolanaStorageAccountOnEVM/model05/storageAccount.sol\":1210:1230  bytes4(msg.data[:4]) */\n      swap1\n      tag_38\n      swap2\n      swap1\n      tag_39\n      jump\t// in\n    tag_38:\n        /* \"SolanaStorageAccountOnEVM/model05/storageAccount.sol\":1197:1230  bytes4 key = bytes4(msg.data[:4]) */\n      swap1\n      pop\n        /* \"SolanaStorageAccountOnEVM/model05/storageAccount.sol\":1241:1259  bytes memory value */\n      0x00\n        /* \"SolanaStorageAccountOnEVM/model05/storageAccount.sol\":1268:1276  msg.data */\n      dup1\n      calldatasize\n        /* \"SolanaStorageAccountOnEVM/model05/storageAccount.sol\":1277:1278  4 */\n      0x04\n        /* \"SolanaStorageAccountOnEVM/model05/storageAccount.sol\":1268:1280  msg.data[4:] */\n      swap1\n      dup1\n      swap3\n      tag_40\n      swap4\n      swap3\n      swap2\n      swap1\n      tag_37\n      jump\t// in\n    tag_40:\n        /* \"SolanaStorageAccountOnEVM/model05/storageAccount.sol\":1241:1281  bytes memory value = bytes(msg.data[4:]) */\n      dup1\n      dup1\n      0x1f\n      add\n      0x20\n      dup1\n      swap2\n      div\n      mul\n      0x20\n      add\n      mload(0x40)\n      swap1\n      dup2\n      add\n      0x40\n      mstore\n      dup1\n      swap4\n      swap3\n      swap2\n      swap1\n      dup2\n      dup2\n      mstore\n      0x20\n      add\n      dup4\n      dup4\n      dup1\n      dup3\n      dup5\n      calldatacopy\n      0x00\n      dup2\n      dup5\n      add\n      mstore\n      not(0x1f)\n      0x1f\n      dup3\n      add\n      and\n      swap1\n      pop\n      dup1\n      dup4\n      add\n      swap3\n      pop\n      pop\n      pop\n      pop\n      pop\n      pop\n      pop\n      swap1\n      pop\n        /* \"SolanaStorageAccountOnEVM/model05/storageAccount.sol\":1301:1316  set(key, value) */\n      tag_41\n        /* \"SolanaStorageAccountOnEVM/model05/storageAccount.sol\":1305:1308  key */\n      dup3\n        /* \"SolanaStorageAccountOnEVM/model05/storageAccount.sol\":1301:1316  set(key, value) */\n      not(0xffffffffffffffffffffffffffffffffffffffffffffffffffffffff)\n      and\n        /* \"SolanaStorageAccountOnEVM/model05/storageAccount.sol\":1310:1315  value */\n      dup3\n        /* \"SolanaStorageAccountOnEVM/model05/storageAccount.sol\":1301:1304  set */\n      tag_34\n        /* \"SolanaStorageAccountOnEVM/model05/storageAccount.sol\":1301:1316  set(key, value) */\n      jump\t// in\n    tag_41:\n        /* \"SolanaStorageAccountOnEVM/model05/storageAccount.sol\":1327:1335  return ; */\n      pop\n      pop\n        /* \"SolanaStorageAccountOnEVM/model05/storageAccount.sol\":1148:1342  function _fallback() internal virtual {... */\n      jump\t// out\n        /* \"SolanaStorageAccountOnEVM/model05/storageAccount.sol\":574:596  bytes32 public lastkey */\n    tag_16:\n      sload(0x00)\n      dup2\n      jump\t// out\n        /* \"SolanaStorageAccountOnEVM/model05/storageAccount.sol\":980:1141  function get(bytes32 key) public view  returns(bytes memory){... */\n    tag_23:\n        /* \"SolanaStorageAccountOnEVM/model05/storageAccount.sol\":1027:1039  bytes memory */\n      0x60\n        /* \"SolanaStorageAccountOnEVM/model05/storageAccount.sol\":1058:1127  StorageSlot.getBytesSlot(keccak256(abi.encodePacked(msg.sender,key))) */\n      tag_43\n        /* \"SolanaStorageAccountOnEVM/model05/storageAccount.sol\":1110:1120  msg.sender */\n      caller\n        /* \"SolanaStorageAccountOnEVM/model05/storageAccount.sol\":1121:1124  key */\n      dup4\n        /* \"SolanaStorageAccountOnEVM/model05/storageAccount.sol\":1093:1125  abi.encodePacked(msg.sender,key) */\n      add(0x20, mload(0x40))\n      tag_44\n      swap3\n      swap2\n      swap1\n      tag_45\n      jump\t// in\n    tag_44:\n      mload(0x40)\n      0x20\n      dup2\n      dup4\n      sub\n      sub\n      dup2\n      mstore\n      swap1\n      0x40\n      mstore\n        /* \"SolanaStorageAccountOnEVM/model05/storageAccount.sol\":1083:1126  keccak256(abi.encodePacked(msg.sender,key)) */\n      dup1\n      mload\n      swap1\n      0x20\n      add\n      keccak256\n        /* \"SolanaStorageAccountOnEVM/model05/storageAccount.sol\":1058:1082  StorageSlot.getBytesSlot */\n      tag_46\n        /* \"SolanaStorageAccountOnEVM/model05/storageAccount.sol\":1058:1127  StorageSlot.getBytesSlot(keccak256(abi.encodePacked(msg.sender,key))) */\n      jump\t// in\n    tag_43:\n        /* \"SolanaStorageAccountOnEVM/model05/storageAccount.sol\":1058:1133  StorageSlot.getBytesSlot(keccak256(abi.encodePacked(msg.sender,key))).value */\n      0x00\n      add\n        /* \"SolanaStorageAccountOnEVM/model05/storageAccount.sol\":1051:1133  return StorageSlot.getBytesSlot(keccak256(abi.encodePacked(msg.sender,key))).value */\n      dup1\n      sload\n      tag_47\n      swap1\n      tag_48\n      jump\t// in\n    tag_47:\n      dup1\n      0x1f\n      add\n      0x20\n      dup1\n      swap2\n      div\n      mul\n      0x20\n      add\n      mload(0x40)\n      swap1\n      dup2\n      add\n      0x40\n      mstore\n      dup1\n      swap3\n      swap2\n      swap1\n      dup2\n      dup2\n      mstore\n      0x20\n      add\n      dup3\n      dup1\n      sload\n      tag_49\n      swap1\n      tag_48\n      jump\t// in\n    tag_49:\n      dup1\n      iszero\n      tag_50\n      jumpi\n      dup1\n      0x1f\n      lt\n      tag_51\n      jumpi\n      0x0100\n      dup1\n      dup4\n      sload\n      div\n      mul\n      dup4\n      mstore\n      swap2\n      0x20\n      add\n      swap2\n      jump(tag_50)\n    tag_51:\n      dup3\n      add\n      swap2\n      swap1\n      0x00\n      mstore\n      keccak256(0x00, 0x20)\n      swap1\n    tag_52:\n      dup2\n      sload\n      dup2\n      mstore\n      swap1\n      0x01\n      add\n      swap1\n      0x20\n      add\n      dup1\n      dup4\n      gt\n      tag_52\n      jumpi\n      dup3\n      swap1\n      sub\n      0x1f\n      and\n      dup3\n      add\n      swap2\n    tag_50:\n      pop\n      pop\n      pop\n      pop\n      pop\n      swap1\n      pop\n        /* \"SolanaStorageAccountOnEVM/model05/storageAccount.sol\":980:1141  function get(bytes32 key) public view  returns(bytes memory){... */\n      swap2\n      swap1\n      pop\n      jump\t// out\n        /* \"SolanaStorageAccountOnEVM/model05/storageAccount.sol\":788:972  function del(bytes32 key) external {... */\n    tag_29:\n        /* \"SolanaStorageAccountOnEVM/model05/storageAccount.sol\":834:914  StorageSlot.getBytesSlot(keccak256(abi.encodePacked(msg.sender,key))).value = \"\" */\n      mload(0x40)\n      dup1\n      0x20\n      add\n      0x40\n      mstore\n      dup1\n      0x00\n      dup2\n      mstore\n      pop\n        /* \"SolanaStorageAccountOnEVM/model05/storageAccount.sol\":834:903  StorageSlot.getBytesSlot(keccak256(abi.encodePacked(msg.sender,key))) */\n      tag_54\n        /* \"SolanaStorageAccountOnEVM/model05/storageAccount.sol\":886:896  msg.sender */\n      caller\n        /* \"SolanaStorageAccountOnEVM/model05/storageAccount.sol\":897:900  key */\n      dup4\n        /* \"SolanaStorageAccountOnEVM/model05/storageAccount.sol\":869:901  abi.encodePacked(msg.sender,key) */\n      add(0x20, mload(0x40))\n      tag_55\n      swap3\n      swap2\n      swap1\n      tag_45\n      jump\t// in\n    tag_55:\n      mload(0x40)\n      0x20\n      dup2\n      dup4\n      sub\n      sub\n      dup2\n      mstore\n      swap1\n      0x40\n      mstore\n        /* \"SolanaStorageAccountOnEVM/model05/storageAccount.sol\":859:902  keccak256(abi.encodePacked(msg.sender,key)) */\n      dup1\n      mload\n      swap1\n      0x20\n      add\n      keccak256\n        /* \"SolanaStorageAccountOnEVM/model05/storageAccount.sol\":834:858  StorageSlot.getBytesSlot */\n      tag_46\n        /* \"SolanaStorageAccountOnEVM/model05/storageAccount.sol\":834:903  StorageSlot.getBytesSlot(keccak256(abi.encodePacked(msg.sender,key))) */\n      jump\t// in\n    tag_54:\n        /* \"SolanaStorageAccountOnEVM/model05/storageAccount.sol\":834:909  StorageSlot.getBytesSlot(keccak256(abi.encodePacked(msg.sender,key))).value */\n      0x00\n      add\n        /* \"SolanaStorageAccountOnEVM/model05/storageAccount.sol\":834:914  StorageSlot.getBytesSlot(keccak256(abi.encodePacked(msg.sender,key))).value = \"\" */\n      swap1\n      dup2\n      tag_56\n      swap2\n      swap1\n      tag_57\n      jump\t// in\n    tag_56:\n      pop\n        /* \"SolanaStorageAccountOnEVM/model05/storageAccount.sol\":788:972  function del(bytes32 key) external {... */\n      pop\n      jump\t// out\n        /* \"SolanaStorageAccountOnEVM/model05/storageAccount.sol\":603:780  function set(bytes32 key, bytes memory value) public {... */\n    tag_34:\n        /* \"SolanaStorageAccountOnEVM/model05/storageAccount.sol\":676:679  key */\n      dup2\n        /* \"SolanaStorageAccountOnEVM/model05/storageAccount.sol\":667:674  lastkey */\n      0x00\n        /* \"SolanaStorageAccountOnEVM/model05/storageAccount.sol\":667:679  lastkey =key */\n      dup2\n      swap1\n      sstore\n      pop\n        /* \"SolanaStorageAccountOnEVM/model05/storageAccount.sol\":767:772  value */\n      dup1\n        /* \"SolanaStorageAccountOnEVM/model05/storageAccount.sol\":689:758  StorageSlot.getBytesSlot(keccak256(abi.encodePacked(msg.sender,key))) */\n      tag_59\n        /* \"SolanaStorageAccountOnEVM/model05/storageAccount.sol\":741:751  msg.sender */\n      caller\n        /* \"SolanaStorageAccountOnEVM/model05/storageAccount.sol\":752:755  key */\n      dup5\n        /* \"SolanaStorageAccountOnEVM/model05/storageAccount.sol\":724:756  abi.encodePacked(msg.sender,key) */\n      add(0x20, mload(0x40))\n      tag_60\n      swap3\n      swap2\n      swap1\n      tag_45\n      jump\t// in\n    tag_60:\n      mload(0x40)\n      0x20\n      dup2\n      dup4\n      sub\n      sub\n      dup2\n      mstore\n      swap1\n      0x40\n      mstore\n        /* \"SolanaStorageAccountOnEVM/model05/storageAccount.sol\":714:757  keccak256(abi.encodePacked(msg.sender,key)) */\n      dup1\n      mload\n      swap1\n      0x20\n      add\n      keccak256\n        /* \"SolanaStorageAccountOnEVM/model05/storageAccount.sol\":689:713  StorageSlot.getBytesSlot */\n      tag_46\n        /* \"SolanaStorageAccountOnEVM/model05/storageAccount.sol\":689:758  StorageSlot.getBytesSlot(keccak256(abi.encodePacked(msg.sender,key))) */\n      jump\t// in\n    tag_59:\n        /* \"SolanaStorageAccountOnEVM/model05/storageAccount.sol\":689:764  StorageSlot.getBytesSlot(keccak256(abi.encodePacked(msg.sender,key))).value */\n      0x00\n      add\n        /* \"SolanaStorageAccountOnEVM/model05/storageAccount.sol\":689:772  StorageSlot.getBytesSlot(keccak256(abi.encodePacked(msg.sender,key))).value = value */\n      swap1\n      dup2\n      tag_61\n      swap2\n      swap1\n      tag_62\n      jump\t// in\n    tag_61:\n      pop\n        /* \"SolanaStorageAccountOnEVM/model05/storageAccount.sol\":603:780  function set(bytes32 key, bytes memory value) public {... */\n      pop\n      pop\n      jump\t// out\n        /* \"SolanaStorageAccountOnEVM/model05/storageAccount.sol\":4921:5112  function getBytesSlot(bytes32 slot) internal pure returns (BytesSlot storage r) {... */\n    tag_46:\n        /* \"SolanaStorageAccountOnEVM/model05/storageAccount.sol\":4980:4999  BytesSlot storage r */\n      0x00\n        /* \"SolanaStorageAccountOnEVM/model05/storageAccount.sol\":5090:5094  slot */\n      dup2\n        /* \"SolanaStorageAccountOnEVM/model05/storageAccount.sol\":5080:5094  r.slot := slot */\n      swap1\n      pop\n        /* \"SolanaStorageAccountOnEVM/model05/storageAccount.sol\":4921:5112  function getBytesSlot(bytes32 slot) internal pure returns (BytesSlot storage r) {... */\n      swap2\n      swap1\n      pop\n      jump\t// out\n        /* \"#utility.yul\":7:84   */\n    tag_64:\n        /* \"#utility.yul\":44:51   */\n      0x00\n        /* \"#utility.yul\":73:78   */\n      dup2\n        /* \"#utility.yul\":62:78   */\n      swap1\n      pop\n        /* \"#utility.yul\":7:84   */\n      swap2\n      swap1\n      pop\n      jump\t// out\n        /* \"#utility.yul\":90:208   */\n    tag_65:\n        /* \"#utility.yul\":177:201   */\n      tag_119\n        /* \"#utility.yul\":195:200   */\n      dup2\n        /* \"#utility.yul\":177:201   */\n      tag_64\n      jump\t// in\n    tag_119:\n        /* \"#utility.yul\":172:175   */\n      dup3\n        /* \"#utility.yul\":165:202   */\n      mstore\n        /* \"#utility.yul\":90:208   */\n      pop\n      pop\n      jump\t// out\n        /* \"#utility.yul\":214:436   */\n    tag_18:\n        /* \"#utility.yul\":307:311   */\n      0x00\n        /* \"#utility.yul\":345:347   */\n      0x20\n        /* \"#utility.yul\":334:343   */\n      dup3\n        /* \"#utility.yul\":330:348   */\n      add\n        /* \"#utility.yul\":322:348   */\n      swap1\n      pop\n        /* \"#utility.yul\":358:429   */\n      tag_121\n        /* \"#utility.yul\":426:427   */\n      0x00\n        /* \"#utility.yul\":415:424   */\n      dup4\n        /* \"#utility.yul\":411:428   */\n      add\n        /* \"#utility.yul\":402:408   */\n      dup5\n        /* \"#utility.yul\":358:429   */\n      tag_65\n      jump\t// in\n    tag_121:\n        /* \"#utility.yul\":214:436   */\n      swap3\n      swap2\n      pop\n      pop\n      jump\t// out\n        /* \"#utility.yul\":442:517   */\n    tag_66:\n        /* \"#utility.yul\":475:481   */\n      0x00\n        /* \"#utility.yul\":508:510   */\n      0x40\n        /* \"#utility.yul\":502:511   */\n      mload\n        /* \"#utility.yul\":492:511   */\n      swap1\n      pop\n        /* \"#utility.yul\":442:517   */\n      swap1\n      jump\t// out\n        /* \"#utility.yul\":523:640   */\n    tag_67:\n        /* \"#utility.yul\":632:633   */\n      0x00\n        /* \"#utility.yul\":629:630   */\n      dup1\n        /* \"#utility.yul\":622:634   */\n      revert\n        /* \"#utility.yul\":646:763   */\n    tag_68:\n        /* \"#utility.yul\":755:756   */\n      0x00\n        /* \"#utility.yul\":752:753   */\n      dup1\n        /* \"#utility.yul\":745:757   */\n      revert\n        /* \"#utility.yul\":769:891   */\n    tag_69:\n        /* \"#utility.yul\":842:866   */\n      tag_126\n        /* \"#utility.yul\":860:865   */\n      dup2\n        /* \"#utility.yul\":842:866   */\n      tag_64\n      jump\t// in\n    tag_126:\n        /* \"#utility.yul\":835:840   */\n      dup2\n        /* \"#utility.yul\":832:867   */\n      eq\n        /* \"#utility.yul\":822:885   */\n      tag_127\n      jumpi\n        /* \"#utility.yul\":881:882   */\n      0x00\n        /* \"#utility.yul\":878:879   */\n      dup1\n        /* \"#utility.yul\":871:883   */\n      revert\n        /* \"#utility.yul\":822:885   */\n    tag_127:\n        /* \"#utility.yul\":769:891   */\n      pop\n      jump\t// out\n        /* \"#utility.yul\":897:1036   */\n    tag_70:\n        /* \"#utility.yul\":943:948   */\n      0x00\n        /* \"#utility.yul\":981:987   */\n      dup2\n        /* \"#utility.yul\":968:988   */\n      calldataload\n        /* \"#utility.yul\":959:988   */\n      swap1\n      pop\n        /* \"#utility.yul\":997:1030   */\n      tag_129\n        /* \"#utility.yul\":1024:1029   */\n      dup2\n        /* \"#utility.yul\":997:1030   */\n      tag_69\n      jump\t// in\n    tag_129:\n        /* \"#utility.yul\":897:1036   */\n      swap3\n      swap2\n      pop\n      pop\n      jump\t// out\n        /* \"#utility.yul\":1042:1371   */\n    tag_22:\n        /* \"#utility.yul\":1101:1107   */\n      0x00\n        /* \"#utility.yul\":1150:1152   */\n      0x20\n        /* \"#utility.yul\":1138:1147   */\n      dup3\n        /* \"#utility.yul\":1129:1136   */\n      dup5\n        /* \"#utility.yul\":1125:1148   */\n      sub\n        /* \"#utility.yul\":1121:1153   */\n      slt\n        /* \"#utility.yul\":1118:1237   */\n      iszero\n      tag_131\n      jumpi\n        /* \"#utility.yul\":1156:1235   */\n      tag_132\n      tag_67\n      jump\t// in\n    tag_132:\n        /* \"#utility.yul\":1118:1237   */\n    tag_131:\n        /* \"#utility.yul\":1276:1277   */\n      0x00\n        /* \"#utility.yul\":1301:1354   */\n      tag_133\n        /* \"#utility.yul\":1346:1353   */\n      dup5\n        /* \"#utility.yul\":1337:1343   */\n      dup3\n        /* \"#utility.yul\":1326:1335   */\n      dup6\n        /* \"#utility.yul\":1322:1344   */\n      add\n        /* \"#utility.yul\":1301:1354   */\n      tag_70\n      jump\t// in\n    tag_133:\n        /* \"#utility.yul\":1291:1354   */\n      swap2\n      pop\n        /* \"#utility.yul\":1247:1364   */\n      pop\n        /* \"#utility.yul\":1042:1371   */\n      swap3\n      swap2\n      pop\n      pop\n      jump\t// out\n        /* \"#utility.yul\":1377:1475   */\n    tag_71:\n        /* \"#utility.yul\":1428:1434   */\n      0x00\n        /* \"#utility.yul\":1462:1467   */\n      dup2\n        /* \"#utility.yul\":1456:1468   */\n      mload\n        /* \"#utility.yul\":1446:1468   */\n      swap1\n      pop\n        /* \"#utility.yul\":1377:1475   */\n      swap2\n      swap1\n      pop\n      jump\t// out\n        /* \"#utility.yul\":1481:1649   */\n    tag_72:\n        /* \"#utility.yul\":1564:1575   */\n      0x00\n        /* \"#utility.yul\":1598:1604   */\n      dup3\n        /* \"#utility.yul\":1593:1596   */\n      dup3\n        /* \"#utility.yul\":1586:1605   */\n      mstore\n        /* \"#utility.yul\":1638:1642   */\n      0x20\n        /* \"#utility.yul\":1633:1636   */\n      dup3\n        /* \"#utility.yul\":1629:1643   */\n      add\n        /* \"#utility.yul\":1614:1643   */\n      swap1\n      pop\n        /* \"#utility.yul\":1481:1649   */\n      swap3\n      swap2\n      pop\n      pop\n      jump\t// out\n        /* \"#utility.yul\":1655:1901   */\n    tag_73:\n        /* \"#utility.yul\":1736:1737   */\n      0x00\n        /* \"#utility.yul\":1746:1859   */\n    tag_137:\n        /* \"#utility.yul\":1760:1766   */\n      dup4\n        /* \"#utility.yul\":1757:1758   */\n      dup2\n        /* \"#utility.yul\":1754:1767   */\n      lt\n        /* \"#utility.yul\":1746:1859   */\n      iszero\n      tag_139\n      jumpi\n        /* \"#utility.yul\":1845:1846   */\n      dup1\n        /* \"#utility.yul\":1840:1843   */\n      dup3\n        /* \"#utility.yul\":1836:1847   */\n      add\n        /* \"#utility.yul\":1830:1848   */\n      mload\n        /* \"#utility.yul\":1826:1827   */\n      dup2\n        /* \"#utility.yul\":1821:1824   */\n      dup5\n        /* \"#utility.yul\":1817:1828   */\n      add\n        /* \"#utility.yul\":1810:1849   */\n      mstore\n        /* \"#utility.yul\":1782:1784   */\n      0x20\n        /* \"#utility.yul\":1779:1780   */\n      dup2\n        /* \"#utility.yul\":1775:1785   */\n      add\n        /* \"#utility.yul\":1770:1785   */\n      swap1\n      pop\n        /* \"#utility.yul\":1746:1859   */\n      jump(tag_137)\n    tag_139:\n        /* \"#utility.yul\":1893:1894   */\n      0x00\n        /* \"#utility.yul\":1884:1890   */\n      dup5\n        /* \"#utility.yul\":1879:1882   */\n      dup5\n        /* \"#utility.yul\":1875:1891   */\n      add\n        /* \"#utility.yul\":1868:1895   */\n      mstore\n        /* \"#utility.yul\":1717:1901   */\n      pop\n        /* \"#utility.yul\":1655:1901   */\n      pop\n      pop\n      pop\n      jump\t// out\n        /* \"#utility.yul\":1907:2009   */\n    tag_74:\n        /* \"#utility.yul\":1948:1954   */\n      0x00\n        /* \"#utility.yul\":1999:2001   */\n      0x1f\n        /* \"#utility.yul\":1995:2002   */\n      not\n        /* \"#utility.yul\":1990:1992   */\n      0x1f\n        /* \"#utility.yul\":1983:1988   */\n      dup4\n        /* \"#utility.yul\":1979:1993   */\n      add\n        /* \"#utility.yul\":1975:2003   */\n      and\n        /* \"#utility.yul\":1965:2003   */\n      swap1\n      pop\n        /* \"#utility.yul\":1907:2009   */\n      swap2\n      swap1\n      pop\n      jump\t// out\n        /* \"#utility.yul\":2015:2388   */\n    tag_75:\n        /* \"#utility.yul\":2101:2104   */\n      0x00\n        /* \"#utility.yul\":2129:2167   */\n      tag_142\n        /* \"#utility.yul\":2161:2166   */\n      dup3\n        /* \"#utility.yul\":2129:2167   */\n      tag_71\n      jump\t// in\n    tag_142:\n        /* \"#utility.yul\":2183:2253   */\n      tag_143\n        /* \"#utility.yul\":2246:2252   */\n      dup2\n        /* \"#utility.yul\":2241:2244   */\n      dup6\n        /* \"#utility.yul\":2183:2253   */\n      tag_72\n      jump\t// in\n    tag_143:\n        /* \"#utility.yul\":2176:2253   */\n      swap4\n      pop\n        /* \"#utility.yul\":2262:2327   */\n      tag_144\n        /* \"#utility.yul\":2320:2326   */\n      dup2\n        /* \"#utility.yul\":2315:2318   */\n      dup6\n        /* \"#utility.yul\":2308:2312   */\n      0x20\n        /* \"#utility.yul\":2301:2306   */\n      dup7\n        /* \"#utility.yul\":2297:2313   */\n      add\n        /* \"#utility.yul\":2262:2327   */\n      tag_73\n      jump\t// in\n    tag_144:\n        /* \"#utility.yul\":2352:2381   */\n      tag_145\n        /* \"#utility.yul\":2374:2380   */\n      dup2\n        /* \"#utility.yul\":2352:2381   */\n      tag_74\n      jump\t// in\n    tag_145:\n        /* \"#utility.yul\":2347:2350   */\n      dup5\n        /* \"#utility.yul\":2343:2382   */\n      add\n        /* \"#utility.yul\":2336:2382   */\n      swap2\n      pop\n        /* \"#utility.yul\":2105:2388   */\n      pop\n        /* \"#utility.yul\":2015:2388   */\n      swap3\n      swap2\n      pop\n      pop\n      jump\t// out\n        /* \"#utility.yul\":2394:2703   */\n    tag_25:\n        /* \"#utility.yul\":2505:2509   */\n      0x00\n        /* \"#utility.yul\":2543:2545   */\n      0x20\n        /* \"#utility.yul\":2532:2541   */\n      dup3\n        /* \"#utility.yul\":2528:2546   */\n      add\n        /* \"#utility.yul\":2520:2546   */\n      swap1\n      pop\n        /* \"#utility.yul\":2592:2601   */\n      dup2\n        /* \"#utility.yul\":2586:2590   */\n      dup2\n        /* \"#utility.yul\":2582:2602   */\n      sub\n        /* \"#utility.yul\":2578:2579   */\n      0x00\n        /* \"#utility.yul\":2567:2576   */\n      dup4\n        /* \"#utility.yul\":2563:2580   */\n      add\n        /* \"#utility.yul\":2556:2603   */\n      mstore\n        /* \"#utility.yul\":2620:2696   */\n      tag_147\n        /* \"#utility.yul\":2691:2695   */\n      dup2\n        /* \"#utility.yul\":2682:2688   */\n      dup5\n        /* \"#utility.yul\":2620:2696   */\n      tag_75\n      jump\t// in\n    tag_147:\n        /* \"#utility.yul\":2612:2696   */\n      swap1\n      pop\n        /* \"#utility.yul\":2394:2703   */\n      swap3\n      swap2\n      pop\n      pop\n      jump\t// out\n        /* \"#utility.yul\":2709:2826   */\n    tag_76:\n        /* \"#utility.yul\":2818:2819   */\n      0x00\n        /* \"#utility.yul\":2815:2816   */\n      dup1\n        /* \"#utility.yul\":2808:2820   */\n      revert\n        /* \"#utility.yul\":2832:2949   */\n    tag_77:\n        /* \"#utility.yul\":2941:2942   */\n      0x00\n        /* \"#utility.yul\":2938:2939   */\n      dup1\n        /* \"#utility.yul\":2931:2943   */\n      revert\n        /* \"#utility.yul\":2955:3135   */\n    tag_78:\n        /* \"#utility.yul\":3003:3080   */\n      0x4e487b7100000000000000000000000000000000000000000000000000000000\n        /* \"#utility.yul\":3000:3001   */\n      0x00\n        /* \"#utility.yul\":2993:3081   */\n      mstore\n        /* \"#utility.yul\":3100:3104   */\n      0x41\n        /* \"#utility.yul\":3097:3098   */\n      0x04\n        /* \"#utility.yul\":3090:3105   */\n      mstore\n        /* \"#utility.yul\":3124:3128   */\n      0x24\n        /* \"#utility.yul\":3121:3122   */\n      0x00\n        /* \"#utility.yul\":3114:3129   */\n      revert\n        /* \"#utility.yul\":3141:3422   */\n    tag_79:\n        /* \"#utility.yul\":3224:3251   */\n      tag_152\n        /* \"#utility.yul\":3246:3250   */\n      dup3\n        /* \"#utility.yul\":3224:3251   */\n      tag_74\n      jump\t// in\n    tag_152:\n        /* \"#utility.yul\":3216:3222   */\n      dup2\n        /* \"#utility.yul\":3212:3252   */\n      add\n        /* \"#utility.yul\":3354:3360   */\n      dup2\n        /* \"#utility.yul\":3342:3352   */\n      dup2\n        /* \"#utility.yul\":3339:3361   */\n      lt\n        /* \"#utility.yul\":3318:3336   */\n      0xffffffffffffffff\n        /* \"#utility.yul\":3306:3316   */\n      dup3\n        /* \"#utility.yul\":3303:3337   */\n      gt\n        /* \"#utility.yul\":3300:3362   */\n      or\n        /* \"#utility.yul\":3297:3385   */\n      iszero\n      tag_153\n      jumpi\n        /* \"#utility.yul\":3365:3383   */\n      tag_154\n      tag_78\n      jump\t// in\n    tag_154:\n        /* \"#utility.yul\":3297:3385   */\n    tag_153:\n        /* \"#utility.yul\":3405:3415   */\n      dup1\n        /* \"#utility.yul\":3401:3403   */\n      0x40\n        /* \"#utility.yul\":3394:3416   */\n      mstore\n        /* \"#utility.yul\":3184:3422   */\n      pop\n        /* \"#utility.yul\":3141:3422   */\n      pop\n      pop\n      jump\t// out\n        /* \"#utility.yul\":3428:3557   */\n    tag_80:\n        /* \"#utility.yul\":3462:3468   */\n      0x00\n        /* \"#utility.yul\":3489:3509   */\n      tag_156\n      tag_66\n      jump\t// in\n    tag_156:\n        /* \"#utility.yul\":3479:3509   */\n      swap1\n      pop\n        /* \"#utility.yul\":3518:3551   */\n      tag_157\n        /* \"#utility.yul\":3546:3550   */\n      dup3\n        /* \"#utility.yul\":3538:3544   */\n      dup3\n        /* \"#utility.yul\":3518:3551   */\n      tag_79\n      jump\t// in\n    tag_157:\n        /* \"#utility.yul\":3428:3557   */\n      swap2\n      swap1\n      pop\n      jump\t// out\n        /* \"#utility.yul\":3563:3870   */\n    tag_81:\n        /* \"#utility.yul\":3624:3628   */\n      0x00\n        /* \"#utility.yul\":3714:3732   */\n      0xffffffffffffffff\n        /* \"#utility.yul\":3706:3712   */\n      dup3\n        /* \"#utility.yul\":3703:3733   */\n      gt\n        /* \"#utility.yul\":3700:3756   */\n      iszero\n      tag_159\n      jumpi\n        /* \"#utility.yul\":3736:3754   */\n      tag_160\n      tag_78\n      jump\t// in\n    tag_160:\n        /* \"#utility.yul\":3700:3756   */\n    tag_159:\n        /* \"#utility.yul\":3774:3803   */\n      tag_161\n        /* \"#utility.yul\":3796:3802   */\n      dup3\n        /* \"#utility.yul\":3774:3803   */\n      tag_74\n      jump\t// in\n    tag_161:\n        /* \"#utility.yul\":3766:3803   */\n      swap1\n      pop\n        /* \"#utility.yul\":3858:3862   */\n      0x20\n        /* \"#utility.yul\":3852:3856   */\n      dup2\n        /* \"#utility.yul\":3848:3863   */\n      add\n        /* \"#utility.yul\":3840:3863   */\n      swap1\n      pop\n        /* \"#utility.yul\":3563:3870   */\n      swap2\n      swap1\n      pop\n      jump\t// out\n        /* \"#utility.yul\":3876:4022   */\n    tag_82:\n        /* \"#utility.yul\":3973:3979   */\n      dup3\n        /* \"#utility.yul\":3968:3971   */\n      dup2\n        /* \"#utility.yul\":3963:3966   */\n      dup4\n        /* \"#utility.yul\":3950:3980   */\n      calldatacopy\n        /* \"#utility.yul\":4014:4015   */\n      0x00\n        /* \"#utility.yul\":4005:4011   */\n      dup4\n        /* \"#utility.yul\":4000:4003   */\n      dup4\n        /* \"#utility.yul\":3996:4012   */\n      add\n        /* \"#utility.yul\":3989:4016   */\n      mstore\n        /* \"#utility.yul\":3876:4022   */\n      pop\n      pop\n      pop\n      jump\t// out\n        /* \"#utility.yul\":4028:4451   */\n    tag_83:\n        /* \"#utility.yul\":4105:4110   */\n      0x00\n        /* \"#utility.yul\":4130:4195   */\n      tag_164\n        /* \"#utility.yul\":4146:4194   */\n      tag_165\n        /* \"#utility.yul\":4187:4193   */\n      dup5\n        /* \"#utility.yul\":4146:4194   */\n      tag_81\n      jump\t// in\n    tag_165:\n        /* \"#utility.yul\":4130:4195   */\n      tag_80\n      jump\t// in\n    tag_164:\n        /* \"#utility.yul\":4121:4195   */\n      swap1\n      pop\n        /* \"#utility.yul\":4218:4224   */\n      dup3\n        /* \"#utility.yul\":4211:4216   */\n      dup2\n        /* \"#utility.yul\":4204:4225   */\n      mstore\n        /* \"#utility.yul\":4256:4260   */\n      0x20\n        /* \"#utility.yul\":4249:4254   */\n      dup2\n        /* \"#utility.yul\":4245:4261   */\n      add\n        /* \"#utility.yul\":4294:4297   */\n      dup5\n        /* \"#utility.yul\":4285:4291   */\n      dup5\n        /* \"#utility.yul\":4280:4283   */\n      dup5\n        /* \"#utility.yul\":4276:4292   */\n      add\n        /* \"#utility.yul\":4273:4298   */\n      gt\n        /* \"#utility.yul\":4270:4382   */\n      iszero\n      tag_166\n      jumpi\n        /* \"#utility.yul\":4301:4380   */\n      tag_167\n      tag_77\n      jump\t// in\n    tag_167:\n        /* \"#utility.yul\":4270:4382   */\n    tag_166:\n        /* \"#utility.yul\":4391:4445   */\n      tag_168\n        /* \"#utility.yul\":4438:4444   */\n      dup5\n        /* \"#utility.yul\":4433:4436   */\n      dup3\n        /* \"#utility.yul\":4428:4431   */\n      dup6\n        /* \"#utility.yul\":4391:4445   */\n      tag_82\n      jump\t// in\n    tag_168:\n        /* \"#utility.yul\":4111:4451   */\n      pop\n        /* \"#utility.yul\":4028:4451   */\n      swap4\n      swap3\n      pop\n      pop\n      pop\n      jump\t// out\n        /* \"#utility.yul\":4470:4808   */\n    tag_84:\n        /* \"#utility.yul\":4525:4530   */\n      0x00\n        /* \"#utility.yul\":4574:4577   */\n      dup3\n        /* \"#utility.yul\":4567:4571   */\n      0x1f\n        /* \"#utility.yul\":4559:4565   */\n      dup4\n        /* \"#utility.yul\":4555:4572   */\n      add\n        /* \"#utility.yul\":4551:4578   */\n      slt\n        /* \"#utility.yul\":4541:4663   */\n      tag_170\n      jumpi\n        /* \"#utility.yul\":4582:4661   */\n      tag_171\n      tag_76\n      jump\t// in\n    tag_171:\n        /* \"#utility.yul\":4541:4663   */\n    tag_170:\n        /* \"#utility.yul\":4699:4705   */\n      dup2\n        /* \"#utility.yul\":4686:4706   */\n      calldataload\n        /* \"#utility.yul\":4724:4802   */\n      tag_172\n        /* \"#utility.yul\":4798:4801   */\n      dup5\n        /* \"#utility.yul\":4790:4796   */\n      dup3\n        /* \"#utility.yul\":4783:4787   */\n      0x20\n        /* \"#utility.yul\":4775:4781   */\n      dup7\n        /* \"#utility.yul\":4771:4788   */\n      add\n        /* \"#utility.yul\":4724:4802   */\n      tag_83\n      jump\t// in\n    tag_172:\n        /* \"#utility.yul\":4715:4802   */\n      swap2\n      pop\n        /* \"#utility.yul\":4531:4808   */\n      pop\n        /* \"#utility.yul\":4470:4808   */\n      swap3\n      swap2\n      pop\n      pop\n      jump\t// out\n        /* \"#utility.yul\":4814:5466   */\n    tag_33:\n        /* \"#utility.yul\":4891:4897   */\n      0x00\n        /* \"#utility.yul\":4899:4905   */\n      dup1\n        /* \"#utility.yul\":4948:4950   */\n      0x40\n        /* \"#utility.yul\":4936:4945   */\n      dup4\n        /* \"#utility.yul\":4927:4934   */\n      dup6\n        /* \"#utility.yul\":4923:4946   */\n      sub\n        /* \"#utility.yul\":4919:4951   */\n      slt\n        /* \"#utility.yul\":4916:5035   */\n      iszero\n      tag_174\n      jumpi\n        /* \"#utility.yul\":4954:5033   */\n      tag_175\n      tag_67\n      jump\t// in\n    tag_175:\n        /* \"#utility.yul\":4916:5035   */\n    tag_174:\n        /* \"#utility.yul\":5074:5075   */\n      0x00\n        /* \"#utility.yul\":5099:5152   */\n      tag_176\n        /* \"#utility.yul\":5144:5151   */\n      dup6\n        /* \"#utility.yul\":5135:5141   */\n      dup3\n        /* \"#utility.yul\":5124:5133   */\n      dup7\n        /* \"#utility.yul\":5120:5142   */\n      add\n        /* \"#utility.yul\":5099:5152   */\n      tag_70\n      jump\t// in\n    tag_176:\n        /* \"#utility.yul\":5089:5152   */\n      swap3\n      pop\n        /* \"#utility.yul\":5045:5162   */\n      pop\n        /* \"#utility.yul\":5229:5231   */\n      0x20\n        /* \"#utility.yul\":5218:5227   */\n      dup4\n        /* \"#utility.yul\":5214:5232   */\n      add\n        /* \"#utility.yul\":5201:5233   */\n      calldataload\n        /* \"#utility.yul\":5260:5278   */\n      0xffffffffffffffff\n        /* \"#utility.yul\":5252:5258   */\n      dup2\n        /* \"#utility.yul\":5249:5279   */\n      gt\n        /* \"#utility.yul\":5246:5363   */\n      iszero\n      tag_177\n      jumpi\n        /* \"#utility.yul\":5282:5361   */\n      tag_178\n      tag_68\n      jump\t// in\n    tag_178:\n        /* \"#utility.yul\":5246:5363   */\n    tag_177:\n        /* \"#utility.yul\":5387:5449   */\n      tag_179\n        /* \"#utility.yul\":5441:5448   */\n      dup6\n        /* \"#utility.yul\":5432:5438   */\n      dup3\n        /* \"#utility.yul\":5421:5430   */\n      dup7\n        /* \"#utility.yul\":5417:5439   */\n      add\n        /* \"#utility.yul\":5387:5449   */\n      tag_84\n      jump\t// in\n    tag_179:\n        /* \"#utility.yul\":5377:5449   */\n      swap2\n      pop\n        /* \"#utility.yul\":5172:5459   */\n      pop\n        /* \"#utility.yul\":4814:5466   */\n      swap3\n      pop\n      swap3\n      swap1\n      pop\n      jump\t// out\n        /* \"#utility.yul\":5472:5589   */\n    tag_85:\n        /* \"#utility.yul\":5581:5582   */\n      0x00\n        /* \"#utility.yul\":5578:5579   */\n      dup1\n        /* \"#utility.yul\":5571:5583   */\n      revert\n        /* \"#utility.yul\":5595:5712   */\n    tag_86:\n        /* \"#utility.yul\":5704:5705   */\n      0x00\n        /* \"#utility.yul\":5701:5702   */\n      dup1\n        /* \"#utility.yul\":5694:5706   */\n      revert\n        /* \"#utility.yul\":5718:6187   */\n    tag_37:\n        /* \"#utility.yul\":5823:5832   */\n      0x00\n        /* \"#utility.yul\":5834:5843   */\n      dup1\n        /* \"#utility.yul\":5872:5880   */\n      dup6\n        /* \"#utility.yul\":5860:5870   */\n      dup6\n        /* \"#utility.yul\":5857:5881   */\n      gt\n        /* \"#utility.yul\":5854:5965   */\n      iszero\n      tag_183\n      jumpi\n        /* \"#utility.yul\":5884:5963   */\n      tag_184\n      tag_85\n      jump\t// in\n    tag_184:\n        /* \"#utility.yul\":5854:5965   */\n    tag_183:\n        /* \"#utility.yul\":5990:5996   */\n      dup4\n        /* \"#utility.yul\":5980:5988   */\n      dup7\n        /* \"#utility.yul\":5977:5997   */\n      gt\n        /* \"#utility.yul\":5974:6081   */\n      iszero\n      tag_185\n      jumpi\n        /* \"#utility.yul\":6000:6079   */\n      tag_186\n      tag_86\n      jump\t// in\n    tag_186:\n        /* \"#utility.yul\":5974:6081   */\n    tag_185:\n        /* \"#utility.yul\":6131:6132   */\n      0x01\n        /* \"#utility.yul\":6119:6129   */\n      dup6\n        /* \"#utility.yul\":6115:6133   */\n      mul\n        /* \"#utility.yul\":6107:6113   */\n      dup4\n        /* \"#utility.yul\":6103:6134   */\n      add\n        /* \"#utility.yul\":6090:6134   */\n      swap2\n      pop\n        /* \"#utility.yul\":6170:6180   */\n      dup5\n        /* \"#utility.yul\":6160:6168   */\n      dup7\n        /* \"#utility.yul\":6156:6181   */\n      sub\n        /* \"#utility.yul\":6143:6181   */\n      swap1\n      pop\n        /* \"#utility.yul\":5718:6187   */\n      swap5\n      pop\n      swap5\n      swap3\n      pop\n      pop\n      pop\n      jump\t// out\n        /* \"#utility.yul\":6193:6289   */\n    tag_87:\n        /* \"#utility.yul\":6251:6257   */\n      0x00\n        /* \"#utility.yul\":6279:6282   */\n      dup3\n        /* \"#utility.yul\":6269:6282   */\n      swap1\n      pop\n        /* \"#utility.yul\":6193:6289   */\n      swap3\n      swap2\n      pop\n      pop\n      jump\t// out\n        /* \"#utility.yul\":6387:6536   */\n    tag_89:\n        /* \"#utility.yul\":6423:6430   */\n      0x00\n        /* \"#utility.yul\":6463:6529   */\n      0xffffffff00000000000000000000000000000000000000000000000000000000\n        /* \"#utility.yul\":6456:6461   */\n      dup3\n        /* \"#utility.yul\":6452:6530   */\n      and\n        /* \"#utility.yul\":6441:6530   */\n      swap1\n      pop\n        /* \"#utility.yul\":6387:6536   */\n      swap2\n      swap1\n      pop\n      jump\t// out\n        /* \"#utility.yul\":6542:6649   */\n    tag_90:\n        /* \"#utility.yul\":6586:6594   */\n      0x00\n        /* \"#utility.yul\":6636:6641   */\n      dup3\n        /* \"#utility.yul\":6630:6634   */\n      dup3\n        /* \"#utility.yul\":6626:6642   */\n      shl\n        /* \"#utility.yul\":6605:6642   */\n      swap1\n      pop\n        /* \"#utility.yul\":6542:6649   */\n      swap3\n      swap2\n      pop\n      pop\n      jump\t// out\n        /* \"#utility.yul\":6655:7203   */\n    tag_39:\n        /* \"#utility.yul\":6745:6750   */\n      0x00\n        /* \"#utility.yul\":6776:6821   */\n      tag_192\n        /* \"#utility.yul\":6817:6820   */\n      dup4\n        /* \"#utility.yul\":6810:6815   */\n      dup4\n        /* \"#utility.yul\":6776:6821   */\n      tag_87\n      jump\t// in\n    tag_192:\n        /* \"#utility.yul\":6846:6851   */\n      dup3\n        /* \"#utility.yul\":6870:6910   */\n      tag_193\n        /* \"#utility.yul\":6900:6908   */\n      dup2\n        /* \"#utility.yul\":6887:6909   */\n      calldataload\n        /* \"#utility.yul\":6870:6910   */\n      tag_89\n      jump\t// in\n    tag_193:\n        /* \"#utility.yul\":6861:6910   */\n      swap3\n      pop\n        /* \"#utility.yul\":6934:6935   */\n      0x04\n        /* \"#utility.yul\":6926:6932   */\n      dup3\n        /* \"#utility.yul\":6923:6936   */\n      lt\n        /* \"#utility.yul\":6920:7196   */\n      iszero\n      tag_194\n      jumpi\n        /* \"#utility.yul\":7004:7172   */\n      tag_195\n        /* \"#utility.yul\":7088:7154   */\n      0xffffffff00000000000000000000000000000000000000000000000000000000\n        /* \"#utility.yul\":7058:7064   */\n      dup4\n        /* \"#utility.yul\":7055:7056   */\n      0x04\n        /* \"#utility.yul\":7051:7065   */\n      sub\n        /* \"#utility.yul\":7048:7049   */\n      0x08\n        /* \"#utility.yul\":7044:7066   */\n      mul\n        /* \"#utility.yul\":7004:7172   */\n      tag_90\n      jump\t// in\n    tag_195:\n        /* \"#utility.yul\":6981:6986   */\n      dup4\n        /* \"#utility.yul\":6960:7186   */\n      and\n        /* \"#utility.yul\":6951:7186   */\n      swap3\n      pop\n        /* \"#utility.yul\":6920:7196   */\n    tag_194:\n        /* \"#utility.yul\":6751:7203   */\n      pop\n      pop\n        /* \"#utility.yul\":6655:7203   */\n      swap3\n      swap2\n      pop\n      pop\n      jump\t// out\n        /* \"#utility.yul\":7209:7335   */\n    tag_91:\n        /* \"#utility.yul\":7246:7253   */\n      0x00\n        /* \"#utility.yul\":7286:7328   */\n      0xffffffffffffffffffffffffffffffffffffffff\n        /* \"#utility.yul\":7279:7284   */\n      dup3\n        /* \"#utility.yul\":7275:7329   */\n      and\n        /* \"#utility.yul\":7264:7329   */\n      swap1\n      pop\n        /* \"#utility.yul\":7209:7335   */\n      swap2\n      swap1\n      pop\n      jump\t// out\n        /* \"#utility.yul\":7341:7437   */\n    tag_92:\n        /* \"#utility.yul\":7378:7385   */\n      0x00\n        /* \"#utility.yul\":7407:7431   */\n      tag_198\n        /* \"#utility.yul\":7425:7430   */\n      dup3\n        /* \"#utility.yul\":7407:7431   */\n      tag_91\n      jump\t// in\n    tag_198:\n        /* \"#utility.yul\":7396:7431   */\n      swap1\n      pop\n        /* \"#utility.yul\":7341:7437   */\n      swap2\n      swap1\n      pop\n      jump\t// out\n        /* \"#utility.yul\":7443:7537   */\n    tag_93:\n        /* \"#utility.yul\":7476:7484   */\n      0x00\n        /* \"#utility.yul\":7524:7529   */\n      dup2\n        /* \"#utility.yul\":7520:7522   */\n      0x60\n        /* \"#utility.yul\":7516:7530   */\n      shl\n        /* \"#utility.yul\":7495:7530   */\n      swap1\n      pop\n        /* \"#utility.yul\":7443:7537   */\n      swap2\n      swap1\n      pop\n      jump\t// out\n        /* \"#utility.yul\":7543:7637   */\n    tag_94:\n        /* \"#utility.yul\":7582:7589   */\n      0x00\n        /* \"#utility.yul\":7611:7631   */\n      tag_201\n        /* \"#utility.yul\":7625:7630   */\n      dup3\n        /* \"#utility.yul\":7611:7631   */\n      tag_93\n      jump\t// in\n    tag_201:\n        /* \"#utility.yul\":7600:7631   */\n      swap1\n      pop\n        /* \"#utility.yul\":7543:7637   */\n      swap2\n      swap1\n      pop\n      jump\t// out\n        /* \"#utility.yul\":7643:7743   */\n    tag_95:\n        /* \"#utility.yul\":7682:7689   */\n      0x00\n        /* \"#utility.yul\":7711:7737   */\n      tag_203\n        /* \"#utility.yul\":7731:7736   */\n      dup3\n        /* \"#utility.yul\":7711:7737   */\n      tag_94\n      jump\t// in\n    tag_203:\n        /* \"#utility.yul\":7700:7737   */\n      swap1\n      pop\n        /* \"#utility.yul\":7643:7743   */\n      swap2\n      swap1\n      pop\n      jump\t// out\n        /* \"#utility.yul\":7749:7906   */\n    tag_96:\n        /* \"#utility.yul\":7854:7899   */\n      tag_205\n        /* \"#utility.yul\":7874:7898   */\n      tag_206\n        /* \"#utility.yul\":7892:7897   */\n      dup3\n        /* \"#utility.yul\":7874:7898   */\n      tag_92\n      jump\t// in\n    tag_206:\n        /* \"#utility.yul\":7854:7899   */\n      tag_95\n      jump\t// in\n    tag_205:\n        /* \"#utility.yul\":7849:7852   */\n      dup3\n        /* \"#utility.yul\":7842:7900   */\n      mstore\n        /* \"#utility.yul\":7749:7906   */\n      pop\n      pop\n      jump\t// out\n        /* \"#utility.yul\":7912:7991   */\n    tag_97:\n        /* \"#utility.yul\":7951:7958   */\n      0x00\n        /* \"#utility.yul\":7980:7985   */\n      dup2\n        /* \"#utility.yul\":7969:7985   */\n      swap1\n      pop\n        /* \"#utility.yul\":7912:7991   */\n      swap2\n      swap1\n      pop\n      jump\t// out\n        /* \"#utility.yul\":7997:8154   */\n    tag_98:\n        /* \"#utility.yul\":8102:8147   */\n      tag_209\n        /* \"#utility.yul\":8122:8146   */\n      tag_210\n        /* \"#utility.yul\":8140:8145   */\n      dup3\n        /* \"#utility.yul\":8122:8146   */\n      tag_64\n      jump\t// in\n    tag_210:\n        /* \"#utility.yul\":8102:8147   */\n      tag_97\n      jump\t// in\n    tag_209:\n        /* \"#utility.yul\":8097:8100   */\n      dup3\n        /* \"#utility.yul\":8090:8148   */\n      mstore\n        /* \"#utility.yul\":7997:8154   */\n      pop\n      pop\n      jump\t// out\n        /* \"#utility.yul\":8160:8557   */\n    tag_45:\n        /* \"#utility.yul\":8300:8303   */\n      0x00\n        /* \"#utility.yul\":8315:8390   */\n      tag_212\n        /* \"#utility.yul\":8386:8389   */\n      dup3\n        /* \"#utility.yul\":8377:8383   */\n      dup6\n        /* \"#utility.yul\":8315:8390   */\n      tag_96\n      jump\t// in\n    tag_212:\n        /* \"#utility.yul\":8415:8417   */\n      0x14\n        /* \"#utility.yul\":8410:8413   */\n      dup3\n        /* \"#utility.yul\":8406:8418   */\n      add\n        /* \"#utility.yul\":8399:8418   */\n      swap2\n      pop\n        /* \"#utility.yul\":8428:8503   */\n      tag_213\n        /* \"#utility.yul\":8499:8502   */\n      dup3\n        /* \"#utility.yul\":8490:8496   */\n      dup5\n        /* \"#utility.yul\":8428:8503   */\n      tag_98\n      jump\t// in\n    tag_213:\n        /* \"#utility.yul\":8528:8530   */\n      0x20\n        /* \"#utility.yul\":8523:8526   */\n      dup3\n        /* \"#utility.yul\":8519:8531   */\n      add\n        /* \"#utility.yul\":8512:8531   */\n      swap2\n      pop\n        /* \"#utility.yul\":8548:8551   */\n      dup2\n        /* \"#utility.yul\":8541:8551   */\n      swap1\n      pop\n        /* \"#utility.yul\":8160:8557   */\n      swap4\n      swap3\n      pop\n      pop\n      pop\n      jump\t// out\n        /* \"#utility.yul\":8563:8743   */\n    tag_99:\n        /* \"#utility.yul\":8611:8688   */\n      0x4e487b7100000000000000000000000000000000000000000000000000000000\n        /* \"#utility.yul\":8608:8609   */\n      0x00\n        /* \"#utility.yul\":8601:8689   */\n      mstore\n        /* \"#utility.yul\":8708:8712   */\n      0x22\n        /* \"#utility.yul\":8705:8706   */\n      0x04\n        /* \"#utility.yul\":8698:8713   */\n      mstore\n        /* \"#utility.yul\":8732:8736   */\n      0x24\n        /* \"#utility.yul\":8729:8730   */\n      0x00\n        /* \"#utility.yul\":8722:8737   */\n      revert\n        /* \"#utility.yul\":8749:9069   */\n    tag_48:\n        /* \"#utility.yul\":8793:8799   */\n      0x00\n        /* \"#utility.yul\":8830:8831   */\n      0x02\n        /* \"#utility.yul\":8824:8828   */\n      dup3\n        /* \"#utility.yul\":8820:8832   */\n      div\n        /* \"#utility.yul\":8810:8832   */\n      swap1\n      pop\n        /* \"#utility.yul\":8877:8878   */\n      0x01\n        /* \"#utility.yul\":8871:8875   */\n      dup3\n        /* \"#utility.yul\":8867:8879   */\n      and\n        /* \"#utility.yul\":8898:8916   */\n      dup1\n        /* \"#utility.yul\":8888:8969   */\n      tag_216\n      jumpi\n        /* \"#utility.yul\":8954:8958   */\n      0x7f\n        /* \"#utility.yul\":8946:8952   */\n      dup3\n        /* \"#utility.yul\":8942:8959   */\n      and\n        /* \"#utility.yul\":8932:8959   */\n      swap2\n      pop\n        /* \"#utility.yul\":8888:8969   */\n    tag_216:\n        /* \"#utility.yul\":9016:9018   */\n      0x20\n        /* \"#utility.yul\":9008:9014   */\n      dup3\n        /* \"#utility.yul\":9005:9019   */\n      lt\n        /* \"#utility.yul\":8985:9003   */\n      dup2\n        /* \"#utility.yul\":8982:9020   */\n      sub\n        /* \"#utility.yul\":8979:9063   */\n      tag_217\n      jumpi\n        /* \"#utility.yul\":9035:9053   */\n      tag_218\n      tag_99\n      jump\t// in\n    tag_218:\n        /* \"#utility.yul\":8979:9063   */\n    tag_217:\n        /* \"#utility.yul\":8800:9069   */\n      pop\n        /* \"#utility.yul\":8749:9069   */\n      swap2\n      swap1\n      pop\n      jump\t// out\n        /* \"#utility.yul\":9075:9174   */\n    tag_100:\n        /* \"#utility.yul\":9127:9133   */\n      0x00\n        /* \"#utility.yul\":9161:9166   */\n      dup2\n        /* \"#utility.yul\":9155:9167   */\n      mload\n        /* \"#utility.yul\":9145:9167   */\n      swap1\n      pop\n        /* \"#utility.yul\":9075:9174   */\n      swap2\n      swap1\n      pop\n      jump\t// out\n        /* \"#utility.yul\":9180:9320   */\n    tag_101:\n        /* \"#utility.yul\":9228:9232   */\n      0x00\n        /* \"#utility.yul\":9251:9254   */\n      dup2\n        /* \"#utility.yul\":9243:9254   */\n      swap1\n      pop\n        /* \"#utility.yul\":9274:9277   */\n      dup2\n        /* \"#utility.yul\":9271:9272   */\n      0x00\n        /* \"#utility.yul\":9264:9278   */\n      mstore\n        /* \"#utility.yul\":9308:9312   */\n      0x20\n        /* \"#utility.yul\":9305:9306   */\n      0x00\n        /* \"#utility.yul\":9295:9313   */\n      keccak256\n        /* \"#utility.yul\":9287:9313   */\n      swap1\n      pop\n        /* \"#utility.yul\":9180:9320   */\n      swap2\n      swap1\n      pop\n      jump\t// out\n        /* \"#utility.yul\":9326:9419   */\n    tag_102:\n        /* \"#utility.yul\":9363:9369   */\n      0x00\n        /* \"#utility.yul\":9410:9412   */\n      0x20\n        /* \"#utility.yul\":9405:9407   */\n      0x1f\n        /* \"#utility.yul\":9398:9403   */\n      dup4\n        /* \"#utility.yul\":9394:9408   */\n      add\n        /* \"#utility.yul\":9390:9413   */\n      div\n        /* \"#utility.yul\":9380:9413   */\n      swap1\n      pop\n        /* \"#utility.yul\":9326:9419   */\n      swap2\n      swap1\n      pop\n      jump\t// out\n        /* \"#utility.yul\":9425:9818   */\n    tag_103:\n        /* \"#utility.yul\":9494:9500   */\n      0x00\n        /* \"#utility.yul\":9544:9545   */\n      0x08\n        /* \"#utility.yul\":9532:9542   */\n      dup4\n        /* \"#utility.yul\":9528:9546   */\n      mul\n        /* \"#utility.yul\":9567:9664   */\n      tag_223\n        /* \"#utility.yul\":9597:9663   */\n      0xffffffffffffffffffffffffffffffffffffffffffffffffffffffffffffffff\n        /* \"#utility.yul\":9586:9595   */\n      dup3\n        /* \"#utility.yul\":9567:9664   */\n      tag_90\n      jump\t// in\n    tag_223:\n        /* \"#utility.yul\":9685:9724   */\n      tag_224\n        /* \"#utility.yul\":9715:9723   */\n      dup7\n        /* \"#utility.yul\":9704:9713   */\n      dup4\n        /* \"#utility.yul\":9685:9724   */\n      tag_90\n      jump\t// in\n    tag_224:\n        /* \"#utility.yul\":9673:9724   */\n      swap6\n      pop\n        /* \"#utility.yul\":9757:9761   */\n      dup1\n        /* \"#utility.yul\":9753:9762   */\n      not\n        /* \"#utility.yul\":9746:9751   */\n      dup5\n        /* \"#utility.yul\":9742:9763   */\n      and\n        /* \"#utility.yul\":9733:9763   */\n      swap4\n      pop\n        /* \"#utility.yul\":9806:9810   */\n      dup1\n        /* \"#utility.yul\":9796:9804   */\n      dup7\n        /* \"#utility.yul\":9792:9811   */\n      and\n        /* \"#utility.yul\":9785:9790   */\n      dup5\n        /* \"#utility.yul\":9782:9812   */\n      or\n        /* \"#utility.yul\":9772:9812   */\n      swap3\n      pop\n        /* \"#utility.yul\":9501:9818   */\n      pop\n      pop\n        /* \"#utility.yul\":9425:9818   */\n      swap4\n      swap3\n      pop\n      pop\n      pop\n      jump\t// out\n        /* \"#utility.yul\":9824:9901   */\n    tag_104:\n        /* \"#utility.yul\":9861:9868   */\n      0x00\n        /* \"#utility.yul\":9890:9895   */\n      dup2\n        /* \"#utility.yul\":9879:9895   */\n      swap1\n      pop\n        /* \"#utility.yul\":9824:9901   */\n      swap2\n      swap1\n      pop\n      jump\t// out\n        /* \"#utility.yul\":9907:9967   */\n    tag_105:\n        /* \"#utility.yul\":9935:9938   */\n      0x00\n        /* \"#utility.yul\":9956:9961   */\n      dup2\n        /* \"#utility.yul\":9949:9961   */\n      swap1\n      pop\n        /* \"#utility.yul\":9907:9967   */\n      swap2\n      swap1\n      pop\n      jump\t// out\n        /* \"#utility.yul\":9973:10115   */\n    tag_106:\n        /* \"#utility.yul\":10023:10032   */\n      0x00\n        /* \"#utility.yul\":10056:10109   */\n      tag_228\n        /* \"#utility.yul\":10074:10108   */\n      tag_229\n        /* \"#utility.yul\":10083:10107   */\n      tag_230\n        /* \"#utility.yul\":10101:10106   */\n      dup5\n        /* \"#utility.yul\":10083:10107   */\n      tag_104\n      jump\t// in\n    tag_230:\n        /* \"#utility.yul\":10074:10108   */\n      tag_105\n      jump\t// in\n    tag_229:\n        /* \"#utility.yul\":10056:10109   */\n      tag_104\n      jump\t// in\n    tag_228:\n        /* \"#utility.yul\":10043:10109   */\n      swap1\n      pop\n        /* \"#utility.yul\":9973:10115   */\n      swap2\n      swap1\n      pop\n      jump\t// out\n        /* \"#utility.yul\":10121:10196   */\n    tag_107:\n        /* \"#utility.yul\":10164:10167   */\n      0x00\n        /* \"#utility.yul\":10185:10190   */\n      dup2\n        /* \"#utility.yul\":10178:10190   */\n      swap1\n      pop\n        /* \"#utility.yul\":10121:10196   */\n      swap2\n      swap1\n      pop\n      jump\t// out\n        /* \"#utility.yul\":10202:10471   */\n    tag_108:\n        /* \"#utility.yul\":10312:10351   */\n      tag_233\n        /* \"#utility.yul\":10343:10350   */\n      dup4\n        /* \"#utility.yul\":10312:10351   */\n      tag_106\n      jump\t// in\n    tag_233:\n        /* \"#utility.yul\":10373:10464   */\n      tag_234\n        /* \"#utility.yul\":10422:10463   */\n      tag_235\n        /* \"#utility.yul\":10446:10462   */\n      dup3\n        /* \"#utility.yul\":10422:10463   */\n      tag_107\n      jump\t// in\n    tag_235:\n        /* \"#utility.yul\":10414:10420   */\n      dup5\n        /* \"#utility.yul\":10407:10411   */\n      dup5\n        /* \"#utility.yul\":10401:10412   */\n      sload\n        /* \"#utility.yul\":10373:10464   */\n      tag_103\n      jump\t// in\n    tag_234:\n        /* \"#utility.yul\":10367:10371   */\n      dup3\n        /* \"#utility.yul\":10360:10465   */\n      sstore\n        /* \"#utility.yul\":10278:10471   */\n      pop\n        /* \"#utility.yul\":10202:10471   */\n      pop\n      pop\n      pop\n      jump\t// out\n        /* \"#utility.yul\":10477:10550   */\n    tag_109:\n        /* \"#utility.yul\":10522:10525   */\n      0x00\n        /* \"#utility.yul\":10477:10550   */\n      swap1\n      jump\t// out\n        /* \"#utility.yul\":10556:10745   */\n    tag_110:\n        /* \"#utility.yul\":10633:10665   */\n      tag_238\n      tag_109\n      jump\t// in\n    tag_238:\n        /* \"#utility.yul\":10674:10739   */\n      tag_239\n        /* \"#utility.yul\":10732:10738   */\n      dup2\n        /* \"#utility.yul\":10724:10730   */\n      dup5\n        /* \"#utility.yul\":10718:10722   */\n      dup5\n        /* \"#utility.yul\":10674:10739   */\n      tag_108\n      jump\t// in\n    tag_239:\n        /* \"#utility.yul\":10609:10745   */\n      pop\n        /* \"#utility.yul\":10556:10745   */\n      pop\n      pop\n      jump\t// out\n        /* \"#utility.yul\":10751:10937   */\n    tag_111:\n        /* \"#utility.yul\":10811:10931   */\n    tag_241:\n        /* \"#utility.yul\":10828:10831   */\n      dup2\n        /* \"#utility.yul\":10821:10826   */\n      dup2\n        /* \"#utility.yul\":10818:10832   */\n      lt\n        /* \"#utility.yul\":10811:10931   */\n      iszero\n      tag_243\n      jumpi\n        /* \"#utility.yul\":10882:10921   */\n      tag_244\n        /* \"#utility.yul\":10919:10920   */\n      0x00\n        /* \"#utility.yul\":10912:10917   */\n      dup3\n        /* \"#utility.yul\":10882:10921   */\n      tag_110\n      jump\t// in\n    tag_244:\n        /* \"#utility.yul\":10855:10856   */\n      0x01\n        /* \"#utility.yul\":10848:10853   */\n      dup2\n        /* \"#utility.yul\":10844:10857   */\n      add\n        /* \"#utility.yul\":10835:10857   */\n      swap1\n      pop\n        /* \"#utility.yul\":10811:10931   */\n      jump(tag_241)\n    tag_243:\n        /* \"#utility.yul\":10751:10937   */\n      pop\n      pop\n      jump\t// out\n        /* \"#utility.yul\":10943:11484   */\n    tag_112:\n        /* \"#utility.yul\":11043:11045   */\n      0x1f\n        /* \"#utility.yul\":11038:11041   */\n      dup3\n        /* \"#utility.yul\":11035:11046   */\n      gt\n        /* \"#utility.yul\":11032:11477   */\n      iszero\n      tag_246\n      jumpi\n        /* \"#utility.yul\":11077:11114   */\n      tag_247\n        /* \"#utility.yul\":11108:11113   */\n      dup2\n        /* \"#utility.yul\":11077:11114   */\n      tag_101\n      jump\t// in\n    tag_247:\n        /* \"#utility.yul\":11160:11189   */\n      tag_248\n        /* \"#utility.yul\":11178:11188   */\n      dup5\n        /* \"#utility.yul\":11160:11189   */\n      tag_102\n      jump\t// in\n    tag_248:\n        /* \"#utility.yul\":11150:11158   */\n      dup2\n        /* \"#utility.yul\":11146:11190   */\n      add\n        /* \"#utility.yul\":11343:11345   */\n      0x20\n        /* \"#utility.yul\":11331:11341   */\n      dup6\n        /* \"#utility.yul\":11328:11346   */\n      lt\n        /* \"#utility.yul\":11325:11374   */\n      iszero\n      tag_249\n      jumpi\n        /* \"#utility.yul\":11364:11372   */\n      dup2\n        /* \"#utility.yul\":11349:11372   */\n      swap1\n      pop\n        /* \"#utility.yul\":11325:11374   */\n    tag_249:\n        /* \"#utility.yul\":11387:11467   */\n      tag_250\n        /* \"#utility.yul\":11443:11465   */\n      tag_251\n        /* \"#utility.yul\":11461:11464   */\n      dup6\n        /* \"#utility.yul\":11443:11465   */\n      tag_102\n      jump\t// in\n    tag_251:\n        /* \"#utility.yul\":11433:11441   */\n      dup4\n        /* \"#utility.yul\":11429:11466   */\n      add\n        /* \"#utility.yul\":11416:11427   */\n      dup3\n        /* \"#utility.yul\":11387:11467   */\n      tag_111\n      jump\t// in\n    tag_250:\n        /* \"#utility.yul\":11047:11477   */\n      pop\n      pop\n        /* \"#utility.yul\":11032:11477   */\n    tag_246:\n        /* \"#utility.yul\":10943:11484   */\n      pop\n      pop\n      pop\n      jump\t// out\n        /* \"#utility.yul\":11490:11607   */\n    tag_113:\n        /* \"#utility.yul\":11544:11552   */\n      0x00\n        /* \"#utility.yul\":11594:11599   */\n      dup3\n        /* \"#utility.yul\":11588:11592   */\n      dup3\n        /* \"#utility.yul\":11584:11600   */\n      shr\n        /* \"#utility.yul\":11563:11600   */\n      swap1\n      pop\n        /* \"#utility.yul\":11490:11607   */\n      swap3\n      swap2\n      pop\n      pop\n      jump\t// out\n        /* \"#utility.yul\":11613:11782   */\n    tag_114:\n        /* \"#utility.yul\":11657:11663   */\n      0x00\n        /* \"#utility.yul\":11690:11741   */\n      tag_254\n        /* \"#utility.yul\":11738:11739   */\n      0x00\n        /* \"#utility.yul\":11734:11740   */\n      not\n        /* \"#utility.yul\":11726:11731   */\n      dup5\n        /* \"#utility.yul\":11723:11724   */\n      0x08\n        /* \"#utility.yul\":11719:11732   */\n      mul\n        /* \"#utility.yul\":11690:11741   */\n      tag_113\n      jump\t// in\n    tag_254:\n        /* \"#utility.yul\":11686:11742   */\n      not\n        /* \"#utility.yul\":11771:11775   */\n      dup1\n        /* \"#utility.yul\":11765:11769   */\n      dup4\n        /* \"#utility.yul\":11761:11776   */\n      and\n        /* \"#utility.yul\":11751:11776   */\n      swap2\n      pop\n        /* \"#utility.yul\":11664:11782   */\n      pop\n        /* \"#utility.yul\":11613:11782   */\n      swap3\n      swap2\n      pop\n      pop\n      jump\t// out\n        /* \"#utility.yul\":11787:12082   */\n    tag_115:\n        /* \"#utility.yul\":11863:11867   */\n      0x00\n        /* \"#utility.yul\":12009:12038   */\n      tag_256\n        /* \"#utility.yul\":12034:12037   */\n      dup4\n        /* \"#utility.yul\":12028:12032   */\n      dup4\n        /* \"#utility.yul\":12009:12038   */\n      tag_114\n      jump\t// in\n    tag_256:\n        /* \"#utility.yul\":12001:12038   */\n      swap2\n      pop\n        /* \"#utility.yul\":12071:12074   */\n      dup3\n        /* \"#utility.yul\":12068:12069   */\n      0x02\n        /* \"#utility.yul\":12064:12075   */\n      mul\n        /* \"#utility.yul\":12058:12062   */\n      dup3\n        /* \"#utility.yul\":12055:12076   */\n      or\n        /* \"#utility.yul\":12047:12076   */\n      swap1\n      pop\n        /* \"#utility.yul\":11787:12082   */\n      swap3\n      swap2\n      pop\n      pop\n      jump\t// out\n        /* \"#utility.yul\":12087:13479   */\n    tag_57:\n        /* \"#utility.yul\":12203:12240   */\n      tag_258\n        /* \"#utility.yul\":12236:12239   */\n      dup3\n        /* \"#utility.yul\":12203:12240   */\n      tag_100\n      jump\t// in\n    tag_258:\n        /* \"#utility.yul\":12305:12323   */\n      0xffffffffffffffff\n        /* \"#utility.yul\":12297:12303   */\n      dup2\n        /* \"#utility.yul\":12294:12324   */\n      gt\n        /* \"#utility.yul\":12291:12347   */\n      iszero\n      tag_259\n      jumpi\n        /* \"#utility.yul\":12327:12345   */\n      tag_260\n      tag_78\n      jump\t// in\n    tag_260:\n        /* \"#utility.yul\":12291:12347   */\n    tag_259:\n        /* \"#utility.yul\":12371:12409   */\n      tag_261\n        /* \"#utility.yul\":12403:12407   */\n      dup3\n        /* \"#utility.yul\":12397:12408   */\n      sload\n        /* \"#utility.yul\":12371:12409   */\n      tag_48\n      jump\t// in\n    tag_261:\n        /* \"#utility.yul\":12456:12522   */\n      tag_262\n        /* \"#utility.yul\":12515:12521   */\n      dup3\n        /* \"#utility.yul\":12507:12513   */\n      dup3\n        /* \"#utility.yul\":12501:12505   */\n      dup6\n        /* \"#utility.yul\":12456:12522   */\n      tag_112\n      jump\t// in\n    tag_262:\n        /* \"#utility.yul\":12549:12550   */\n      0x00\n        /* \"#utility.yul\":12573:12577   */\n      0x20\n        /* \"#utility.yul\":12560:12577   */\n      swap1\n      pop\n        /* \"#utility.yul\":12605:12607   */\n      0x1f\n        /* \"#utility.yul\":12597:12603   */\n      dup4\n        /* \"#utility.yul\":12594:12608   */\n      gt\n        /* \"#utility.yul\":12622:12623   */\n      0x01\n        /* \"#utility.yul\":12617:13234   */\n      dup2\n      eq\n      tag_264\n      jumpi\n        /* \"#utility.yul\":13278:13279   */\n      0x00\n        /* \"#utility.yul\":13295:13301   */\n      dup5\n        /* \"#utility.yul\":13292:13369   */\n      iszero\n      tag_265\n      jumpi\n        /* \"#utility.yul\":13344:13353   */\n      dup3\n        /* \"#utility.yul\":13339:13342   */\n      dup8\n        /* \"#utility.yul\":13335:13354   */\n      add\n        /* \"#utility.yul\":13329:13355   */\n      mload\n        /* \"#utility.yul\":13320:13355   */\n      swap1\n      pop\n        /* \"#utility.yul\":13292:13369   */\n    tag_265:\n        /* \"#utility.yul\":13395:13462   */\n      tag_266\n        /* \"#utility.yul\":13455:13461   */\n      dup6\n        /* \"#utility.yul\":13448:13453   */\n      dup3\n        /* \"#utility.yul\":13395:13462   */\n      tag_115\n      jump\t// in\n    tag_266:\n        /* \"#utility.yul\":13389:13393   */\n      dup7\n        /* \"#utility.yul\":13382:13463   */\n      sstore\n        /* \"#utility.yul\":13251:13473   */\n      pop\n        /* \"#utility.yul\":12587:13473   */\n      jump(tag_263)\n        /* \"#utility.yul\":12617:13234   */\n    tag_264:\n        /* \"#utility.yul\":12669:12673   */\n      0x1f\n        /* \"#utility.yul\":12665:12674   */\n      not\n        /* \"#utility.yul\":12657:12663   */\n      dup5\n        /* \"#utility.yul\":12653:12675   */\n      and\n        /* \"#utility.yul\":12703:12739   */\n      tag_267\n        /* \"#utility.yul\":12734:12738   */\n      dup7\n        /* \"#utility.yul\":12703:12739   */\n      tag_101\n      jump\t// in\n    tag_267:\n        /* \"#utility.yul\":12761:12762   */\n      0x00\n        /* \"#utility.yul\":12775:12983   */\n    tag_268:\n        /* \"#utility.yul\":12789:12796   */\n      dup3\n        /* \"#utility.yul\":12786:12787   */\n      dup2\n        /* \"#utility.yul\":12783:12797   */\n      lt\n        /* \"#utility.yul\":12775:12983   */\n      iszero\n      tag_270\n      jumpi\n        /* \"#utility.yul\":12868:12877   */\n      dup5\n        /* \"#utility.yul\":12863:12866   */\n      dup10\n        /* \"#utility.yul\":12859:12878   */\n      add\n        /* \"#utility.yul\":12853:12879   */\n      mload\n        /* \"#utility.yul\":12845:12851   */\n      dup3\n        /* \"#utility.yul\":12838:12880   */\n      sstore\n        /* \"#utility.yul\":12919:12920   */\n      0x01\n        /* \"#utility.yul\":12911:12917   */\n      dup3\n        /* \"#utility.yul\":12907:12921   */\n      add\n        /* \"#utility.yul\":12897:12921   */\n      swap2\n      pop\n        /* \"#utility.yul\":12966:12968   */\n      0x20\n        /* \"#utility.yul\":12955:12964   */\n      dup6\n        /* \"#utility.yul\":12951:12969   */\n      add\n        /* \"#utility.yul\":12938:12969   */\n      swap5\n      pop\n        /* \"#utility.yul\":12812:12816   */\n      0x20\n        /* \"#utility.yul\":12809:12810   */\n      dup2\n        /* \"#utility.yul\":12805:12817   */\n      add\n        /* \"#utility.yul\":12800:12817   */\n      swap1\n      pop\n        /* \"#utility.yul\":12775:12983   */\n      jump(tag_268)\n    tag_270:\n        /* \"#utility.yul\":13011:13017   */\n      dup7\n        /* \"#utility.yul\":13002:13009   */\n      dup4\n        /* \"#utility.yul\":12999:13018   */\n      lt\n        /* \"#utility.yul\":12996:13175   */\n      iszero\n      tag_271\n      jumpi\n        /* \"#utility.yul\":13069:13078   */\n      dup5\n        /* \"#utility.yul\":13064:13067   */\n      dup10\n        /* \"#utility.yul\":13060:13079   */\n      add\n        /* \"#utility.yul\":13054:13080   */\n      mload\n        /* \"#utility.yul\":13112:13160   */\n      tag_272\n        /* \"#utility.yul\":13154:13158   */\n      0x1f\n        /* \"#utility.yul\":13146:13152   */\n      dup10\n        /* \"#utility.yul\":13142:13159   */\n      and\n        /* \"#utility.yul\":13131:13140   */\n      dup3\n        /* \"#utility.yul\":13112:13160   */\n      tag_114\n      jump\t// in\n    tag_272:\n        /* \"#utility.yul\":13104:13110   */\n      dup4\n        /* \"#utility.yul\":13097:13161   */\n      sstore\n        /* \"#utility.yul\":13019:13175   */\n      pop\n        /* \"#utility.yul\":12996:13175   */\n    tag_271:\n        /* \"#utility.yul\":13221:13222   */\n      0x01\n        /* \"#utility.yul\":13217:13218   */\n      0x02\n        /* \"#utility.yul\":13209:13215   */\n      dup9\n        /* \"#utility.yul\":13205:13219   */\n      mul\n        /* \"#utility.yul\":13201:13223   */\n      add\n        /* \"#utility.yul\":13195:13199   */\n      dup9\n        /* \"#utility.yul\":13188:13224   */\n      sstore\n        /* \"#utility.yul\":12624:13234   */\n      pop\n      pop\n      pop\n        /* \"#utility.yul\":12587:13473   */\n    tag_263:\n      pop\n        /* \"#utility.yul\":12178:13479   */\n      pop\n      pop\n      pop\n        /* \"#utility.yul\":12087:13479   */\n      pop\n      pop\n      jump\t// out\n        /* \"#utility.yul\":13485:14875   */\n    tag_62:\n        /* \"#utility.yul\":13600:13636   */\n      tag_274\n        /* \"#utility.yul\":13632:13635   */\n      dup3\n        /* \"#utility.yul\":13600:13636   */\n      tag_71\n      jump\t// in\n    tag_274:\n        /* \"#utility.yul\":13701:13719   */\n      0xffffffffffffffff\n        /* \"#utility.yul\":13693:13699   */\n      dup2\n        /* \"#utility.yul\":13690:13720   */\n      gt\n        /* \"#utility.yul\":13687:13743   */\n      iszero\n      tag_275\n      jumpi\n        /* \"#utility.yul\":13723:13741   */\n      tag_276\n      tag_78\n      jump\t// in\n    tag_276:\n        /* \"#utility.yul\":13687:13743   */\n    tag_275:\n        /* \"#utility.yul\":13767:13805   */\n      tag_277\n        /* \"#utility.yul\":13799:13803   */\n      dup3\n        /* \"#utility.yul\":13793:13804   */\n      sload\n        /* \"#utility.yul\":13767:13805   */\n      tag_48\n      jump\t// in\n    tag_277:\n        /* \"#utility.yul\":13852:13918   */\n      tag_278\n        /* \"#utility.yul\":13911:13917   */\n      dup3\n        /* \"#utility.yul\":13903:13909   */\n      dup3\n        /* \"#utility.yul\":13897:13901   */\n      dup6\n        /* \"#utility.yul\":13852:13918   */\n      tag_112\n      jump\t// in\n    tag_278:\n        /* \"#utility.yul\":13945:13946   */\n      0x00\n        /* \"#utility.yul\":13969:13973   */\n      0x20\n        /* \"#utility.yul\":13956:13973   */\n      swap1\n      pop\n        /* \"#utility.yul\":14001:14003   */\n      0x1f\n        /* \"#utility.yul\":13993:13999   */\n      dup4\n        /* \"#utility.yul\":13990:14004   */\n      gt\n        /* \"#utility.yul\":14018:14019   */\n      0x01\n        /* \"#utility.yul\":14013:14630   */\n      dup2\n      eq\n      tag_280\n      jumpi\n        /* \"#utility.yul\":14674:14675   */\n      0x00\n        /* \"#utility.yul\":14691:14697   */\n      dup5\n        /* \"#utility.yul\":14688:14765   */\n      iszero\n      tag_281\n      jumpi\n        /* \"#utility.yul\":14740:14749   */\n      dup3\n        /* \"#utility.yul\":14735:14738   */\n      dup8\n        /* \"#utility.yul\":14731:14750   */\n      add\n        /* \"#utility.yul\":14725:14751   */\n      mload\n        /* \"#utility.yul\":14716:14751   */\n      swap1\n      pop\n        /* \"#utility.yul\":14688:14765   */\n    tag_281:\n        /* \"#utility.yul\":14791:14858   */\n      tag_282\n        /* \"#utility.yul\":14851:14857   */\n      dup6\n        /* \"#utility.yul\":14844:14849   */\n      dup3\n        /* \"#utility.yul\":14791:14858   */\n      tag_115\n      jump\t// in\n    tag_282:\n        /* \"#utility.yul\":14785:14789   */\n      dup7\n        /* \"#utility.yul\":14778:14859   */\n      sstore\n        /* \"#utility.yul\":14647:14869   */\n      pop\n        /* \"#utility.yul\":13983:14869   */\n      jump(tag_279)\n        /* \"#utility.yul\":14013:14630   */\n    tag_280:\n        /* \"#utility.yul\":14065:14069   */\n      0x1f\n        /* \"#utility.yul\":14061:14070   */\n      not\n        /* \"#utility.yul\":14053:14059   */\n      dup5\n        /* \"#utility.yul\":14049:14071   */\n      and\n        /* \"#utility.yul\":14099:14135   */\n      tag_283\n        /* \"#utility.yul\":14130:14134   */\n      dup7\n        /* \"#utility.yul\":14099:14135   */\n      tag_101\n      jump\t// in\n    tag_283:\n        /* \"#utility.yul\":14157:14158   */\n      0x00\n        /* \"#utility.yul\":14171:14379   */\n    tag_284:\n        /* \"#utility.yul\":14185:14192   */\n      dup3\n        /* \"#utility.yul\":14182:14183   */\n      dup2\n        /* \"#utility.yul\":14179:14193   */\n      lt\n        /* \"#utility.yul\":14171:14379   */\n      iszero\n      tag_286\n      jumpi\n        /* \"#utility.yul\":14264:14273   */\n      dup5\n        /* \"#utility.yul\":14259:14262   */\n      dup10\n        /* \"#utility.yul\":14255:14274   */\n      add\n        /* \"#utility.yul\":14249:14275   */\n      mload\n        /* \"#utility.yul\":14241:14247   */\n      dup3\n        /* \"#utility.yul\":14234:14276   */\n      sstore\n        /* \"#utility.yul\":14315:14316   */\n      0x01\n        /* \"#utility.yul\":14307:14313   */\n      dup3\n        /* \"#utility.yul\":14303:14317   */\n      add\n        /* \"#utility.yul\":14293:14317   */\n      swap2\n      pop\n        /* \"#utility.yul\":14362:14364   */\n      0x20\n        /* \"#utility.yul\":14351:14360   */\n      dup6\n        /* \"#utility.yul\":14347:14365   */\n      add\n        /* \"#utility.yul\":14334:14365   */\n      swap5\n      pop\n        /* \"#utility.yul\":14208:14212   */\n      0x20\n        /* \"#utility.yul\":14205:14206   */\n      dup2\n        /* \"#utility.yul\":14201:14213   */\n      add\n        /* \"#utility.yul\":14196:14213   */\n      swap1\n      pop\n        /* \"#utility.yul\":14171:14379   */\n      jump(tag_284)\n    tag_286:\n        /* \"#utility.yul\":14407:14413   */\n      dup7\n        /* \"#utility.yul\":14398:14405   */\n      dup4\n        /* \"#utility.yul\":14395:14414   */\n      lt\n        /* \"#utility.yul\":14392:14571   */\n      iszero\n      tag_287\n      jumpi\n        /* \"#utility.yul\":14465:14474   */\n      dup5\n        /* \"#utility.yul\":14460:14463   */\n      dup10\n        /* \"#utility.yul\":14456:14475   */\n      add\n        /* \"#utility.yul\":14450:14476   */\n      mload\n        /* \"#utility.yul\":14508:14556   */\n      tag_288\n        /* \"#utility.yul\":14550:14554   */\n      0x1f\n        /* \"#utility.yul\":14542:14548   */\n      dup10\n        /* \"#utility.yul\":14538:14555   */\n      and\n        /* \"#utility.yul\":14527:14536   */\n      dup3\n        /* \"#utility.yul\":14508:14556   */\n      tag_114\n      jump\t// in\n    tag_288:\n        /* \"#utility.yul\":14500:14506   */\n      dup4\n        /* \"#utility.yul\":14493:14557   */\n      sstore\n        /* \"#utility.yul\":14415:14571   */\n      pop\n        /* \"#utility.yul\":14392:14571   */\n    tag_287:\n        /* \"#utility.yul\":14617:14618   */\n      0x01\n        /* \"#utility.yul\":14613:14614   */\n      0x02\n        /* \"#utility.yul\":14605:14611   */\n      dup9\n        /* \"#utility.yul\":14601:14615   */\n      mul\n        /* \"#utility.yul\":14597:14619   */\n      add\n        /* \"#utility.yul\":14591:14595   */\n      dup9\n        /* \"#utility.yul\":14584:14620   */\n      sstore\n        /* \"#utility.yul\":14020:14630   */\n      pop\n      pop\n      pop\n        /* \"#utility.yul\":13983:14869   */\n    tag_279:\n      pop\n        /* \"#utility.yul\":13575:14875   */\n      pop\n      pop\n      pop\n        /* \"#utility.yul\":13485:14875   */\n      pop\n      pop\n      jump\t// out\n\n    auxdata: 0xa26469706673582212201b332e5f5155ae3d842fb7ceb96ba8d75dd1def1fdd15b55bb17847c65eafa9164736f6c63430008120033\n}\n",
				"bytecode": {
					"linkReferences": {},
					"object": "608060405234801561001057600080fd5b50610bb8806100206000396000f3fe6080604052600436106100435760003560e01c8063213fcb8b1461005c5780638eaa6ac014610087578063a42929e0146100c4578063aac438c0146100ed57610052565b3661005257610050610116565b005b61005a610116565b005b34801561006857600080fd5b506100716101c0565b60405161007e9190610350565b60405180910390f35b34801561009357600080fd5b506100ae60048036038101906100a991906103ab565b6101c6565b6040516100bb9190610468565b60405180910390f35b3480156100d057600080fd5b506100eb60048036038101906100e691906103ab565b61028c565b005b3480156100f957600080fd5b50610114600480360381019061010f91906105bf565b6102e0565b005b6000803660009060049261012c93929190610625565b9061013791906106a4565b905060008036600490809261014e93929190610625565b8080601f016020809104026020016040519081016040528093929190818152602001838380828437600081840152601f19601f8201169050808301925050505050505090506101bc827bffffffffffffffffffffffffffffffffffffffffffffffffffffffff1916826102e0565b5050565b60005481565b60606101f933836040516020016101de92919061079e565b6040516020818303038152906040528051906020012061032d565b6000018054610207906107f9565b80601f0160208091040260200160405190810160405280929190818152602001828054610233906107f9565b80156102805780601f1061025557610100808354040283529160200191610280565b820191906000526020600020905b81548152906001019060200180831161026357829003601f168201915b50505050509050919050565b604051806020016040528060008152506102cd33836040516020016102b292919061079e565b6040516020818303038152906040528051906020012061032d565b60000190816102dc91906109de565b5050565b816000819055508061031933846040516020016102fe92919061079e565b6040516020818303038152906040528051906020012061032d565b60000190816103289190610ab0565b505050565b6000819050919050565b6000819050919050565b61034a81610337565b82525050565b60006020820190506103656000830184610341565b92915050565b6000604051905090565b600080fd5b600080fd5b61038881610337565b811461039357600080fd5b50565b6000813590506103a58161037f565b92915050565b6000602082840312156103c1576103c0610375565b5b60006103cf84828501610396565b91505092915050565b600081519050919050565b600082825260208201905092915050565b60005b838110156104125780820151818401526020810190506103f7565b60008484015250505050565b6000601f19601f8301169050919050565b600061043a826103d8565b61044481856103e3565b93506104548185602086016103f4565b61045d8161041e565b840191505092915050565b60006020820190508181036000830152610482818461042f565b905092915050565b600080fd5b600080fd5b7f4e487b7100000000000000000000000000000000000000000000000000000000600052604160045260246000fd5b6104cc8261041e565b810181811067ffffffffffffffff821117156104eb576104ea610494565b5b80604052505050565b60006104fe61036b565b905061050a82826104c3565b919050565b600067ffffffffffffffff82111561052a57610529610494565b5b6105338261041e565b9050602081019050919050565b82818337600083830152505050565b600061056261055d8461050f565b6104f4565b90508281526020810184848401111561057e5761057d61048f565b5b610589848285610540565b509392505050565b600082601f8301126105a6576105a561048a565b5b81356105b684826020860161054f565b91505092915050565b600080604083850312156105d6576105d5610375565b5b60006105e485828601610396565b925050602083013567ffffffffffffffff8111156106055761060461037a565b5b61061185828601610591565b9150509250929050565b600080fd5b600080fd5b600080858511156106395761063861061b565b5b8386111561064a57610649610620565b5b6001850283019150848603905094509492505050565b600082905092915050565b60007fffffffff0000000000000000000000000000000000000000000000000000000082169050919050565b600082821b905092915050565b60006106b08383610660565b826106bb813561066b565b925060048210156106fb576106f67fffffffff0000000000000000000000000000000000000000000000000000000083600403600802610697565b831692505b505092915050565b600073ffffffffffffffffffffffffffffffffffffffff82169050919050565b600061072e82610703565b9050919050565b60008160601b9050919050565b600061074d82610735565b9050919050565b600061075f82610742565b9050919050565b61077761077282610723565b610754565b82525050565b6000819050919050565b61079861079382610337565b61077d565b82525050565b60006107aa8285610766565b6014820191506107ba8284610787565b6020820191508190509392505050565b7f4e487b7100000000000000000000000000000000000000000000000000000000600052602260045260246000fd5b6000600282049050600182168061081157607f821691505b602082108103610824576108236107ca565b5b50919050565b600081519050919050565b60008190508160005260206000209050919050565b60006020601f8301049050919050565b60006008830261088a7fffffffffffffffffffffffffffffffffffffffffffffffffffffffffffffffff82610697565b6108948683610697565b95508019841693508086168417925050509392505050565b6000819050919050565b6000819050919050565b60006108db6108d66108d1846108ac565b6108b6565b6108ac565b9050919050565b6000819050919050565b6108f5836108c0565b610909610901826108e2565b84845461085a565b825550505050565b600090565b61091e610911565b6109298184846108ec565b505050565b5b8181101561094d57610942600082610916565b60018101905061092f565b5050565b601f8211156109925761096381610835565b61096c8461084a565b8101602085101561097b578190505b61098f6109878561084a565b83018261092e565b50505b505050565b600082821c905092915050565b60006109b560001984600802610997565b1980831691505092915050565b60006109ce83836109a4565b9150826002028217905092915050565b6109e78261082a565b67ffffffffffffffff811115610a00576109ff610494565b5b610a0a82546107f9565b610a15828285610951565b600060209050601f831160018114610a485760008415610a36578287015190505b610a4085826109c2565b865550610aa8565b601f198416610a5686610835565b60005b82811015610a7e57848901518255600182019150602085019450602081019050610a59565b86831015610a9b5784890151610a97601f8916826109a4565b8355505b6001600288020188555050505b505050505050565b610ab9826103d8565b67ffffffffffffffff811115610ad257610ad1610494565b5b610adc82546107f9565b610ae7828285610951565b600060209050601f831160018114610b1a5760008415610b08578287015190505b610b1285826109c2565b865550610b7a565b601f198416610b2886610835565b60005b82811015610b5057848901518255600182019150602085019450602081019050610b2b565b86831015610b6d5784890151610b69601f8916826109a4565b8355505b6001600288020188555050505b50505050505056fea26469706673582212201b332e5f5155ae3d842fb7ceb96ba8d75dd1def1fdd15b55bb17847c65eafa9164736f6c63430008120033",
					"opcodes": "PUSH1 0x80 PUSH1 0x40 MSTORE CALLVALUE DUP1 ISZERO PUSH2 0x10 JUMPI PUSH1 0x0 DUP1 REVERT JUMPDEST POP PUSH2 0xBB8 DUP1 PUSH2 0x20 PUSH1 0x0 CODECOPY PUSH1 0x0 RETURN INVALID PUSH1 0x80 PUSH1 0x40 MSTORE PUSH1 0x4 CALLDATASIZE LT PUSH2 0x43 JUMPI PUSH1 0x0 CALLDATALOAD PUSH1 0xE0 SHR DUP1 PUSH4 0x213FCB8B EQ PUSH2 0x5C JUMPI DUP1 PUSH4 0x8EAA6AC0 EQ PUSH2 0x87 JUMPI DUP1 PUSH4 0xA42929E0 EQ PUSH2 0xC4 JUMPI DUP1 PUSH4 0xAAC438C0 EQ PUSH2 0xED JUMPI PUSH2 0x52 JUMP JUMPDEST CALLDATASIZE PUSH2 0x52 JUMPI PUSH2 0x50 PUSH2 0x116 JUMP JUMPDEST STOP JUMPDEST PUSH2 0x5A PUSH2 0x116 JUMP JUMPDEST STOP JUMPDEST CALLVALUE DUP1 ISZERO PUSH2 0x68 JUMPI PUSH1 0x0 DUP1 REVERT JUMPDEST POP PUSH2 0x71 PUSH2 0x1C0 JUMP JUMPDEST PUSH1 0x40 MLOAD PUSH2 0x7E SWAP2 SWAP1 PUSH2 0x350 JUMP JUMPDEST PUSH1 0x40 MLOAD DUP1 SWAP2 SUB SWAP1 RETURN JUMPDEST CALLVALUE DUP1 ISZERO PUSH2 0x93 JUMPI PUSH1 0x0 DUP1 REVERT JUMPDEST POP PUSH2 0xAE PUSH1 0x4 DUP1 CALLDATASIZE SUB DUP2 ADD SWAP1 PUSH2 0xA9 SWAP2 SWAP1 PUSH2 0x3AB JUMP JUMPDEST PUSH2 0x1C6 JUMP JUMPDEST PUSH1 0x40 MLOAD PUSH2 0xBB SWAP2 SWAP1 PUSH2 0x468 JUMP JUMPDEST PUSH1 0x40 MLOAD DUP1 SWAP2 SUB SWAP1 RETURN JUMPDEST CALLVALUE DUP1 ISZERO PUSH2 0xD0 JUMPI PUSH1 0x0 DUP1 REVERT JUMPDEST POP PUSH2 0xEB PUSH1 0x4 DUP1 CALLDATASIZE SUB DUP2 ADD SWAP1 PUSH2 0xE6 SWAP2 SWAP1 PUSH2 0x3AB JUMP JUMPDEST PUSH2 0x28C JUMP JUMPDEST STOP JUMPDEST CALLVALUE DUP1 ISZERO PUSH2 0xF9 JUMPI PUSH1 0x0 DUP1 REVERT JUMPDEST POP PUSH2 0x114 PUSH1 0x4 DUP1 CALLDATASIZE SUB DUP2 ADD SWAP1 PUSH2 0x10F SWAP2 SWAP1 PUSH2 0x5BF JUMP JUMPDEST PUSH2 0x2E0 JUMP JUMPDEST STOP JUMPDEST PUSH1 0x0 DUP1 CALLDATASIZE PUSH1 0x0 SWAP1 PUSH1 0x4 SWAP3 PUSH2 0x12C SWAP4 SWAP3 SWAP2 SWAP1 PUSH2 0x625 JUMP JUMPDEST SWAP1 PUSH2 0x137 SWAP2 SWAP1 PUSH2 0x6A4 JUMP JUMPDEST SWAP1 POP PUSH1 0x0 DUP1 CALLDATASIZE PUSH1 0x4 SWAP1 DUP1 SWAP3 PUSH2 0x14E SWAP4 SWAP3 SWAP2 SWAP1 PUSH2 0x625 JUMP JUMPDEST DUP1 DUP1 PUSH1 0x1F ADD PUSH1 0x20 DUP1 SWAP2 DIV MUL PUSH1 0x20 ADD PUSH1 0x40 MLOAD SWAP1 DUP2 ADD PUSH1 0x40 MSTORE DUP1 SWAP4 SWAP3 SWAP2 SWAP1 DUP2 DUP2 MSTORE PUSH1 0x20 ADD DUP4 DUP4 DUP1 DUP3 DUP5 CALLDATACOPY PUSH1 0x0 DUP2 DUP5 ADD MSTORE PUSH1 0x1F NOT PUSH1 0x1F DUP3 ADD AND SWAP1 POP DUP1 DUP4 ADD SWAP3 POP POP POP POP POP POP POP SWAP1 POP PUSH2 0x1BC DUP3 PUSH28 0xFFFFFFFFFFFFFFFFFFFFFFFFFFFFFFFFFFFFFFFFFFFFFFFFFFFFFFFF NOT AND DUP3 PUSH2 0x2E0 JUMP JUMPDEST POP POP JUMP JUMPDEST PUSH1 0x0 SLOAD DUP2 JUMP JUMPDEST PUSH1 0x60 PUSH2 0x1F9 CALLER DUP4 PUSH1 0x40 MLOAD PUSH1 0x20 ADD PUSH2 0x1DE SWAP3 SWAP2 SWAP1 PUSH2 0x79E JUMP JUMPDEST PUSH1 0x40 MLOAD PUSH1 0x20 DUP2 DUP4 SUB SUB DUP2 MSTORE SWAP1 PUSH1 0x40 MSTORE DUP1 MLOAD SWAP1 PUSH1 0x20 ADD KECCAK256 PUSH2 0x32D JUMP JUMPDEST PUSH1 0x0 ADD DUP1 SLOAD PUSH2 0x207 SWAP1 PUSH2 0x7F9 JUMP JUMPDEST DUP1 PUSH1 0x1F ADD PUSH1 0x20 DUP1 SWAP2 DIV MUL PUSH1 0x20 ADD PUSH1 0x40 MLOAD SWAP1 DUP2 ADD PUSH1 0x40 MSTORE DUP1 SWAP3 SWAP2 SWAP1 DUP2 DUP2 MSTORE PUSH1 0x20 ADD DUP3 DUP1 SLOAD PUSH2 0x233 SWAP1 PUSH2 0x7F9 JUMP JUMPDEST DUP1 ISZERO PUSH2 0x280 JUMPI DUP1 PUSH1 0x1F LT PUSH2 0x255 JUMPI PUSH2 0x100 DUP1 DUP4 SLOAD DIV MUL DUP4 MSTORE SWAP2 PUSH1 0x20 ADD SWAP2 PUSH2 0x280 JUMP JUMPDEST DUP3 ADD SWAP2 SWAP1 PUSH1 0x0 MSTORE PUSH1 0x20 PUSH1 0x0 KECCAK256 SWAP1 JUMPDEST DUP2 SLOAD DUP2 MSTORE SWAP1 PUSH1 0x1 ADD SWAP1 PUSH1 0x20 ADD DUP1 DUP4 GT PUSH2 0x263 JUMPI DUP3 SWAP1 SUB PUSH1 0x1F AND DUP3 ADD SWAP2 JUMPDEST POP POP POP POP POP SWAP1 POP SWAP2 SWAP1 POP JUMP JUMPDEST PUSH1 0x40 MLOAD DUP1 PUSH1 0x20 ADD PUSH1 0x40 MSTORE DUP1 PUSH1 0x0 DUP2 MSTORE POP PUSH2 0x2CD CALLER DUP4 PUSH1 0x40 MLOAD PUSH1 0x20 ADD PUSH2 0x2B2 SWAP3 SWAP2 SWAP1 PUSH2 0x79E JUMP JUMPDEST PUSH1 0x40 MLOAD PUSH1 0x20 DUP2 DUP4 SUB SUB DUP2 MSTORE SWAP1 PUSH1 0x40 MSTORE DUP1 MLOAD SWAP1 PUSH1 0x20 ADD KECCAK256 PUSH2 0x32D JUMP JUMPDEST PUSH1 0x0 ADD SWAP1 DUP2 PUSH2 0x2DC SWAP2 SWAP1 PUSH2 0x9DE JUMP JUMPDEST POP POP JUMP JUMPDEST DUP2 PUSH1 0x0 DUP2 SWAP1 SSTORE POP DUP1 PUSH2 0x319 CALLER DUP5 PUSH1 0x40 MLOAD PUSH1 0x20 ADD PUSH2 0x2FE SWAP3 SWAP2 SWAP1 PUSH2 0x79E JUMP JUMPDEST PUSH1 0x40 MLOAD PUSH1 0x20 DUP2 DUP4 SUB SUB DUP2 MSTORE SWAP1 PUSH1 0x40 MSTORE DUP1 MLOAD SWAP1 PUSH1 0x20 ADD KECCAK256 PUSH2 0x32D JUMP JUMPDEST PUSH1 0x0 ADD SWAP1 DUP2 PUSH2 0x328 SWAP2 SWAP1 PUSH2 0xAB0 JUMP JUMPDEST POP POP POP JUMP JUMPDEST PUSH1 0x0 DUP2 SWAP1 POP SWAP2 SWAP1 POP JUMP JUMPDEST PUSH1 0x0 DUP2 SWAP1 POP SWAP2 SWAP1 POP JUMP JUMPDEST PUSH2 0x34A DUP2 PUSH2 0x337 JUMP JUMPDEST DUP3 MSTORE POP POP JUMP JUMPDEST PUSH1 0x0 PUSH1 0x20 DUP3 ADD SWAP1 POP PUSH2 0x365 PUSH1 0x0 DUP4 ADD DUP5 PUSH2 0x341 JUMP JUMPDEST SWAP3 SWAP2 POP POP JUMP JUMPDEST PUSH1 0x0 PUSH1 0x40 MLOAD SWAP1 POP SWAP1 JUMP JUMPDEST PUSH1 0x0 DUP1 REVERT JUMPDEST PUSH1 0x0 DUP1 REVERT JUMPDEST PUSH2 0x388 DUP2 PUSH2 0x337 JUMP JUMPDEST DUP2 EQ PUSH2 0x393 JUMPI PUSH1 0x0 DUP1 REVERT JUMPDEST POP JUMP JUMPDEST PUSH1 0x0 DUP2 CALLDATALOAD SWAP1 POP PUSH2 0x3A5 DUP2 PUSH2 0x37F JUMP JUMPDEST SWAP3 SWAP2 POP POP JUMP JUMPDEST PUSH1 0x0 PUSH1 0x20 DUP3 DUP5 SUB SLT ISZERO PUSH2 0x3C1 JUMPI PUSH2 0x3C0 PUSH2 0x375 JUMP JUMPDEST JUMPDEST PUSH1 0x0 PUSH2 0x3CF DUP5 DUP3 DUP6 ADD PUSH2 0x396 JUMP JUMPDEST SWAP2 POP POP SWAP3 SWAP2 POP POP JUMP JUMPDEST PUSH1 0x0 DUP2 MLOAD SWAP1 POP SWAP2 SWAP1 POP JUMP JUMPDEST PUSH1 0x0 DUP3 DUP3 MSTORE PUSH1 0x20 DUP3 ADD SWAP1 POP SWAP3 SWAP2 POP POP JUMP JUMPDEST PUSH1 0x0 JUMPDEST DUP4 DUP2 LT ISZERO PUSH2 0x412 JUMPI DUP1 DUP3 ADD MLOAD DUP2 DUP5 ADD MSTORE PUSH1 0x20 DUP2 ADD SWAP1 POP PUSH2 0x3F7 JUMP JUMPDEST PUSH1 0x0 DUP5 DUP5 ADD MSTORE POP POP POP POP JUMP JUMPDEST PUSH1 0x0 PUSH1 0x1F NOT PUSH1 0x1F DUP4 ADD AND SWAP1 POP SWAP2 SWAP1 POP JUMP JUMPDEST PUSH1 0x0 PUSH2 0x43A DUP3 PUSH2 0x3D8 JUMP JUMPDEST PUSH2 0x444 DUP2 DUP6 PUSH2 0x3E3 JUMP JUMPDEST SWAP4 POP PUSH2 0x454 DUP2 DUP6 PUSH1 0x20 DUP7 ADD PUSH2 0x3F4 JUMP JUMPDEST PUSH2 0x45D DUP2 PUSH2 0x41E JUMP JUMPDEST DUP5 ADD SWAP2 POP POP SWAP3 SWAP2 POP POP JUMP JUMPDEST PUSH1 0x0 PUSH1 0x20 DUP3 ADD SWAP1 POP DUP2 DUP2 SUB PUSH1 0x0 DUP4 ADD MSTORE PUSH2 0x482 DUP2 DUP5 PUSH2 0x42F JUMP JUMPDEST SWAP1 POP SWAP3 SWAP2 POP POP JUMP JUMPDEST PUSH1 0x0 DUP1 REVERT JUMPDEST PUSH1 0x0 DUP1 REVERT JUMPDEST PUSH32 0x4E487B7100000000000000000000000000000000000000000000000000000000 PUSH1 0x0 MSTORE PUSH1 0x41 PUSH1 0x4 MSTORE PUSH1 0x24 PUSH1 0x0 REVERT JUMPDEST PUSH2 0x4CC DUP3 PUSH2 0x41E JUMP JUMPDEST DUP2 ADD DUP2 DUP2 LT PUSH8 0xFFFFFFFFFFFFFFFF DUP3 GT OR ISZERO PUSH2 0x4EB JUMPI PUSH2 0x4EA PUSH2 0x494 JUMP JUMPDEST JUMPDEST DUP1 PUSH1 0x40 MSTORE POP POP POP JUMP JUMPDEST PUSH1 0x0 PUSH2 0x4FE PUSH2 0x36B JUMP JUMPDEST SWAP1 POP PUSH2 0x50A DUP3 DUP3 PUSH2 0x4C3 JUMP JUMPDEST SWAP2 SWAP1 POP JUMP JUMPDEST PUSH1 0x0 PUSH8 0xFFFFFFFFFFFFFFFF DUP3 GT ISZERO PUSH2 0x52A JUMPI PUSH2 0x529 PUSH2 0x494 JUMP JUMPDEST JUMPDEST PUSH2 0x533 DUP3 PUSH2 0x41E JUMP JUMPDEST SWAP1 POP PUSH1 0x20 DUP2 ADD SWAP1 POP SWAP2 SWAP1 POP JUMP JUMPDEST DUP3 DUP2 DUP4 CALLDATACOPY PUSH1 0x0 DUP4 DUP4 ADD MSTORE POP POP POP JUMP JUMPDEST PUSH1 0x0 PUSH2 0x562 PUSH2 0x55D DUP5 PUSH2 0x50F JUMP JUMPDEST PUSH2 0x4F4 JUMP JUMPDEST SWAP1 POP DUP3 DUP2 MSTORE PUSH1 0x20 DUP2 ADD DUP5 DUP5 DUP5 ADD GT ISZERO PUSH2 0x57E JUMPI PUSH2 0x57D PUSH2 0x48F JUMP JUMPDEST JUMPDEST PUSH2 0x589 DUP5 DUP3 DUP6 PUSH2 0x540 JUMP JUMPDEST POP SWAP4 SWAP3 POP POP POP JUMP JUMPDEST PUSH1 0x0 DUP3 PUSH1 0x1F DUP4 ADD SLT PUSH2 0x5A6 JUMPI PUSH2 0x5A5 PUSH2 0x48A JUMP JUMPDEST JUMPDEST DUP2 CALLDATALOAD PUSH2 0x5B6 DUP5 DUP3 PUSH1 0x20 DUP7 ADD PUSH2 0x54F JUMP JUMPDEST SWAP2 POP POP SWAP3 SWAP2 POP POP JUMP JUMPDEST PUSH1 0x0 DUP1 PUSH1 0x40 DUP4 DUP6 SUB SLT ISZERO PUSH2 0x5D6 JUMPI PUSH2 0x5D5 PUSH2 0x375 JUMP JUMPDEST JUMPDEST PUSH1 0x0 PUSH2 0x5E4 DUP6 DUP3 DUP7 ADD PUSH2 0x396 JUMP JUMPDEST SWAP3 POP POP PUSH1 0x20 DUP4 ADD CALLDATALOAD PUSH8 0xFFFFFFFFFFFFFFFF DUP2 GT ISZERO PUSH2 0x605 JUMPI PUSH2 0x604 PUSH2 0x37A JUMP JUMPDEST JUMPDEST PUSH2 0x611 DUP6 DUP3 DUP7 ADD PUSH2 0x591 JUMP JUMPDEST SWAP2 POP POP SWAP3 POP SWAP3 SWAP1 POP JUMP JUMPDEST PUSH1 0x0 DUP1 REVERT JUMPDEST PUSH1 0x0 DUP1 REVERT JUMPDEST PUSH1 0x0 DUP1 DUP6 DUP6 GT ISZERO PUSH2 0x639 JUMPI PUSH2 0x638 PUSH2 0x61B JUMP JUMPDEST JUMPDEST DUP4 DUP7 GT ISZERO PUSH2 0x64A JUMPI PUSH2 0x649 PUSH2 0x620 JUMP JUMPDEST JUMPDEST PUSH1 0x1 DUP6 MUL DUP4 ADD SWAP2 POP DUP5 DUP7 SUB SWAP1 POP SWAP5 POP SWAP5 SWAP3 POP POP POP JUMP JUMPDEST PUSH1 0x0 DUP3 SWAP1 POP SWAP3 SWAP2 POP POP JUMP JUMPDEST PUSH1 0x0 PUSH32 0xFFFFFFFF00000000000000000000000000000000000000000000000000000000 DUP3 AND SWAP1 POP SWAP2 SWAP1 POP JUMP JUMPDEST PUSH1 0x0 DUP3 DUP3 SHL SWAP1 POP SWAP3 SWAP2 POP POP JUMP JUMPDEST PUSH1 0x0 PUSH2 0x6B0 DUP4 DUP4 PUSH2 0x660 JUMP JUMPDEST DUP3 PUSH2 0x6BB DUP2 CALLDATALOAD PUSH2 0x66B JUMP JUMPDEST SWAP3 POP PUSH1 0x4 DUP3 LT ISZERO PUSH2 0x6FB JUMPI PUSH2 0x6F6 PUSH32 0xFFFFFFFF00000000000000000000000000000000000000000000000000000000 DUP4 PUSH1 0x4 SUB PUSH1 0x8 MUL PUSH2 0x697 JUMP JUMPDEST DUP4 AND SWAP3 POP JUMPDEST POP POP SWAP3 SWAP2 POP POP JUMP JUMPDEST PUSH1 0x0 PUSH20 0xFFFFFFFFFFFFFFFFFFFFFFFFFFFFFFFFFFFFFFFF DUP3 AND SWAP1 POP SWAP2 SWAP1 POP JUMP JUMPDEST PUSH1 0x0 PUSH2 0x72E DUP3 PUSH2 0x703 JUMP JUMPDEST SWAP1 POP SWAP2 SWAP1 POP JUMP JUMPDEST PUSH1 0x0 DUP2 PUSH1 0x60 SHL SWAP1 POP SWAP2 SWAP1 POP JUMP JUMPDEST PUSH1 0x0 PUSH2 0x74D DUP3 PUSH2 0x735 JUMP JUMPDEST SWAP1 POP SWAP2 SWAP1 POP JUMP JUMPDEST PUSH1 0x0 PUSH2 0x75F DUP3 PUSH2 0x742 JUMP JUMPDEST SWAP1 POP SWAP2 SWAP1 POP JUMP JUMPDEST PUSH2 0x777 PUSH2 0x772 DUP3 PUSH2 0x723 JUMP JUMPDEST PUSH2 0x754 JUMP JUMPDEST DUP3 MSTORE POP POP JUMP JUMPDEST PUSH1 0x0 DUP2 SWAP1 POP SWAP2 SWAP1 POP JUMP JUMPDEST PUSH2 0x798 PUSH2 0x793 DUP3 PUSH2 0x337 JUMP JUMPDEST PUSH2 0x77D JUMP JUMPDEST DUP3 MSTORE POP POP JUMP JUMPDEST PUSH1 0x0 PUSH2 0x7AA DUP3 DUP6 PUSH2 0x766 JUMP JUMPDEST PUSH1 0x14 DUP3 ADD SWAP2 POP PUSH2 0x7BA DUP3 DUP5 PUSH2 0x787 JUMP JUMPDEST PUSH1 0x20 DUP3 ADD SWAP2 POP DUP2 SWAP1 POP SWAP4 SWAP3 POP POP POP JUMP JUMPDEST PUSH32 0x4E487B7100000000000000000000000000000000000000000000000000000000 PUSH1 0x0 MSTORE PUSH1 0x22 PUSH1 0x4 MSTORE PUSH1 0x24 PUSH1 0x0 REVERT JUMPDEST PUSH1 0x0 PUSH1 0x2 DUP3 DIV SWAP1 POP PUSH1 0x1 DUP3 AND DUP1 PUSH2 0x811 JUMPI PUSH1 0x7F DUP3 AND SWAP2 POP JUMPDEST PUSH1 0x20 DUP3 LT DUP2 SUB PUSH2 0x824 JUMPI PUSH2 0x823 PUSH2 0x7CA JUMP JUMPDEST JUMPDEST POP SWAP2 SWAP1 POP JUMP JUMPDEST PUSH1 0x0 DUP2 MLOAD SWAP1 POP SWAP2 SWAP1 POP JUMP JUMPDEST PUSH1 0x0 DUP2 SWAP1 POP DUP2 PUSH1 0x0 MSTORE PUSH1 0x20 PUSH1 0x0 KECCAK256 SWAP1 POP SWAP2 SWAP1 POP JUMP JUMPDEST PUSH1 0x0 PUSH1 0x20 PUSH1 0x1F DUP4 ADD DIV SWAP1 POP SWAP2 SWAP1 POP JUMP JUMPDEST PUSH1 0x0 PUSH1 0x8 DUP4 MUL PUSH2 0x88A PUSH32 0xFFFFFFFFFFFFFFFFFFFFFFFFFFFFFFFFFFFFFFFFFFFFFFFFFFFFFFFFFFFFFFFF DUP3 PUSH2 0x697 JUMP JUMPDEST PUSH2 0x894 DUP7 DUP4 PUSH2 0x697 JUMP JUMPDEST SWAP6 POP DUP1 NOT DUP5 AND SWAP4 POP DUP1 DUP7 AND DUP5 OR SWAP3 POP POP POP SWAP4 SWAP3 POP POP POP JUMP JUMPDEST PUSH1 0x0 DUP2 SWAP1 POP SWAP2 SWAP1 POP JUMP JUMPDEST PUSH1 0x0 DUP2 SWAP1 POP SWAP2 SWAP1 POP JUMP JUMPDEST PUSH1 0x0 PUSH2 0x8DB PUSH2 0x8D6 PUSH2 0x8D1 DUP5 PUSH2 0x8AC JUMP JUMPDEST PUSH2 0x8B6 JUMP JUMPDEST PUSH2 0x8AC JUMP JUMPDEST SWAP1 POP SWAP2 SWAP1 POP JUMP JUMPDEST PUSH1 0x0 DUP2 SWAP1 POP SWAP2 SWAP1 POP JUMP JUMPDEST PUSH2 0x8F5 DUP4 PUSH2 0x8C0 JUMP JUMPDEST PUSH2 0x909 PUSH2 0x901 DUP3 PUSH2 0x8E2 JUMP JUMPDEST DUP5 DUP5 SLOAD PUSH2 0x85A JUMP JUMPDEST DUP3 SSTORE POP POP POP POP JUMP JUMPDEST PUSH1 0x0 SWAP1 JUMP JUMPDEST PUSH2 0x91E PUSH2 0x911 JUMP JUMPDEST PUSH2 0x929 DUP2 DUP5 DUP5 PUSH2 0x8EC JUMP JUMPDEST POP POP POP JUMP JUMPDEST JUMPDEST DUP2 DUP2 LT ISZERO PUSH2 0x94D JUMPI PUSH2 0x942 PUSH1 0x0 DUP3 PUSH2 0x916 JUMP JUMPDEST PUSH1 0x1 DUP2 ADD SWAP1 POP PUSH2 0x92F JUMP JUMPDEST POP POP JUMP JUMPDEST PUSH1 0x1F DUP3 GT ISZERO PUSH2 0x992 JUMPI PUSH2 0x963 DUP2 PUSH2 0x835 JUMP JUMPDEST PUSH2 0x96C DUP5 PUSH2 0x84A JUMP JUMPDEST DUP2 ADD PUSH1 0x20 DUP6 LT ISZERO PUSH2 0x97B JUMPI DUP2 SWAP1 POP JUMPDEST PUSH2 0x98F PUSH2 0x987 DUP6 PUSH2 0x84A JUMP JUMPDEST DUP4 ADD DUP3 PUSH2 0x92E JUMP JUMPDEST POP POP JUMPDEST POP POP POP JUMP JUMPDEST PUSH1 0x0 DUP3 DUP3 SHR SWAP1 POP SWAP3 SWAP2 POP POP JUMP JUMPDEST PUSH1 0x0 PUSH2 0x9B5 PUSH1 0x0 NOT DUP5 PUSH1 0x8 MUL PUSH2 0x997 JUMP JUMPDEST NOT DUP1 DUP4 AND SWAP2 POP POP SWAP3 SWAP2 POP POP JUMP JUMPDEST PUSH1 0x0 PUSH2 0x9CE DUP4 DUP4 PUSH2 0x9A4 JUMP JUMPDEST SWAP2 POP DUP3 PUSH1 0x2 MUL DUP3 OR SWAP1 POP SWAP3 SWAP2 POP POP JUMP JUMPDEST PUSH2 0x9E7 DUP3 PUSH2 0x82A JUMP JUMPDEST PUSH8 0xFFFFFFFFFFFFFFFF DUP2 GT ISZERO PUSH2 0xA00 JUMPI PUSH2 0x9FF PUSH2 0x494 JUMP JUMPDEST JUMPDEST PUSH2 0xA0A DUP3 SLOAD PUSH2 0x7F9 JUMP JUMPDEST PUSH2 0xA15 DUP3 DUP3 DUP6 PUSH2 0x951 JUMP JUMPDEST PUSH1 0x0 PUSH1 0x20 SWAP1 POP PUSH1 0x1F DUP4 GT PUSH1 0x1 DUP2 EQ PUSH2 0xA48 JUMPI PUSH1 0x0 DUP5 ISZERO PUSH2 0xA36 JUMPI DUP3 DUP8 ADD MLOAD SWAP1 POP JUMPDEST PUSH2 0xA40 DUP6 DUP3 PUSH2 0x9C2 JUMP JUMPDEST DUP7 SSTORE POP PUSH2 0xAA8 JUMP JUMPDEST PUSH1 0x1F NOT DUP5 AND PUSH2 0xA56 DUP7 PUSH2 0x835 JUMP JUMPDEST PUSH1 0x0 JUMPDEST DUP3 DUP2 LT ISZERO PUSH2 0xA7E JUMPI DUP5 DUP10 ADD MLOAD DUP3 SSTORE PUSH1 0x1 DUP3 ADD SWAP2 POP PUSH1 0x20 DUP6 ADD SWAP5 POP PUSH1 0x20 DUP2 ADD SWAP1 POP PUSH2 0xA59 JUMP JUMPDEST DUP7 DUP4 LT ISZERO PUSH2 0xA9B JUMPI DUP5 DUP10 ADD MLOAD PUSH2 0xA97 PUSH1 0x1F DUP10 AND DUP3 PUSH2 0x9A4 JUMP JUMPDEST DUP4 SSTORE POP JUMPDEST PUSH1 0x1 PUSH1 0x2 DUP9 MUL ADD DUP9 SSTORE POP POP POP JUMPDEST POP POP POP POP POP POP JUMP JUMPDEST PUSH2 0xAB9 DUP3 PUSH2 0x3D8 JUMP JUMPDEST PUSH8 0xFFFFFFFFFFFFFFFF DUP2 GT ISZERO PUSH2 0xAD2 JUMPI PUSH2 0xAD1 PUSH2 0x494 JUMP JUMPDEST JUMPDEST PUSH2 0xADC DUP3 SLOAD PUSH2 0x7F9 JUMP JUMPDEST PUSH2 0xAE7 DUP3 DUP3 DUP6 PUSH2 0x951 JUMP JUMPDEST PUSH1 0x0 PUSH1 0x20 SWAP1 POP PUSH1 0x1F DUP4 GT PUSH1 0x1 DUP2 EQ PUSH2 0xB1A JUMPI PUSH1 0x0 DUP5 ISZERO PUSH2 0xB08 JUMPI DUP3 DUP8 ADD MLOAD SWAP1 POP JUMPDEST PUSH2 0xB12 DUP6 DUP3 PUSH2 0x9C2 JUMP JUMPDEST DUP7 SSTORE POP PUSH2 0xB7A JUMP JUMPDEST PUSH1 0x1F NOT DUP5 AND PUSH2 0xB28 DUP7 PUSH2 0x835 JUMP JUMPDEST PUSH1 0x0 JUMPDEST DUP3 DUP2 LT ISZERO PUSH2 0xB50 JUMPI DUP5 DUP10 ADD MLOAD DUP3 SSTORE PUSH1 0x1 DUP3 ADD SWAP2 POP PUSH1 0x20 DUP6 ADD SWAP5 POP PUSH1 0x20 DUP2 ADD SWAP1 POP PUSH2 0xB2B JUMP JUMPDEST DUP7 DUP4 LT ISZERO PUSH2 0xB6D JUMPI DUP5 DUP10 ADD MLOAD PUSH2 0xB69 PUSH1 0x1F DUP10 AND DUP3 PUSH2 0x9A4 JUMP JUMPDEST DUP4 SSTORE POP JUMPDEST PUSH1 0x1 PUSH1 0x2 DUP9 MUL ADD DUP9 SSTORE POP POP POP JUMPDEST POP POP POP POP POP POP JUMP INVALID LOG2 PUSH5 0x6970667358 0x22 SLT KECCAK256 SHL CALLER 0x2E 0x5F MLOAD SSTORE 0xAE RETURNDATASIZE DUP5 0x2F 0xB7 0xCE 0xB9 PUSH12 0xA8D75DD1DEF1FDD15B55BB17 DUP5 PUSH29 0x65EAFA9164736F6C634300081200330000000000000000000000000000 "
				},
				"gasEstimates": {
					"creation": {
						"codeDepositCost": "600000",
						"executionCost": "632",
						"totalCost": "600632"
					},
					"external": {
						"": "infinite",
						"del(bytes32)": "infinite",
						"get(bytes32)": "infinite",
						"lastkey()": "2407",
						"set(bytes32,bytes)": "infinite"
					},
					"internal": {
						"_fallback()": "infinite"
					}
				},
				"methodIdentifiers": {
					"del(bytes32)": "a42929e0",
					"get(bytes32)": "8eaa6ac0",
					"lastkey()": "213fcb8b",
					"set(bytes32,bytes)": "aac438c0"
				}
			},
			"storageLayout": {
				"storage": [
					{
						"astId": 3,
						"contract": "SolanaStorageAccountOnEVM/model05/storageAccount.sol:StorageAccount",
						"label": "lastkey",
						"offset": 0,
						"slot": "0",
						"type": "t_bytes32"
					}
				],
				"types": {
					"t_bytes32": {
						"encoding": "inplace",
						"label": "bytes32",
						"numberOfBytes": "32"
					}
				}
			},
			"userdoc": {
				"kind": "user",
				"methods": {},
				"version": 1
			}
		}
	}
}