{
	"SolanaStorageAccountOnEVM/model06/storageAccount.sol": {
		"StorageAccount": {
			"abi": [
				{
					"stateMutability": "payable",
					"type": "fallback"
				},
				{
					"inputs": [
						{
							"internalType": "bytes32",
							"name": "key",
							"type": "bytes32"
						}
					],
					"name": "del",
					"outputs": [],
					"stateMutability": "nonpayable",
					"type": "function"
				},
				{
					"inputs": [
						{
							"internalType": "string",
							"name": "key",
							"type": "string"
						}
					],
					"name": "get",
					"outputs": [
						{
							"internalType": "bytes",
							"name": "",
							"type": "bytes"
						}
					],
					"stateMutability": "view",
					"type": "function"
				},
				{
					"inputs": [
						{
							"internalType": "bytes32",
							"name": "key",
							"type": "bytes32"
						},
						{
							"internalType": "bytes",
							"name": "value",
							"type": "bytes"
						}
					],
					"name": "set",
					"outputs": [],
					"stateMutability": "nonpayable",
					"type": "function"
				},
				{
					"stateMutability": "payable",
					"type": "receive"
				}
			],
			"devdoc": {
				"kind": "dev",
				"methods": {},
				"version": 1
			},
			"evm": {
				"assembly": "    /* \"SolanaStorageAccountOnEVM/model06/storageAccount.sol\":506:1542  contract StorageAccount{... */\n  mstore(0x40, 0x80)\n  callvalue\n  dup1\n  iszero\n  tag_1\n  jumpi\n  0x00\n  dup1\n  revert\ntag_1:\n  pop\n  dataSize(sub_0)\n  dup1\n  dataOffset(sub_0)\n  0x00\n  codecopy\n  0x00\n  return\nstop\n\nsub_0: assembly {\n        /* \"SolanaStorageAccountOnEVM/model06/storageAccount.sol\":506:1542  contract StorageAccount{... */\n      mstore(0x40, 0x80)\n      jumpi(tag_1, lt(calldatasize, 0x04))\n      shr(0xe0, calldataload(0x00))\n      dup1\n      0x693ec85e\n      eq\n      tag_3\n      jumpi\n      dup1\n      0xa42929e0\n      eq\n      tag_4\n      jumpi\n      dup1\n      0xaac438c0\n      eq\n      tag_5\n      jumpi\n      jump(tag_2)\n    tag_1:\n      jumpi(tag_2, calldatasize)\n        /* \"SolanaStorageAccountOnEVM/model06/storageAccount.sol\":1514:1525  _fallback() */\n      tag_8\n        /* \"SolanaStorageAccountOnEVM/model06/storageAccount.sol\":1514:1523  _fallback */\n      tag_9\n        /* \"SolanaStorageAccountOnEVM/model06/storageAccount.sol\":1514:1525  _fallback() */\n      jump\t// in\n    tag_8:\n        /* \"SolanaStorageAccountOnEVM/model06/storageAccount.sol\":506:1542  contract StorageAccount{... */\n      stop\n    tag_2:\n        /* \"SolanaStorageAccountOnEVM/model06/storageAccount.sol\":1429:1440  _fallback() */\n      tag_12\n        /* \"SolanaStorageAccountOnEVM/model06/storageAccount.sol\":1429:1438  _fallback */\n      tag_9\n        /* \"SolanaStorageAccountOnEVM/model06/storageAccount.sol\":1429:1440  _fallback() */\n      jump\t// in\n    tag_12:\n        /* \"SolanaStorageAccountOnEVM/model06/storageAccount.sol\":506:1542  contract StorageAccount{... */\n      stop\n        /* \"SolanaStorageAccountOnEVM/model06/storageAccount.sol\":904:1172  function get(string memory key) public  view returns(bytes memory){... */\n    tag_3:\n      callvalue\n      dup1\n      iszero\n      tag_13\n      jumpi\n      0x00\n      dup1\n      revert\n    tag_13:\n      pop\n      tag_14\n      0x04\n      dup1\n      calldatasize\n      sub\n      dup2\n      add\n      swap1\n      tag_15\n      swap2\n      swap1\n      tag_16\n      jump\t// in\n    tag_15:\n      tag_17\n      jump\t// in\n    tag_14:\n      mload(0x40)\n      tag_18\n      swap2\n      swap1\n      tag_19\n      jump\t// in\n    tag_18:\n      mload(0x40)\n      dup1\n      swap2\n      sub\n      swap1\n      return\n        /* \"SolanaStorageAccountOnEVM/model06/storageAccount.sol\":702:896  function del(bytes32 key) external {... */\n    tag_4:\n      callvalue\n      dup1\n      iszero\n      tag_20\n      jumpi\n      0x00\n      dup1\n      revert\n    tag_20:\n      pop\n      tag_21\n      0x04\n      dup1\n      calldatasize\n      sub\n      dup2\n      add\n      swap1\n      tag_22\n      swap2\n      swap1\n      tag_23\n      jump\t// in\n    tag_22:\n      tag_24\n      jump\t// in\n    tag_21:\n      stop\n        /* \"SolanaStorageAccountOnEVM/model06/storageAccount.sol\":538:694  function set(bytes32 key, bytes memory value) public {... */\n    tag_5:\n      callvalue\n      dup1\n      iszero\n      tag_25\n      jumpi\n      0x00\n      dup1\n      revert\n    tag_25:\n      pop\n      tag_26\n      0x04\n      dup1\n      calldatasize\n      sub\n      dup2\n      add\n      swap1\n      tag_27\n      swap2\n      swap1\n      tag_28\n      jump\t// in\n    tag_27:\n      tag_29\n      jump\t// in\n    tag_26:\n      stop\n        /* \"SolanaStorageAccountOnEVM/model06/storageAccount.sol\":1179:1373  function _fallback() internal virtual {... */\n    tag_9:\n        /* \"SolanaStorageAccountOnEVM/model06/storageAccount.sol\":1228:1238  bytes4 key */\n      0x00\n        /* \"SolanaStorageAccountOnEVM/model06/storageAccount.sol\":1248:1256  msg.data */\n      dup1\n      calldatasize\n        /* \"SolanaStorageAccountOnEVM/model06/storageAccount.sol\":1248:1260  msg.data[:4] */\n      0x00\n      swap1\n        /* \"SolanaStorageAccountOnEVM/model06/storageAccount.sol\":1258:1259  4 */\n      0x04\n        /* \"SolanaStorageAccountOnEVM/model06/storageAccount.sol\":1248:1260  msg.data[:4] */\n      swap3\n      tag_31\n      swap4\n      swap3\n      swap2\n      swap1\n      tag_32\n      jump\t// in\n    tag_31:\n        /* \"SolanaStorageAccountOnEVM/model06/storageAccount.sol\":1241:1261  bytes4(msg.data[:4]) */\n      swap1\n      tag_33\n      swap2\n      swap1\n      tag_34\n      jump\t// in\n    tag_33:\n        /* \"SolanaStorageAccountOnEVM/model06/storageAccount.sol\":1228:1261  bytes4 key = bytes4(msg.data[:4]) */\n      swap1\n      pop\n        /* \"SolanaStorageAccountOnEVM/model06/storageAccount.sol\":1272:1290  bytes memory value */\n      0x00\n        /* \"SolanaStorageAccountOnEVM/model06/storageAccount.sol\":1299:1307  msg.data */\n      dup1\n      calldatasize\n        /* \"SolanaStorageAccountOnEVM/model06/storageAccount.sol\":1308:1309  4 */\n      0x04\n        /* \"SolanaStorageAccountOnEVM/model06/storageAccount.sol\":1299:1311  msg.data[4:] */\n      swap1\n      dup1\n      swap3\n      tag_35\n      swap4\n      swap3\n      swap2\n      swap1\n      tag_32\n      jump\t// in\n    tag_35:\n        /* \"SolanaStorageAccountOnEVM/model06/storageAccount.sol\":1272:1312  bytes memory value = bytes(msg.data[4:]) */\n      dup1\n      dup1\n      0x1f\n      add\n      0x20\n      dup1\n      swap2\n      div\n      mul\n      0x20\n      add\n      mload(0x40)\n      swap1\n      dup2\n      add\n      0x40\n      mstore\n      dup1\n      swap4\n      swap3\n      swap2\n      swap1\n      dup2\n      dup2\n      mstore\n      0x20\n      add\n      dup4\n      dup4\n      dup1\n      dup3\n      dup5\n      calldatacopy\n      0x00\n      dup2\n      dup5\n      add\n      mstore\n      not(0x1f)\n      0x1f\n      dup3\n      add\n      and\n      swap1\n      pop\n      dup1\n      dup4\n      add\n      swap3\n      pop\n      pop\n      pop\n      pop\n      pop\n      pop\n      pop\n      swap1\n      pop\n        /* \"SolanaStorageAccountOnEVM/model06/storageAccount.sol\":1332:1347  set(key, value) */\n      tag_36\n        /* \"SolanaStorageAccountOnEVM/model06/storageAccount.sol\":1336:1339  key */\n      dup3\n        /* \"SolanaStorageAccountOnEVM/model06/storageAccount.sol\":1332:1347  set(key, value) */\n      not(0xffffffffffffffffffffffffffffffffffffffffffffffffffffffff)\n      and\n        /* \"SolanaStorageAccountOnEVM/model06/storageAccount.sol\":1341:1346  value */\n      dup3\n        /* \"SolanaStorageAccountOnEVM/model06/storageAccount.sol\":1332:1335  set */\n      tag_29\n        /* \"SolanaStorageAccountOnEVM/model06/storageAccount.sol\":1332:1347  set(key, value) */\n      jump\t// in\n    tag_36:\n        /* \"SolanaStorageAccountOnEVM/model06/storageAccount.sol\":1358:1366  return ; */\n      pop\n      pop\n        /* \"SolanaStorageAccountOnEVM/model06/storageAccount.sol\":1179:1373  function _fallback() internal virtual {... */\n      jump\t// out\n        /* \"SolanaStorageAccountOnEVM/model06/storageAccount.sol\":904:1172  function get(string memory key) public  view returns(bytes memory){... */\n    tag_17:\n        /* \"SolanaStorageAccountOnEVM/model06/storageAccount.sol\":957:969  bytes memory */\n      0x60\n        /* \"SolanaStorageAccountOnEVM/model06/storageAccount.sol\":980:994  bytes32 newKey */\n      0x00\n        /* \"SolanaStorageAccountOnEVM/model06/storageAccount.sol\":997:1069  keccak256(abi.encodePacked(key)) & hex\"ffffffff000000000000000000000000\" */\n      0xffffffff00000000000000000000000000000000000000000000000000000000\n        /* \"SolanaStorageAccountOnEVM/model06/storageAccount.sol\":1024:1027  key */\n      dup4\n        /* \"SolanaStorageAccountOnEVM/model06/storageAccount.sol\":1007:1028  abi.encodePacked(key) */\n      add(0x20, mload(0x40))\n      tag_38\n      swap2\n      swap1\n      tag_39\n      jump\t// in\n    tag_38:\n      mload(0x40)\n      0x20\n      dup2\n      dup4\n      sub\n      sub\n      dup2\n      mstore\n      swap1\n      0x40\n      mstore\n        /* \"SolanaStorageAccountOnEVM/model06/storageAccount.sol\":997:1029  keccak256(abi.encodePacked(key)) */\n      dup1\n      mload\n      swap1\n      0x20\n      add\n      keccak256\n        /* \"SolanaStorageAccountOnEVM/model06/storageAccount.sol\":997:1069  keccak256(abi.encodePacked(key)) & hex\"ffffffff000000000000000000000000\" */\n      and\n        /* \"SolanaStorageAccountOnEVM/model06/storageAccount.sol\":980:1069  bytes32 newKey = keccak256(abi.encodePacked(key)) & hex\"ffffffff000000000000000000000000\" */\n      swap1\n      pop\n        /* \"SolanaStorageAccountOnEVM/model06/storageAccount.sol\":1086:1158  StorageSlot.getBytesSlot(keccak256(abi.encodePacked(msg.sender,newKey))) */\n      tag_40\n        /* \"SolanaStorageAccountOnEVM/model06/storageAccount.sol\":1138:1148  msg.sender */\n      caller\n        /* \"SolanaStorageAccountOnEVM/model06/storageAccount.sol\":1149:1155  newKey */\n      dup3\n        /* \"SolanaStorageAccountOnEVM/model06/storageAccount.sol\":1121:1156  abi.encodePacked(msg.sender,newKey) */\n      add(0x20, mload(0x40))\n      tag_41\n      swap3\n      swap2\n      swap1\n      tag_42\n      jump\t// in\n    tag_41:\n      mload(0x40)\n      0x20\n      dup2\n      dup4\n      sub\n      sub\n      dup2\n      mstore\n      swap1\n      0x40\n      mstore\n        /* \"SolanaStorageAccountOnEVM/model06/storageAccount.sol\":1111:1157  keccak256(abi.encodePacked(msg.sender,newKey)) */\n      dup1\n      mload\n      swap1\n      0x20\n      add\n      keccak256\n        /* \"SolanaStorageAccountOnEVM/model06/storageAccount.sol\":1086:1110  StorageSlot.getBytesSlot */\n      tag_43\n        /* \"SolanaStorageAccountOnEVM/model06/storageAccount.sol\":1086:1158  StorageSlot.getBytesSlot(keccak256(abi.encodePacked(msg.sender,newKey))) */\n      jump\t// in\n    tag_40:\n        /* \"SolanaStorageAccountOnEVM/model06/storageAccount.sol\":1086:1164  StorageSlot.getBytesSlot(keccak256(abi.encodePacked(msg.sender,newKey))).value */\n      0x00\n      add\n        /* \"SolanaStorageAccountOnEVM/model06/storageAccount.sol\":1079:1164  return StorageSlot.getBytesSlot(keccak256(abi.encodePacked(msg.sender,newKey))).value */\n      dup1\n      sload\n      tag_44\n      swap1\n      tag_45\n      jump\t// in\n    tag_44:\n      dup1\n      0x1f\n      add\n      0x20\n      dup1\n      swap2\n      div\n      mul\n      0x20\n      add\n      mload(0x40)\n      swap1\n      dup2\n      add\n      0x40\n      mstore\n      dup1\n      swap3\n      swap2\n      swap1\n      dup2\n      dup2\n      mstore\n      0x20\n      add\n      dup3\n      dup1\n      sload\n      tag_46\n      swap1\n      tag_45\n      jump\t// in\n    tag_46:\n      dup1\n      iszero\n      tag_47\n      jumpi\n      dup1\n      0x1f\n      lt\n      tag_48\n      jumpi\n      0x0100\n      dup1\n      dup4\n      sload\n      div\n      mul\n      dup4\n      mstore\n      swap2\n      0x20\n      add\n      swap2\n      jump(tag_47)\n    tag_48:\n      dup3\n      add\n      swap2\n      swap1\n      0x00\n      mstore\n      keccak256(0x00, 0x20)\n      swap1\n    tag_49:\n      dup2\n      sload\n      dup2\n      mstore\n      swap1\n      0x01\n      add\n      swap1\n      0x20\n      add\n      dup1\n      dup4\n      gt\n      tag_49\n      jumpi\n      dup3\n      swap1\n      sub\n      0x1f\n      and\n      dup3\n      add\n      swap2\n    tag_47:\n      pop\n      pop\n      pop\n      pop\n      pop\n      swap2\n      pop\n      pop\n        /* \"SolanaStorageAccountOnEVM/model06/storageAccount.sol\":904:1172  function get(string memory key) public  view returns(bytes memory){... */\n      swap2\n      swap1\n      pop\n      jump\t// out\n        /* \"SolanaStorageAccountOnEVM/model06/storageAccount.sol\":702:896  function del(bytes32 key) external {... */\n    tag_24:\n        /* \"SolanaStorageAccountOnEVM/model06/storageAccount.sol\":758:838  StorageSlot.getBytesSlot(keccak256(abi.encodePacked(msg.sender,key))).value = \"\" */\n      mload(0x40)\n      dup1\n      0x20\n      add\n      0x40\n      mstore\n      dup1\n      0x00\n      dup2\n      mstore\n      pop\n        /* \"SolanaStorageAccountOnEVM/model06/storageAccount.sol\":758:827  StorageSlot.getBytesSlot(keccak256(abi.encodePacked(msg.sender,key))) */\n      tag_51\n        /* \"SolanaStorageAccountOnEVM/model06/storageAccount.sol\":810:820  msg.sender */\n      caller\n        /* \"SolanaStorageAccountOnEVM/model06/storageAccount.sol\":821:824  key */\n      dup4\n        /* \"SolanaStorageAccountOnEVM/model06/storageAccount.sol\":793:825  abi.encodePacked(msg.sender,key) */\n      add(0x20, mload(0x40))\n      tag_52\n      swap3\n      swap2\n      swap1\n      tag_42\n      jump\t// in\n    tag_52:\n      mload(0x40)\n      0x20\n      dup2\n      dup4\n      sub\n      sub\n      dup2\n      mstore\n      swap1\n      0x40\n      mstore\n        /* \"SolanaStorageAccountOnEVM/model06/storageAccount.sol\":783:826  keccak256(abi.encodePacked(msg.sender,key)) */\n      dup1\n      mload\n      swap1\n      0x20\n      add\n      keccak256\n        /* \"SolanaStorageAccountOnEVM/model06/storageAccount.sol\":758:782  StorageSlot.getBytesSlot */\n      tag_43\n        /* \"SolanaStorageAccountOnEVM/model06/storageAccount.sol\":758:827  StorageSlot.getBytesSlot(keccak256(abi.encodePacked(msg.sender,key))) */\n      jump\t// in\n    tag_51:\n        /* \"SolanaStorageAccountOnEVM/model06/storageAccount.sol\":758:833  StorageSlot.getBytesSlot(keccak256(abi.encodePacked(msg.sender,key))).value */\n      0x00\n      add\n        /* \"SolanaStorageAccountOnEVM/model06/storageAccount.sol\":758:838  StorageSlot.getBytesSlot(keccak256(abi.encodePacked(msg.sender,key))).value = \"\" */\n      swap1\n      dup2\n      tag_53\n      swap2\n      swap1\n      tag_54\n      jump\t// in\n    tag_53:\n      pop\n        /* \"SolanaStorageAccountOnEVM/model06/storageAccount.sol\":702:896  function del(bytes32 key) external {... */\n      pop\n      jump\t// out\n        /* \"SolanaStorageAccountOnEVM/model06/storageAccount.sol\":538:694  function set(bytes32 key, bytes memory value) public {... */\n    tag_29:\n        /* \"SolanaStorageAccountOnEVM/model06/storageAccount.sol\":681:686  value */\n      dup1\n        /* \"SolanaStorageAccountOnEVM/model06/storageAccount.sol\":603:672  StorageSlot.getBytesSlot(keccak256(abi.encodePacked(msg.sender,key))) */\n      tag_56\n        /* \"SolanaStorageAccountOnEVM/model06/storageAccount.sol\":655:665  msg.sender */\n      caller\n        /* \"SolanaStorageAccountOnEVM/model06/storageAccount.sol\":666:669  key */\n      dup5\n        /* \"SolanaStorageAccountOnEVM/model06/storageAccount.sol\":638:670  abi.encodePacked(msg.sender,key) */\n      add(0x20, mload(0x40))\n      tag_57\n      swap3\n      swap2\n      swap1\n      tag_42\n      jump\t// in\n    tag_57:\n      mload(0x40)\n      0x20\n      dup2\n      dup4\n      sub\n      sub\n      dup2\n      mstore\n      swap1\n      0x40\n      mstore\n        /* \"SolanaStorageAccountOnEVM/model06/storageAccount.sol\":628:671  keccak256(abi.encodePacked(msg.sender,key)) */\n      dup1\n      mload\n      swap1\n      0x20\n      add\n      keccak256\n        /* \"SolanaStorageAccountOnEVM/model06/storageAccount.sol\":603:627  StorageSlot.getBytesSlot */\n      tag_43\n        /* \"SolanaStorageAccountOnEVM/model06/storageAccount.sol\":603:672  StorageSlot.getBytesSlot(keccak256(abi.encodePacked(msg.sender,key))) */\n      jump\t// in\n    tag_56:\n        /* \"SolanaStorageAccountOnEVM/model06/storageAccount.sol\":603:678  StorageSlot.getBytesSlot(keccak256(abi.encodePacked(msg.sender,key))).value */\n      0x00\n      add\n        /* \"SolanaStorageAccountOnEVM/model06/storageAccount.sol\":603:686  StorageSlot.getBytesSlot(keccak256(abi.encodePacked(msg.sender,key))).value = value */\n      swap1\n      dup2\n      tag_58\n      swap2\n      swap1\n      tag_59\n      jump\t// in\n    tag_58:\n      pop\n        /* \"SolanaStorageAccountOnEVM/model06/storageAccount.sol\":538:694  function set(bytes32 key, bytes memory value) public {... */\n      pop\n      pop\n      jump\t// out\n        /* \"SolanaStorageAccountOnEVM/model06/storageAccount.sol\":4987:5178  function getBytesSlot(bytes32 slot) internal pure returns (BytesSlot storage r) {... */\n    tag_43:\n        /* \"SolanaStorageAccountOnEVM/model06/storageAccount.sol\":5046:5065  BytesSlot storage r */\n      0x00\n        /* \"SolanaStorageAccountOnEVM/model06/storageAccount.sol\":5156:5160  slot */\n      dup2\n        /* \"SolanaStorageAccountOnEVM/model06/storageAccount.sol\":5146:5160  r.slot := slot */\n      swap1\n      pop\n        /* \"SolanaStorageAccountOnEVM/model06/storageAccount.sol\":4987:5178  function getBytesSlot(bytes32 slot) internal pure returns (BytesSlot storage r) {... */\n      swap2\n      swap1\n      pop\n      jump\t// out\n        /* \"#utility.yul\":7:82   */\n    tag_61:\n        /* \"#utility.yul\":40:46   */\n      0x00\n        /* \"#utility.yul\":73:75   */\n      0x40\n        /* \"#utility.yul\":67:76   */\n      mload\n        /* \"#utility.yul\":57:76   */\n      swap1\n      pop\n        /* \"#utility.yul\":7:82   */\n      swap1\n      jump\t// out\n        /* \"#utility.yul\":88:205   */\n    tag_62:\n        /* \"#utility.yul\":197:198   */\n      0x00\n        /* \"#utility.yul\":194:195   */\n      dup1\n        /* \"#utility.yul\":187:199   */\n      revert\n        /* \"#utility.yul\":211:328   */\n    tag_63:\n        /* \"#utility.yul\":320:321   */\n      0x00\n        /* \"#utility.yul\":317:318   */\n      dup1\n        /* \"#utility.yul\":310:322   */\n      revert\n        /* \"#utility.yul\":334:451   */\n    tag_64:\n        /* \"#utility.yul\":443:444   */\n      0x00\n        /* \"#utility.yul\":440:441   */\n      dup1\n        /* \"#utility.yul\":433:445   */\n      revert\n        /* \"#utility.yul\":457:574   */\n    tag_65:\n        /* \"#utility.yul\":566:567   */\n      0x00\n        /* \"#utility.yul\":563:564   */\n      dup1\n        /* \"#utility.yul\":556:568   */\n      revert\n        /* \"#utility.yul\":580:682   */\n    tag_66:\n        /* \"#utility.yul\":621:627   */\n      0x00\n        /* \"#utility.yul\":672:674   */\n      0x1f\n        /* \"#utility.yul\":668:675   */\n      not\n        /* \"#utility.yul\":663:665   */\n      0x1f\n        /* \"#utility.yul\":656:661   */\n      dup4\n        /* \"#utility.yul\":652:666   */\n      add\n        /* \"#utility.yul\":648:676   */\n      and\n        /* \"#utility.yul\":638:676   */\n      swap1\n      pop\n        /* \"#utility.yul\":580:682   */\n      swap2\n      swap1\n      pop\n      jump\t// out\n        /* \"#utility.yul\":688:868   */\n    tag_67:\n        /* \"#utility.yul\":736:813   */\n      0x4e487b7100000000000000000000000000000000000000000000000000000000\n        /* \"#utility.yul\":733:734   */\n      0x00\n        /* \"#utility.yul\":726:814   */\n      mstore\n        /* \"#utility.yul\":833:837   */\n      0x41\n        /* \"#utility.yul\":830:831   */\n      0x04\n        /* \"#utility.yul\":823:838   */\n      mstore\n        /* \"#utility.yul\":857:861   */\n      0x24\n        /* \"#utility.yul\":854:855   */\n      0x00\n        /* \"#utility.yul\":847:862   */\n      revert\n        /* \"#utility.yul\":874:1155   */\n    tag_68:\n        /* \"#utility.yul\":957:984   */\n      tag_126\n        /* \"#utility.yul\":979:983   */\n      dup3\n        /* \"#utility.yul\":957:984   */\n      tag_66\n      jump\t// in\n    tag_126:\n        /* \"#utility.yul\":949:955   */\n      dup2\n        /* \"#utility.yul\":945:985   */\n      add\n        /* \"#utility.yul\":1087:1093   */\n      dup2\n        /* \"#utility.yul\":1075:1085   */\n      dup2\n        /* \"#utility.yul\":1072:1094   */\n      lt\n        /* \"#utility.yul\":1051:1069   */\n      0xffffffffffffffff\n        /* \"#utility.yul\":1039:1049   */\n      dup3\n        /* \"#utility.yul\":1036:1070   */\n      gt\n        /* \"#utility.yul\":1033:1095   */\n      or\n        /* \"#utility.yul\":1030:1118   */\n      iszero\n      tag_127\n      jumpi\n        /* \"#utility.yul\":1098:1116   */\n      tag_128\n      tag_67\n      jump\t// in\n    tag_128:\n        /* \"#utility.yul\":1030:1118   */\n    tag_127:\n        /* \"#utility.yul\":1138:1148   */\n      dup1\n        /* \"#utility.yul\":1134:1136   */\n      0x40\n        /* \"#utility.yul\":1127:1149   */\n      mstore\n        /* \"#utility.yul\":917:1155   */\n      pop\n        /* \"#utility.yul\":874:1155   */\n      pop\n      pop\n      jump\t// out\n        /* \"#utility.yul\":1161:1290   */\n    tag_69:\n        /* \"#utility.yul\":1195:1201   */\n      0x00\n        /* \"#utility.yul\":1222:1242   */\n      tag_130\n      tag_61\n      jump\t// in\n    tag_130:\n        /* \"#utility.yul\":1212:1242   */\n      swap1\n      pop\n        /* \"#utility.yul\":1251:1284   */\n      tag_131\n        /* \"#utility.yul\":1279:1283   */\n      dup3\n        /* \"#utility.yul\":1271:1277   */\n      dup3\n        /* \"#utility.yul\":1251:1284   */\n      tag_68\n      jump\t// in\n    tag_131:\n        /* \"#utility.yul\":1161:1290   */\n      swap2\n      swap1\n      pop\n      jump\t// out\n        /* \"#utility.yul\":1296:1604   */\n    tag_70:\n        /* \"#utility.yul\":1358:1362   */\n      0x00\n        /* \"#utility.yul\":1448:1466   */\n      0xffffffffffffffff\n        /* \"#utility.yul\":1440:1446   */\n      dup3\n        /* \"#utility.yul\":1437:1467   */\n      gt\n        /* \"#utility.yul\":1434:1490   */\n      iszero\n      tag_133\n      jumpi\n        /* \"#utility.yul\":1470:1488   */\n      tag_134\n      tag_67\n      jump\t// in\n    tag_134:\n        /* \"#utility.yul\":1434:1490   */\n    tag_133:\n        /* \"#utility.yul\":1508:1537   */\n      tag_135\n        /* \"#utility.yul\":1530:1536   */\n      dup3\n        /* \"#utility.yul\":1508:1537   */\n      tag_66\n      jump\t// in\n    tag_135:\n        /* \"#utility.yul\":1500:1537   */\n      swap1\n      pop\n        /* \"#utility.yul\":1592:1596   */\n      0x20\n        /* \"#utility.yul\":1586:1590   */\n      dup2\n        /* \"#utility.yul\":1582:1597   */\n      add\n        /* \"#utility.yul\":1574:1597   */\n      swap1\n      pop\n        /* \"#utility.yul\":1296:1604   */\n      swap2\n      swap1\n      pop\n      jump\t// out\n        /* \"#utility.yul\":1610:1756   */\n    tag_71:\n        /* \"#utility.yul\":1707:1713   */\n      dup3\n        /* \"#utility.yul\":1702:1705   */\n      dup2\n        /* \"#utility.yul\":1697:1700   */\n      dup4\n        /* \"#utility.yul\":1684:1714   */\n      calldatacopy\n        /* \"#utility.yul\":1748:1749   */\n      0x00\n        /* \"#utility.yul\":1739:1745   */\n      dup4\n        /* \"#utility.yul\":1734:1737   */\n      dup4\n        /* \"#utility.yul\":1730:1746   */\n      add\n        /* \"#utility.yul\":1723:1750   */\n      mstore\n        /* \"#utility.yul\":1610:1756   */\n      pop\n      pop\n      pop\n      jump\t// out\n        /* \"#utility.yul\":1762:2187   */\n    tag_72:\n        /* \"#utility.yul\":1840:1845   */\n      0x00\n        /* \"#utility.yul\":1865:1931   */\n      tag_138\n        /* \"#utility.yul\":1881:1930   */\n      tag_139\n        /* \"#utility.yul\":1923:1929   */\n      dup5\n        /* \"#utility.yul\":1881:1930   */\n      tag_70\n      jump\t// in\n    tag_139:\n        /* \"#utility.yul\":1865:1931   */\n      tag_69\n      jump\t// in\n    tag_138:\n        /* \"#utility.yul\":1856:1931   */\n      swap1\n      pop\n        /* \"#utility.yul\":1954:1960   */\n      dup3\n        /* \"#utility.yul\":1947:1952   */\n      dup2\n        /* \"#utility.yul\":1940:1961   */\n      mstore\n        /* \"#utility.yul\":1992:1996   */\n      0x20\n        /* \"#utility.yul\":1985:1990   */\n      dup2\n        /* \"#utility.yul\":1981:1997   */\n      add\n        /* \"#utility.yul\":2030:2033   */\n      dup5\n        /* \"#utility.yul\":2021:2027   */\n      dup5\n        /* \"#utility.yul\":2016:2019   */\n      dup5\n        /* \"#utility.yul\":2012:2028   */\n      add\n        /* \"#utility.yul\":2009:2034   */\n      gt\n        /* \"#utility.yul\":2006:2118   */\n      iszero\n      tag_140\n      jumpi\n        /* \"#utility.yul\":2037:2116   */\n      tag_141\n      tag_65\n      jump\t// in\n    tag_141:\n        /* \"#utility.yul\":2006:2118   */\n    tag_140:\n        /* \"#utility.yul\":2127:2181   */\n      tag_142\n        /* \"#utility.yul\":2174:2180   */\n      dup5\n        /* \"#utility.yul\":2169:2172   */\n      dup3\n        /* \"#utility.yul\":2164:2167   */\n      dup6\n        /* \"#utility.yul\":2127:2181   */\n      tag_71\n      jump\t// in\n    tag_142:\n        /* \"#utility.yul\":1846:2187   */\n      pop\n        /* \"#utility.yul\":1762:2187   */\n      swap4\n      swap3\n      pop\n      pop\n      pop\n      jump\t// out\n        /* \"#utility.yul\":2207:2547   */\n    tag_73:\n        /* \"#utility.yul\":2263:2268   */\n      0x00\n        /* \"#utility.yul\":2312:2315   */\n      dup3\n        /* \"#utility.yul\":2305:2309   */\n      0x1f\n        /* \"#utility.yul\":2297:2303   */\n      dup4\n        /* \"#utility.yul\":2293:2310   */\n      add\n        /* \"#utility.yul\":2289:2316   */\n      slt\n        /* \"#utility.yul\":2279:2401   */\n      tag_144\n      jumpi\n        /* \"#utility.yul\":2320:2399   */\n      tag_145\n      tag_64\n      jump\t// in\n    tag_145:\n        /* \"#utility.yul\":2279:2401   */\n    tag_144:\n        /* \"#utility.yul\":2437:2443   */\n      dup2\n        /* \"#utility.yul\":2424:2444   */\n      calldataload\n        /* \"#utility.yul\":2462:2541   */\n      tag_146\n        /* \"#utility.yul\":2537:2540   */\n      dup5\n        /* \"#utility.yul\":2529:2535   */\n      dup3\n        /* \"#utility.yul\":2522:2526   */\n      0x20\n        /* \"#utility.yul\":2514:2520   */\n      dup7\n        /* \"#utility.yul\":2510:2527   */\n      add\n        /* \"#utility.yul\":2462:2541   */\n      tag_72\n      jump\t// in\n    tag_146:\n        /* \"#utility.yul\":2453:2541   */\n      swap2\n      pop\n        /* \"#utility.yul\":2269:2547   */\n      pop\n        /* \"#utility.yul\":2207:2547   */\n      swap3\n      swap2\n      pop\n      pop\n      jump\t// out\n        /* \"#utility.yul\":2553:3062   */\n    tag_16:\n        /* \"#utility.yul\":2622:2628   */\n      0x00\n        /* \"#utility.yul\":2671:2673   */\n      0x20\n        /* \"#utility.yul\":2659:2668   */\n      dup3\n        /* \"#utility.yul\":2650:2657   */\n      dup5\n        /* \"#utility.yul\":2646:2669   */\n      sub\n        /* \"#utility.yul\":2642:2674   */\n      slt\n        /* \"#utility.yul\":2639:2758   */\n      iszero\n      tag_148\n      jumpi\n        /* \"#utility.yul\":2677:2756   */\n      tag_149\n      tag_62\n      jump\t// in\n    tag_149:\n        /* \"#utility.yul\":2639:2758   */\n    tag_148:\n        /* \"#utility.yul\":2825:2826   */\n      0x00\n        /* \"#utility.yul\":2814:2823   */\n      dup3\n        /* \"#utility.yul\":2810:2827   */\n      add\n        /* \"#utility.yul\":2797:2828   */\n      calldataload\n        /* \"#utility.yul\":2855:2873   */\n      0xffffffffffffffff\n        /* \"#utility.yul\":2847:2853   */\n      dup2\n        /* \"#utility.yul\":2844:2874   */\n      gt\n        /* \"#utility.yul\":2841:2958   */\n      iszero\n      tag_150\n      jumpi\n        /* \"#utility.yul\":2877:2956   */\n      tag_151\n      tag_63\n      jump\t// in\n    tag_151:\n        /* \"#utility.yul\":2841:2958   */\n    tag_150:\n        /* \"#utility.yul\":2982:3045   */\n      tag_152\n        /* \"#utility.yul\":3037:3044   */\n      dup5\n        /* \"#utility.yul\":3028:3034   */\n      dup3\n        /* \"#utility.yul\":3017:3026   */\n      dup6\n        /* \"#utility.yul\":3013:3035   */\n      add\n        /* \"#utility.yul\":2982:3045   */\n      tag_73\n      jump\t// in\n    tag_152:\n        /* \"#utility.yul\":2972:3045   */\n      swap2\n      pop\n        /* \"#utility.yul\":2768:3055   */\n      pop\n        /* \"#utility.yul\":2553:3062   */\n      swap3\n      swap2\n      pop\n      pop\n      jump\t// out\n        /* \"#utility.yul\":3068:3166   */\n    tag_74:\n        /* \"#utility.yul\":3119:3125   */\n      0x00\n        /* \"#utility.yul\":3153:3158   */\n      dup2\n        /* \"#utility.yul\":3147:3159   */\n      mload\n        /* \"#utility.yul\":3137:3159   */\n      swap1\n      pop\n        /* \"#utility.yul\":3068:3166   */\n      swap2\n      swap1\n      pop\n      jump\t// out\n        /* \"#utility.yul\":3172:3340   */\n    tag_75:\n        /* \"#utility.yul\":3255:3266   */\n      0x00\n        /* \"#utility.yul\":3289:3295   */\n      dup3\n        /* \"#utility.yul\":3284:3287   */\n      dup3\n        /* \"#utility.yul\":3277:3296   */\n      mstore\n        /* \"#utility.yul\":3329:3333   */\n      0x20\n        /* \"#utility.yul\":3324:3327   */\n      dup3\n        /* \"#utility.yul\":3320:3334   */\n      add\n        /* \"#utility.yul\":3305:3334   */\n      swap1\n      pop\n        /* \"#utility.yul\":3172:3340   */\n      swap3\n      swap2\n      pop\n      pop\n      jump\t// out\n        /* \"#utility.yul\":3346:3592   */\n    tag_76:\n        /* \"#utility.yul\":3427:3428   */\n      0x00\n        /* \"#utility.yul\":3437:3550   */\n    tag_156:\n        /* \"#utility.yul\":3451:3457   */\n      dup4\n        /* \"#utility.yul\":3448:3449   */\n      dup2\n        /* \"#utility.yul\":3445:3458   */\n      lt\n        /* \"#utility.yul\":3437:3550   */\n      iszero\n      tag_158\n      jumpi\n        /* \"#utility.yul\":3536:3537   */\n      dup1\n        /* \"#utility.yul\":3531:3534   */\n      dup3\n        /* \"#utility.yul\":3527:3538   */\n      add\n        /* \"#utility.yul\":3521:3539   */\n      mload\n        /* \"#utility.yul\":3517:3518   */\n      dup2\n        /* \"#utility.yul\":3512:3515   */\n      dup5\n        /* \"#utility.yul\":3508:3519   */\n      add\n        /* \"#utility.yul\":3501:3540   */\n      mstore\n        /* \"#utility.yul\":3473:3475   */\n      0x20\n        /* \"#utility.yul\":3470:3471   */\n      dup2\n        /* \"#utility.yul\":3466:3476   */\n      add\n        /* \"#utility.yul\":3461:3476   */\n      swap1\n      pop\n        /* \"#utility.yul\":3437:3550   */\n      jump(tag_156)\n    tag_158:\n        /* \"#utility.yul\":3584:3585   */\n      0x00\n        /* \"#utility.yul\":3575:3581   */\n      dup5\n        /* \"#utility.yul\":3570:3573   */\n      dup5\n        /* \"#utility.yul\":3566:3582   */\n      add\n        /* \"#utility.yul\":3559:3586   */\n      mstore\n        /* \"#utility.yul\":3408:3592   */\n      pop\n        /* \"#utility.yul\":3346:3592   */\n      pop\n      pop\n      pop\n      jump\t// out\n        /* \"#utility.yul\":3598:3971   */\n    tag_77:\n        /* \"#utility.yul\":3684:3687   */\n      0x00\n        /* \"#utility.yul\":3712:3750   */\n      tag_160\n        /* \"#utility.yul\":3744:3749   */\n      dup3\n        /* \"#utility.yul\":3712:3750   */\n      tag_74\n      jump\t// in\n    tag_160:\n        /* \"#utility.yul\":3766:3836   */\n      tag_161\n        /* \"#utility.yul\":3829:3835   */\n      dup2\n        /* \"#utility.yul\":3824:3827   */\n      dup6\n        /* \"#utility.yul\":3766:3836   */\n      tag_75\n      jump\t// in\n    tag_161:\n        /* \"#utility.yul\":3759:3836   */\n      swap4\n      pop\n        /* \"#utility.yul\":3845:3910   */\n      tag_162\n        /* \"#utility.yul\":3903:3909   */\n      dup2\n        /* \"#utility.yul\":3898:3901   */\n      dup6\n        /* \"#utility.yul\":3891:3895   */\n      0x20\n        /* \"#utility.yul\":3884:3889   */\n      dup7\n        /* \"#utility.yul\":3880:3896   */\n      add\n        /* \"#utility.yul\":3845:3910   */\n      tag_76\n      jump\t// in\n    tag_162:\n        /* \"#utility.yul\":3935:3964   */\n      tag_163\n        /* \"#utility.yul\":3957:3963   */\n      dup2\n        /* \"#utility.yul\":3935:3964   */\n      tag_66\n      jump\t// in\n    tag_163:\n        /* \"#utility.yul\":3930:3933   */\n      dup5\n        /* \"#utility.yul\":3926:3965   */\n      add\n        /* \"#utility.yul\":3919:3965   */\n      swap2\n      pop\n        /* \"#utility.yul\":3688:3971   */\n      pop\n        /* \"#utility.yul\":3598:3971   */\n      swap3\n      swap2\n      pop\n      pop\n      jump\t// out\n        /* \"#utility.yul\":3977:4286   */\n    tag_19:\n        /* \"#utility.yul\":4088:4092   */\n      0x00\n        /* \"#utility.yul\":4126:4128   */\n      0x20\n        /* \"#utility.yul\":4115:4124   */\n      dup3\n        /* \"#utility.yul\":4111:4129   */\n      add\n        /* \"#utility.yul\":4103:4129   */\n      swap1\n      pop\n        /* \"#utility.yul\":4175:4184   */\n      dup2\n        /* \"#utility.yul\":4169:4173   */\n      dup2\n        /* \"#utility.yul\":4165:4185   */\n      sub\n        /* \"#utility.yul\":4161:4162   */\n      0x00\n        /* \"#utility.yul\":4150:4159   */\n      dup4\n        /* \"#utility.yul\":4146:4163   */\n      add\n        /* \"#utility.yul\":4139:4186   */\n      mstore\n        /* \"#utility.yul\":4203:4279   */\n      tag_165\n        /* \"#utility.yul\":4274:4278   */\n      dup2\n        /* \"#utility.yul\":4265:4271   */\n      dup5\n        /* \"#utility.yul\":4203:4279   */\n      tag_77\n      jump\t// in\n    tag_165:\n        /* \"#utility.yul\":4195:4279   */\n      swap1\n      pop\n        /* \"#utility.yul\":3977:4286   */\n      swap3\n      swap2\n      pop\n      pop\n      jump\t// out\n        /* \"#utility.yul\":4292:4369   */\n    tag_78:\n        /* \"#utility.yul\":4329:4336   */\n      0x00\n        /* \"#utility.yul\":4358:4363   */\n      dup2\n        /* \"#utility.yul\":4347:4363   */\n      swap1\n      pop\n        /* \"#utility.yul\":4292:4369   */\n      swap2\n      swap1\n      pop\n      jump\t// out\n        /* \"#utility.yul\":4375:4497   */\n    tag_79:\n        /* \"#utility.yul\":4448:4472   */\n      tag_168\n        /* \"#utility.yul\":4466:4471   */\n      dup2\n        /* \"#utility.yul\":4448:4472   */\n      tag_78\n      jump\t// in\n    tag_168:\n        /* \"#utility.yul\":4441:4446   */\n      dup2\n        /* \"#utility.yul\":4438:4473   */\n      eq\n        /* \"#utility.yul\":4428:4491   */\n      tag_169\n      jumpi\n        /* \"#utility.yul\":4487:4488   */\n      0x00\n        /* \"#utility.yul\":4484:4485   */\n      dup1\n        /* \"#utility.yul\":4477:4489   */\n      revert\n        /* \"#utility.yul\":4428:4491   */\n    tag_169:\n        /* \"#utility.yul\":4375:4497   */\n      pop\n      jump\t// out\n        /* \"#utility.yul\":4503:4642   */\n    tag_80:\n        /* \"#utility.yul\":4549:4554   */\n      0x00\n        /* \"#utility.yul\":4587:4593   */\n      dup2\n        /* \"#utility.yul\":4574:4594   */\n      calldataload\n        /* \"#utility.yul\":4565:4594   */\n      swap1\n      pop\n        /* \"#utility.yul\":4603:4636   */\n      tag_171\n        /* \"#utility.yul\":4630:4635   */\n      dup2\n        /* \"#utility.yul\":4603:4636   */\n      tag_79\n      jump\t// in\n    tag_171:\n        /* \"#utility.yul\":4503:4642   */\n      swap3\n      swap2\n      pop\n      pop\n      jump\t// out\n        /* \"#utility.yul\":4648:4977   */\n    tag_23:\n        /* \"#utility.yul\":4707:4713   */\n      0x00\n        /* \"#utility.yul\":4756:4758   */\n      0x20\n        /* \"#utility.yul\":4744:4753   */\n      dup3\n        /* \"#utility.yul\":4735:4742   */\n      dup5\n        /* \"#utility.yul\":4731:4754   */\n      sub\n        /* \"#utility.yul\":4727:4759   */\n      slt\n        /* \"#utility.yul\":4724:4843   */\n      iszero\n      tag_173\n      jumpi\n        /* \"#utility.yul\":4762:4841   */\n      tag_174\n      tag_62\n      jump\t// in\n    tag_174:\n        /* \"#utility.yul\":4724:4843   */\n    tag_173:\n        /* \"#utility.yul\":4882:4883   */\n      0x00\n        /* \"#utility.yul\":4907:4960   */\n      tag_175\n        /* \"#utility.yul\":4952:4959   */\n      dup5\n        /* \"#utility.yul\":4943:4949   */\n      dup3\n        /* \"#utility.yul\":4932:4941   */\n      dup6\n        /* \"#utility.yul\":4928:4950   */\n      add\n        /* \"#utility.yul\":4907:4960   */\n      tag_80\n      jump\t// in\n    tag_175:\n        /* \"#utility.yul\":4897:4960   */\n      swap2\n      pop\n        /* \"#utility.yul\":4853:4970   */\n      pop\n        /* \"#utility.yul\":4648:4977   */\n      swap3\n      swap2\n      pop\n      pop\n      jump\t// out\n        /* \"#utility.yul\":4983:5290   */\n    tag_81:\n        /* \"#utility.yul\":5044:5048   */\n      0x00\n        /* \"#utility.yul\":5134:5152   */\n      0xffffffffffffffff\n        /* \"#utility.yul\":5126:5132   */\n      dup3\n        /* \"#utility.yul\":5123:5153   */\n      gt\n        /* \"#utility.yul\":5120:5176   */\n      iszero\n      tag_177\n      jumpi\n        /* \"#utility.yul\":5156:5174   */\n      tag_178\n      tag_67\n      jump\t// in\n    tag_178:\n        /* \"#utility.yul\":5120:5176   */\n    tag_177:\n        /* \"#utility.yul\":5194:5223   */\n      tag_179\n        /* \"#utility.yul\":5216:5222   */\n      dup3\n        /* \"#utility.yul\":5194:5223   */\n      tag_66\n      jump\t// in\n    tag_179:\n        /* \"#utility.yul\":5186:5223   */\n      swap1\n      pop\n        /* \"#utility.yul\":5278:5282   */\n      0x20\n        /* \"#utility.yul\":5272:5276   */\n      dup2\n        /* \"#utility.yul\":5268:5283   */\n      add\n        /* \"#utility.yul\":5260:5283   */\n      swap1\n      pop\n        /* \"#utility.yul\":4983:5290   */\n      swap2\n      swap1\n      pop\n      jump\t// out\n        /* \"#utility.yul\":5296:5719   */\n    tag_82:\n        /* \"#utility.yul\":5373:5378   */\n      0x00\n        /* \"#utility.yul\":5398:5463   */\n      tag_181\n        /* \"#utility.yul\":5414:5462   */\n      tag_182\n        /* \"#utility.yul\":5455:5461   */\n      dup5\n        /* \"#utility.yul\":5414:5462   */\n      tag_81\n      jump\t// in\n    tag_182:\n        /* \"#utility.yul\":5398:5463   */\n      tag_69\n      jump\t// in\n    tag_181:\n        /* \"#utility.yul\":5389:5463   */\n      swap1\n      pop\n        /* \"#utility.yul\":5486:5492   */\n      dup3\n        /* \"#utility.yul\":5479:5484   */\n      dup2\n        /* \"#utility.yul\":5472:5493   */\n      mstore\n        /* \"#utility.yul\":5524:5528   */\n      0x20\n        /* \"#utility.yul\":5517:5522   */\n      dup2\n        /* \"#utility.yul\":5513:5529   */\n      add\n        /* \"#utility.yul\":5562:5565   */\n      dup5\n        /* \"#utility.yul\":5553:5559   */\n      dup5\n        /* \"#utility.yul\":5548:5551   */\n      dup5\n        /* \"#utility.yul\":5544:5560   */\n      add\n        /* \"#utility.yul\":5541:5566   */\n      gt\n        /* \"#utility.yul\":5538:5650   */\n      iszero\n      tag_183\n      jumpi\n        /* \"#utility.yul\":5569:5648   */\n      tag_184\n      tag_65\n      jump\t// in\n    tag_184:\n        /* \"#utility.yul\":5538:5650   */\n    tag_183:\n        /* \"#utility.yul\":5659:5713   */\n      tag_185\n        /* \"#utility.yul\":5706:5712   */\n      dup5\n        /* \"#utility.yul\":5701:5704   */\n      dup3\n        /* \"#utility.yul\":5696:5699   */\n      dup6\n        /* \"#utility.yul\":5659:5713   */\n      tag_71\n      jump\t// in\n    tag_185:\n        /* \"#utility.yul\":5379:5719   */\n      pop\n        /* \"#utility.yul\":5296:5719   */\n      swap4\n      swap3\n      pop\n      pop\n      pop\n      jump\t// out\n        /* \"#utility.yul\":5738:6076   */\n    tag_83:\n        /* \"#utility.yul\":5793:5798   */\n      0x00\n        /* \"#utility.yul\":5842:5845   */\n      dup3\n        /* \"#utility.yul\":5835:5839   */\n      0x1f\n        /* \"#utility.yul\":5827:5833   */\n      dup4\n        /* \"#utility.yul\":5823:5840   */\n      add\n        /* \"#utility.yul\":5819:5846   */\n      slt\n        /* \"#utility.yul\":5809:5931   */\n      tag_187\n      jumpi\n        /* \"#utility.yul\":5850:5929   */\n      tag_188\n      tag_64\n      jump\t// in\n    tag_188:\n        /* \"#utility.yul\":5809:5931   */\n    tag_187:\n        /* \"#utility.yul\":5967:5973   */\n      dup2\n        /* \"#utility.yul\":5954:5974   */\n      calldataload\n        /* \"#utility.yul\":5992:6070   */\n      tag_189\n        /* \"#utility.yul\":6066:6069   */\n      dup5\n        /* \"#utility.yul\":6058:6064   */\n      dup3\n        /* \"#utility.yul\":6051:6055   */\n      0x20\n        /* \"#utility.yul\":6043:6049   */\n      dup7\n        /* \"#utility.yul\":6039:6056   */\n      add\n        /* \"#utility.yul\":5992:6070   */\n      tag_82\n      jump\t// in\n    tag_189:\n        /* \"#utility.yul\":5983:6070   */\n      swap2\n      pop\n        /* \"#utility.yul\":5799:6076   */\n      pop\n        /* \"#utility.yul\":5738:6076   */\n      swap3\n      swap2\n      pop\n      pop\n      jump\t// out\n        /* \"#utility.yul\":6082:6734   */\n    tag_28:\n        /* \"#utility.yul\":6159:6165   */\n      0x00\n        /* \"#utility.yul\":6167:6173   */\n      dup1\n        /* \"#utility.yul\":6216:6218   */\n      0x40\n        /* \"#utility.yul\":6204:6213   */\n      dup4\n        /* \"#utility.yul\":6195:6202   */\n      dup6\n        /* \"#utility.yul\":6191:6214   */\n      sub\n        /* \"#utility.yul\":6187:6219   */\n      slt\n        /* \"#utility.yul\":6184:6303   */\n      iszero\n      tag_191\n      jumpi\n        /* \"#utility.yul\":6222:6301   */\n      tag_192\n      tag_62\n      jump\t// in\n    tag_192:\n        /* \"#utility.yul\":6184:6303   */\n    tag_191:\n        /* \"#utility.yul\":6342:6343   */\n      0x00\n        /* \"#utility.yul\":6367:6420   */\n      tag_193\n        /* \"#utility.yul\":6412:6419   */\n      dup6\n        /* \"#utility.yul\":6403:6409   */\n      dup3\n        /* \"#utility.yul\":6392:6401   */\n      dup7\n        /* \"#utility.yul\":6388:6410   */\n      add\n        /* \"#utility.yul\":6367:6420   */\n      tag_80\n      jump\t// in\n    tag_193:\n        /* \"#utility.yul\":6357:6420   */\n      swap3\n      pop\n        /* \"#utility.yul\":6313:6430   */\n      pop\n        /* \"#utility.yul\":6497:6499   */\n      0x20\n        /* \"#utility.yul\":6486:6495   */\n      dup4\n        /* \"#utility.yul\":6482:6500   */\n      add\n        /* \"#utility.yul\":6469:6501   */\n      calldataload\n        /* \"#utility.yul\":6528:6546   */\n      0xffffffffffffffff\n        /* \"#utility.yul\":6520:6526   */\n      dup2\n        /* \"#utility.yul\":6517:6547   */\n      gt\n        /* \"#utility.yul\":6514:6631   */\n      iszero\n      tag_194\n      jumpi\n        /* \"#utility.yul\":6550:6629   */\n      tag_195\n      tag_63\n      jump\t// in\n    tag_195:\n        /* \"#utility.yul\":6514:6631   */\n    tag_194:\n        /* \"#utility.yul\":6655:6717   */\n      tag_196\n        /* \"#utility.yul\":6709:6716   */\n      dup6\n        /* \"#utility.yul\":6700:6706   */\n      dup3\n        /* \"#utility.yul\":6689:6698   */\n      dup7\n        /* \"#utility.yul\":6685:6707   */\n      add\n        /* \"#utility.yul\":6655:6717   */\n      tag_83\n      jump\t// in\n    tag_196:\n        /* \"#utility.yul\":6645:6717   */\n      swap2\n      pop\n        /* \"#utility.yul\":6440:6727   */\n      pop\n        /* \"#utility.yul\":6082:6734   */\n      swap3\n      pop\n      swap3\n      swap1\n      pop\n      jump\t// out\n        /* \"#utility.yul\":6740:6857   */\n    tag_84:\n        /* \"#utility.yul\":6849:6850   */\n      0x00\n        /* \"#utility.yul\":6846:6847   */\n      dup1\n        /* \"#utility.yul\":6839:6851   */\n      revert\n        /* \"#utility.yul\":6863:6980   */\n    tag_85:\n        /* \"#utility.yul\":6972:6973   */\n      0x00\n        /* \"#utility.yul\":6969:6970   */\n      dup1\n        /* \"#utility.yul\":6962:6974   */\n      revert\n        /* \"#utility.yul\":6986:7455   */\n    tag_32:\n        /* \"#utility.yul\":7091:7100   */\n      0x00\n        /* \"#utility.yul\":7102:7111   */\n      dup1\n        /* \"#utility.yul\":7140:7148   */\n      dup6\n        /* \"#utility.yul\":7128:7138   */\n      dup6\n        /* \"#utility.yul\":7125:7149   */\n      gt\n        /* \"#utility.yul\":7122:7233   */\n      iszero\n      tag_200\n      jumpi\n        /* \"#utility.yul\":7152:7231   */\n      tag_201\n      tag_84\n      jump\t// in\n    tag_201:\n        /* \"#utility.yul\":7122:7233   */\n    tag_200:\n        /* \"#utility.yul\":7258:7264   */\n      dup4\n        /* \"#utility.yul\":7248:7256   */\n      dup7\n        /* \"#utility.yul\":7245:7265   */\n      gt\n        /* \"#utility.yul\":7242:7349   */\n      iszero\n      tag_202\n      jumpi\n        /* \"#utility.yul\":7268:7347   */\n      tag_203\n      tag_85\n      jump\t// in\n    tag_203:\n        /* \"#utility.yul\":7242:7349   */\n    tag_202:\n        /* \"#utility.yul\":7399:7400   */\n      0x01\n        /* \"#utility.yul\":7387:7397   */\n      dup6\n        /* \"#utility.yul\":7383:7401   */\n      mul\n        /* \"#utility.yul\":7375:7381   */\n      dup4\n        /* \"#utility.yul\":7371:7402   */\n      add\n        /* \"#utility.yul\":7358:7402   */\n      swap2\n      pop\n        /* \"#utility.yul\":7438:7448   */\n      dup5\n        /* \"#utility.yul\":7428:7436   */\n      dup7\n        /* \"#utility.yul\":7424:7449   */\n      sub\n        /* \"#utility.yul\":7411:7449   */\n      swap1\n      pop\n        /* \"#utility.yul\":6986:7455   */\n      swap5\n      pop\n      swap5\n      swap3\n      pop\n      pop\n      pop\n      jump\t// out\n        /* \"#utility.yul\":7461:7557   */\n    tag_86:\n        /* \"#utility.yul\":7519:7525   */\n      0x00\n        /* \"#utility.yul\":7547:7550   */\n      dup3\n        /* \"#utility.yul\":7537:7550   */\n      swap1\n      pop\n        /* \"#utility.yul\":7461:7557   */\n      swap3\n      swap2\n      pop\n      pop\n      jump\t// out\n        /* \"#utility.yul\":7655:7804   */\n    tag_88:\n        /* \"#utility.yul\":7691:7698   */\n      0x00\n        /* \"#utility.yul\":7731:7797   */\n      0xffffffff00000000000000000000000000000000000000000000000000000000\n        /* \"#utility.yul\":7724:7729   */\n      dup3\n        /* \"#utility.yul\":7720:7798   */\n      and\n        /* \"#utility.yul\":7709:7798   */\n      swap1\n      pop\n        /* \"#utility.yul\":7655:7804   */\n      swap2\n      swap1\n      pop\n      jump\t// out\n        /* \"#utility.yul\":7810:7917   */\n    tag_89:\n        /* \"#utility.yul\":7854:7862   */\n      0x00\n        /* \"#utility.yul\":7904:7909   */\n      dup3\n        /* \"#utility.yul\":7898:7902   */\n      dup3\n        /* \"#utility.yul\":7894:7910   */\n      shl\n        /* \"#utility.yul\":7873:7910   */\n      swap1\n      pop\n        /* \"#utility.yul\":7810:7917   */\n      swap3\n      swap2\n      pop\n      pop\n      jump\t// out\n        /* \"#utility.yul\":7923:8471   */\n    tag_34:\n        /* \"#utility.yul\":8013:8018   */\n      0x00\n        /* \"#utility.yul\":8044:8089   */\n      tag_209\n        /* \"#utility.yul\":8085:8088   */\n      dup4\n        /* \"#utility.yul\":8078:8083   */\n      dup4\n        /* \"#utility.yul\":8044:8089   */\n      tag_86\n      jump\t// in\n    tag_209:\n        /* \"#utility.yul\":8114:8119   */\n      dup3\n        /* \"#utility.yul\":8138:8178   */\n      tag_210\n        /* \"#utility.yul\":8168:8176   */\n      dup2\n        /* \"#utility.yul\":8155:8177   */\n      calldataload\n        /* \"#utility.yul\":8138:8178   */\n      tag_88\n      jump\t// in\n    tag_210:\n        /* \"#utility.yul\":8129:8178   */\n      swap3\n      pop\n        /* \"#utility.yul\":8202:8203   */\n      0x04\n        /* \"#utility.yul\":8194:8200   */\n      dup3\n        /* \"#utility.yul\":8191:8204   */\n      lt\n        /* \"#utility.yul\":8188:8464   */\n      iszero\n      tag_211\n      jumpi\n        /* \"#utility.yul\":8272:8440   */\n      tag_212\n        /* \"#utility.yul\":8356:8422   */\n      0xffffffff00000000000000000000000000000000000000000000000000000000\n        /* \"#utility.yul\":8326:8332   */\n      dup4\n        /* \"#utility.yul\":8323:8324   */\n      0x04\n        /* \"#utility.yul\":8319:8333   */\n      sub\n        /* \"#utility.yul\":8316:8317   */\n      0x08\n        /* \"#utility.yul\":8312:8334   */\n      mul\n        /* \"#utility.yul\":8272:8440   */\n      tag_89\n      jump\t// in\n    tag_212:\n        /* \"#utility.yul\":8249:8254   */\n      dup4\n        /* \"#utility.yul\":8228:8454   */\n      and\n        /* \"#utility.yul\":8219:8454   */\n      swap3\n      pop\n        /* \"#utility.yul\":8188:8464   */\n    tag_211:\n        /* \"#utility.yul\":8019:8471   */\n      pop\n      pop\n        /* \"#utility.yul\":7923:8471   */\n      swap3\n      swap2\n      pop\n      pop\n      jump\t// out\n        /* \"#utility.yul\":8477:8576   */\n    tag_90:\n        /* \"#utility.yul\":8529:8535   */\n      0x00\n        /* \"#utility.yul\":8563:8568   */\n      dup2\n        /* \"#utility.yul\":8557:8569   */\n      mload\n        /* \"#utility.yul\":8547:8569   */\n      swap1\n      pop\n        /* \"#utility.yul\":8477:8576   */\n      swap2\n      swap1\n      pop\n      jump\t// out\n        /* \"#utility.yul\":8582:8730   */\n    tag_91:\n        /* \"#utility.yul\":8684:8695   */\n      0x00\n        /* \"#utility.yul\":8721:8724   */\n      dup2\n        /* \"#utility.yul\":8706:8724   */\n      swap1\n      pop\n        /* \"#utility.yul\":8582:8730   */\n      swap3\n      swap2\n      pop\n      pop\n      jump\t// out\n        /* \"#utility.yul\":8736:9126   */\n    tag_92:\n        /* \"#utility.yul\":8842:8845   */\n      0x00\n        /* \"#utility.yul\":8870:8909   */\n      tag_216\n        /* \"#utility.yul\":8903:8908   */\n      dup3\n        /* \"#utility.yul\":8870:8909   */\n      tag_90\n      jump\t// in\n    tag_216:\n        /* \"#utility.yul\":8925:9014   */\n      tag_217\n        /* \"#utility.yul\":9007:9013   */\n      dup2\n        /* \"#utility.yul\":9002:9005   */\n      dup6\n        /* \"#utility.yul\":8925:9014   */\n      tag_91\n      jump\t// in\n    tag_217:\n        /* \"#utility.yul\":8918:9014   */\n      swap4\n      pop\n        /* \"#utility.yul\":9023:9088   */\n      tag_218\n        /* \"#utility.yul\":9081:9087   */\n      dup2\n        /* \"#utility.yul\":9076:9079   */\n      dup6\n        /* \"#utility.yul\":9069:9073   */\n      0x20\n        /* \"#utility.yul\":9062:9067   */\n      dup7\n        /* \"#utility.yul\":9058:9074   */\n      add\n        /* \"#utility.yul\":9023:9088   */\n      tag_76\n      jump\t// in\n    tag_218:\n        /* \"#utility.yul\":9113:9119   */\n      dup1\n        /* \"#utility.yul\":9108:9111   */\n      dup5\n        /* \"#utility.yul\":9104:9120   */\n      add\n        /* \"#utility.yul\":9097:9120   */\n      swap2\n      pop\n        /* \"#utility.yul\":8846:9126   */\n      pop\n        /* \"#utility.yul\":8736:9126   */\n      swap3\n      swap2\n      pop\n      pop\n      jump\t// out\n        /* \"#utility.yul\":9132:9407   */\n    tag_39:\n        /* \"#utility.yul\":9264:9267   */\n      0x00\n        /* \"#utility.yul\":9286:9381   */\n      tag_220\n        /* \"#utility.yul\":9377:9380   */\n      dup3\n        /* \"#utility.yul\":9368:9374   */\n      dup5\n        /* \"#utility.yul\":9286:9381   */\n      tag_92\n      jump\t// in\n    tag_220:\n        /* \"#utility.yul\":9279:9381   */\n      swap2\n      pop\n        /* \"#utility.yul\":9398:9401   */\n      dup2\n        /* \"#utility.yul\":9391:9401   */\n      swap1\n      pop\n        /* \"#utility.yul\":9132:9407   */\n      swap3\n      swap2\n      pop\n      pop\n      jump\t// out\n        /* \"#utility.yul\":9413:9539   */\n    tag_93:\n        /* \"#utility.yul\":9450:9457   */\n      0x00\n        /* \"#utility.yul\":9490:9532   */\n      0xffffffffffffffffffffffffffffffffffffffff\n        /* \"#utility.yul\":9483:9488   */\n      dup3\n        /* \"#utility.yul\":9479:9533   */\n      and\n        /* \"#utility.yul\":9468:9533   */\n      swap1\n      pop\n        /* \"#utility.yul\":9413:9539   */\n      swap2\n      swap1\n      pop\n      jump\t// out\n        /* \"#utility.yul\":9545:9641   */\n    tag_94:\n        /* \"#utility.yul\":9582:9589   */\n      0x00\n        /* \"#utility.yul\":9611:9635   */\n      tag_223\n        /* \"#utility.yul\":9629:9634   */\n      dup3\n        /* \"#utility.yul\":9611:9635   */\n      tag_93\n      jump\t// in\n    tag_223:\n        /* \"#utility.yul\":9600:9635   */\n      swap1\n      pop\n        /* \"#utility.yul\":9545:9641   */\n      swap2\n      swap1\n      pop\n      jump\t// out\n        /* \"#utility.yul\":9647:9741   */\n    tag_95:\n        /* \"#utility.yul\":9680:9688   */\n      0x00\n        /* \"#utility.yul\":9728:9733   */\n      dup2\n        /* \"#utility.yul\":9724:9726   */\n      0x60\n        /* \"#utility.yul\":9720:9734   */\n      shl\n        /* \"#utility.yul\":9699:9734   */\n      swap1\n      pop\n        /* \"#utility.yul\":9647:9741   */\n      swap2\n      swap1\n      pop\n      jump\t// out\n        /* \"#utility.yul\":9747:9841   */\n    tag_96:\n        /* \"#utility.yul\":9786:9793   */\n      0x00\n        /* \"#utility.yul\":9815:9835   */\n      tag_226\n        /* \"#utility.yul\":9829:9834   */\n      dup3\n        /* \"#utility.yul\":9815:9835   */\n      tag_95\n      jump\t// in\n    tag_226:\n        /* \"#utility.yul\":9804:9835   */\n      swap1\n      pop\n        /* \"#utility.yul\":9747:9841   */\n      swap2\n      swap1\n      pop\n      jump\t// out\n        /* \"#utility.yul\":9847:9947   */\n    tag_97:\n        /* \"#utility.yul\":9886:9893   */\n      0x00\n        /* \"#utility.yul\":9915:9941   */\n      tag_228\n        /* \"#utility.yul\":9935:9940   */\n      dup3\n        /* \"#utility.yul\":9915:9941   */\n      tag_96\n      jump\t// in\n    tag_228:\n        /* \"#utility.yul\":9904:9941   */\n      swap1\n      pop\n        /* \"#utility.yul\":9847:9947   */\n      swap2\n      swap1\n      pop\n      jump\t// out\n        /* \"#utility.yul\":9953:10110   */\n    tag_98:\n        /* \"#utility.yul\":10058:10103   */\n      tag_230\n        /* \"#utility.yul\":10078:10102   */\n      tag_231\n        /* \"#utility.yul\":10096:10101   */\n      dup3\n        /* \"#utility.yul\":10078:10102   */\n      tag_94\n      jump\t// in\n    tag_231:\n        /* \"#utility.yul\":10058:10103   */\n      tag_97\n      jump\t// in\n    tag_230:\n        /* \"#utility.yul\":10053:10056   */\n      dup3\n        /* \"#utility.yul\":10046:10104   */\n      mstore\n        /* \"#utility.yul\":9953:10110   */\n      pop\n      pop\n      jump\t// out\n        /* \"#utility.yul\":10116:10195   */\n    tag_99:\n        /* \"#utility.yul\":10155:10162   */\n      0x00\n        /* \"#utility.yul\":10184:10189   */\n      dup2\n        /* \"#utility.yul\":10173:10189   */\n      swap1\n      pop\n        /* \"#utility.yul\":10116:10195   */\n      swap2\n      swap1\n      pop\n      jump\t// out\n        /* \"#utility.yul\":10201:10358   */\n    tag_100:\n        /* \"#utility.yul\":10306:10351   */\n      tag_234\n        /* \"#utility.yul\":10326:10350   */\n      tag_235\n        /* \"#utility.yul\":10344:10349   */\n      dup3\n        /* \"#utility.yul\":10326:10350   */\n      tag_78\n      jump\t// in\n    tag_235:\n        /* \"#utility.yul\":10306:10351   */\n      tag_99\n      jump\t// in\n    tag_234:\n        /* \"#utility.yul\":10301:10304   */\n      dup3\n        /* \"#utility.yul\":10294:10352   */\n      mstore\n        /* \"#utility.yul\":10201:10358   */\n      pop\n      pop\n      jump\t// out\n        /* \"#utility.yul\":10364:10761   */\n    tag_42:\n        /* \"#utility.yul\":10504:10507   */\n      0x00\n        /* \"#utility.yul\":10519:10594   */\n      tag_237\n        /* \"#utility.yul\":10590:10593   */\n      dup3\n        /* \"#utility.yul\":10581:10587   */\n      dup6\n        /* \"#utility.yul\":10519:10594   */\n      tag_98\n      jump\t// in\n    tag_237:\n        /* \"#utility.yul\":10619:10621   */\n      0x14\n        /* \"#utility.yul\":10614:10617   */\n      dup3\n        /* \"#utility.yul\":10610:10622   */\n      add\n        /* \"#utility.yul\":10603:10622   */\n      swap2\n      pop\n        /* \"#utility.yul\":10632:10707   */\n      tag_238\n        /* \"#utility.yul\":10703:10706   */\n      dup3\n        /* \"#utility.yul\":10694:10700   */\n      dup5\n        /* \"#utility.yul\":10632:10707   */\n      tag_100\n      jump\t// in\n    tag_238:\n        /* \"#utility.yul\":10732:10734   */\n      0x20\n        /* \"#utility.yul\":10727:10730   */\n      dup3\n        /* \"#utility.yul\":10723:10735   */\n      add\n        /* \"#utility.yul\":10716:10735   */\n      swap2\n      pop\n        /* \"#utility.yul\":10752:10755   */\n      dup2\n        /* \"#utility.yul\":10745:10755   */\n      swap1\n      pop\n        /* \"#utility.yul\":10364:10761   */\n      swap4\n      swap3\n      pop\n      pop\n      pop\n      jump\t// out\n        /* \"#utility.yul\":10767:10947   */\n    tag_101:\n        /* \"#utility.yul\":10815:10892   */\n      0x4e487b7100000000000000000000000000000000000000000000000000000000\n        /* \"#utility.yul\":10812:10813   */\n      0x00\n        /* \"#utility.yul\":10805:10893   */\n      mstore\n        /* \"#utility.yul\":10912:10916   */\n      0x22\n        /* \"#utility.yul\":10909:10910   */\n      0x04\n        /* \"#utility.yul\":10902:10917   */\n      mstore\n        /* \"#utility.yul\":10936:10940   */\n      0x24\n        /* \"#utility.yul\":10933:10934   */\n      0x00\n        /* \"#utility.yul\":10926:10941   */\n      revert\n        /* \"#utility.yul\":10953:11273   */\n    tag_45:\n        /* \"#utility.yul\":10997:11003   */\n      0x00\n        /* \"#utility.yul\":11034:11035   */\n      0x02\n        /* \"#utility.yul\":11028:11032   */\n      dup3\n        /* \"#utility.yul\":11024:11036   */\n      div\n        /* \"#utility.yul\":11014:11036   */\n      swap1\n      pop\n        /* \"#utility.yul\":11081:11082   */\n      0x01\n        /* \"#utility.yul\":11075:11079   */\n      dup3\n        /* \"#utility.yul\":11071:11083   */\n      and\n        /* \"#utility.yul\":11102:11120   */\n      dup1\n        /* \"#utility.yul\":11092:11173   */\n      tag_241\n      jumpi\n        /* \"#utility.yul\":11158:11162   */\n      0x7f\n        /* \"#utility.yul\":11150:11156   */\n      dup3\n        /* \"#utility.yul\":11146:11163   */\n      and\n        /* \"#utility.yul\":11136:11163   */\n      swap2\n      pop\n        /* \"#utility.yul\":11092:11173   */\n    tag_241:\n        /* \"#utility.yul\":11220:11222   */\n      0x20\n        /* \"#utility.yul\":11212:11218   */\n      dup3\n        /* \"#utility.yul\":11209:11223   */\n      lt\n        /* \"#utility.yul\":11189:11207   */\n      dup2\n        /* \"#utility.yul\":11186:11224   */\n      sub\n        /* \"#utility.yul\":11183:11267   */\n      tag_242\n      jumpi\n        /* \"#utility.yul\":11239:11257   */\n      tag_243\n      tag_101\n      jump\t// in\n    tag_243:\n        /* \"#utility.yul\":11183:11267   */\n    tag_242:\n        /* \"#utility.yul\":11004:11273   */\n      pop\n        /* \"#utility.yul\":10953:11273   */\n      swap2\n      swap1\n      pop\n      jump\t// out\n        /* \"#utility.yul\":11279:11419   */\n    tag_102:\n        /* \"#utility.yul\":11327:11331   */\n      0x00\n        /* \"#utility.yul\":11350:11353   */\n      dup2\n        /* \"#utility.yul\":11342:11353   */\n      swap1\n      pop\n        /* \"#utility.yul\":11373:11376   */\n      dup2\n        /* \"#utility.yul\":11370:11371   */\n      0x00\n        /* \"#utility.yul\":11363:11377   */\n      mstore\n        /* \"#utility.yul\":11407:11411   */\n      0x20\n        /* \"#utility.yul\":11404:11405   */\n      0x00\n        /* \"#utility.yul\":11394:11412   */\n      keccak256\n        /* \"#utility.yul\":11386:11412   */\n      swap1\n      pop\n        /* \"#utility.yul\":11279:11419   */\n      swap2\n      swap1\n      pop\n      jump\t// out\n        /* \"#utility.yul\":11425:11518   */\n    tag_103:\n        /* \"#utility.yul\":11462:11468   */\n      0x00\n        /* \"#utility.yul\":11509:11511   */\n      0x20\n        /* \"#utility.yul\":11504:11506   */\n      0x1f\n        /* \"#utility.yul\":11497:11502   */\n      dup4\n        /* \"#utility.yul\":11493:11507   */\n      add\n        /* \"#utility.yul\":11489:11512   */\n      div\n        /* \"#utility.yul\":11479:11512   */\n      swap1\n      pop\n        /* \"#utility.yul\":11425:11518   */\n      swap2\n      swap1\n      pop\n      jump\t// out\n        /* \"#utility.yul\":11524:11917   */\n    tag_104:\n        /* \"#utility.yul\":11593:11599   */\n      0x00\n        /* \"#utility.yul\":11643:11644   */\n      0x08\n        /* \"#utility.yul\":11631:11641   */\n      dup4\n        /* \"#utility.yul\":11627:11645   */\n      mul\n        /* \"#utility.yul\":11666:11763   */\n      tag_247\n        /* \"#utility.yul\":11696:11762   */\n      0xffffffffffffffffffffffffffffffffffffffffffffffffffffffffffffffff\n        /* \"#utility.yul\":11685:11694   */\n      dup3\n        /* \"#utility.yul\":11666:11763   */\n      tag_89\n      jump\t// in\n    tag_247:\n        /* \"#utility.yul\":11784:11823   */\n      tag_248\n        /* \"#utility.yul\":11814:11822   */\n      dup7\n        /* \"#utility.yul\":11803:11812   */\n      dup4\n        /* \"#utility.yul\":11784:11823   */\n      tag_89\n      jump\t// in\n    tag_248:\n        /* \"#utility.yul\":11772:11823   */\n      swap6\n      pop\n        /* \"#utility.yul\":11856:11860   */\n      dup1\n        /* \"#utility.yul\":11852:11861   */\n      not\n        /* \"#utility.yul\":11845:11850   */\n      dup5\n        /* \"#utility.yul\":11841:11862   */\n      and\n        /* \"#utility.yul\":11832:11862   */\n      swap4\n      pop\n        /* \"#utility.yul\":11905:11909   */\n      dup1\n        /* \"#utility.yul\":11895:11903   */\n      dup7\n        /* \"#utility.yul\":11891:11910   */\n      and\n        /* \"#utility.yul\":11884:11889   */\n      dup5\n        /* \"#utility.yul\":11881:11911   */\n      or\n        /* \"#utility.yul\":11871:11911   */\n      swap3\n      pop\n        /* \"#utility.yul\":11600:11917   */\n      pop\n      pop\n        /* \"#utility.yul\":11524:11917   */\n      swap4\n      swap3\n      pop\n      pop\n      pop\n      jump\t// out\n        /* \"#utility.yul\":11923:12000   */\n    tag_105:\n        /* \"#utility.yul\":11960:11967   */\n      0x00\n        /* \"#utility.yul\":11989:11994   */\n      dup2\n        /* \"#utility.yul\":11978:11994   */\n      swap1\n      pop\n        /* \"#utility.yul\":11923:12000   */\n      swap2\n      swap1\n      pop\n      jump\t// out\n        /* \"#utility.yul\":12006:12066   */\n    tag_106:\n        /* \"#utility.yul\":12034:12037   */\n      0x00\n        /* \"#utility.yul\":12055:12060   */\n      dup2\n        /* \"#utility.yul\":12048:12060   */\n      swap1\n      pop\n        /* \"#utility.yul\":12006:12066   */\n      swap2\n      swap1\n      pop\n      jump\t// out\n        /* \"#utility.yul\":12072:12214   */\n    tag_107:\n        /* \"#utility.yul\":12122:12131   */\n      0x00\n        /* \"#utility.yul\":12155:12208   */\n      tag_252\n        /* \"#utility.yul\":12173:12207   */\n      tag_253\n        /* \"#utility.yul\":12182:12206   */\n      tag_254\n        /* \"#utility.yul\":12200:12205   */\n      dup5\n        /* \"#utility.yul\":12182:12206   */\n      tag_105\n      jump\t// in\n    tag_254:\n        /* \"#utility.yul\":12173:12207   */\n      tag_106\n      jump\t// in\n    tag_253:\n        /* \"#utility.yul\":12155:12208   */\n      tag_105\n      jump\t// in\n    tag_252:\n        /* \"#utility.yul\":12142:12208   */\n      swap1\n      pop\n        /* \"#utility.yul\":12072:12214   */\n      swap2\n      swap1\n      pop\n      jump\t// out\n        /* \"#utility.yul\":12220:12295   */\n    tag_108:\n        /* \"#utility.yul\":12263:12266   */\n      0x00\n        /* \"#utility.yul\":12284:12289   */\n      dup2\n        /* \"#utility.yul\":12277:12289   */\n      swap1\n      pop\n        /* \"#utility.yul\":12220:12295   */\n      swap2\n      swap1\n      pop\n      jump\t// out\n        /* \"#utility.yul\":12301:12570   */\n    tag_109:\n        /* \"#utility.yul\":12411:12450   */\n      tag_257\n        /* \"#utility.yul\":12442:12449   */\n      dup4\n        /* \"#utility.yul\":12411:12450   */\n      tag_107\n      jump\t// in\n    tag_257:\n        /* \"#utility.yul\":12472:12563   */\n      tag_258\n        /* \"#utility.yul\":12521:12562   */\n      tag_259\n        /* \"#utility.yul\":12545:12561   */\n      dup3\n        /* \"#utility.yul\":12521:12562   */\n      tag_108\n      jump\t// in\n    tag_259:\n        /* \"#utility.yul\":12513:12519   */\n      dup5\n        /* \"#utility.yul\":12506:12510   */\n      dup5\n        /* \"#utility.yul\":12500:12511   */\n      sload\n        /* \"#utility.yul\":12472:12563   */\n      tag_104\n      jump\t// in\n    tag_258:\n        /* \"#utility.yul\":12466:12470   */\n      dup3\n        /* \"#utility.yul\":12459:12564   */\n      sstore\n        /* \"#utility.yul\":12377:12570   */\n      pop\n        /* \"#utility.yul\":12301:12570   */\n      pop\n      pop\n      pop\n      jump\t// out\n        /* \"#utility.yul\":12576:12649   */\n    tag_110:\n        /* \"#utility.yul\":12621:12624   */\n      0x00\n        /* \"#utility.yul\":12576:12649   */\n      swap1\n      jump\t// out\n        /* \"#utility.yul\":12655:12844   */\n    tag_111:\n        /* \"#utility.yul\":12732:12764   */\n      tag_262\n      tag_110\n      jump\t// in\n    tag_262:\n        /* \"#utility.yul\":12773:12838   */\n      tag_263\n        /* \"#utility.yul\":12831:12837   */\n      dup2\n        /* \"#utility.yul\":12823:12829   */\n      dup5\n        /* \"#utility.yul\":12817:12821   */\n      dup5\n        /* \"#utility.yul\":12773:12838   */\n      tag_109\n      jump\t// in\n    tag_263:\n        /* \"#utility.yul\":12708:12844   */\n      pop\n        /* \"#utility.yul\":12655:12844   */\n      pop\n      pop\n      jump\t// out\n        /* \"#utility.yul\":12850:13036   */\n    tag_112:\n        /* \"#utility.yul\":12910:13030   */\n    tag_265:\n        /* \"#utility.yul\":12927:12930   */\n      dup2\n        /* \"#utility.yul\":12920:12925   */\n      dup2\n        /* \"#utility.yul\":12917:12931   */\n      lt\n        /* \"#utility.yul\":12910:13030   */\n      iszero\n      tag_267\n      jumpi\n        /* \"#utility.yul\":12981:13020   */\n      tag_268\n        /* \"#utility.yul\":13018:13019   */\n      0x00\n        /* \"#utility.yul\":13011:13016   */\n      dup3\n        /* \"#utility.yul\":12981:13020   */\n      tag_111\n      jump\t// in\n    tag_268:\n        /* \"#utility.yul\":12954:12955   */\n      0x01\n        /* \"#utility.yul\":12947:12952   */\n      dup2\n        /* \"#utility.yul\":12943:12956   */\n      add\n        /* \"#utility.yul\":12934:12956   */\n      swap1\n      pop\n        /* \"#utility.yul\":12910:13030   */\n      jump(tag_265)\n    tag_267:\n        /* \"#utility.yul\":12850:13036   */\n      pop\n      pop\n      jump\t// out\n        /* \"#utility.yul\":13042:13583   */\n    tag_113:\n        /* \"#utility.yul\":13142:13144   */\n      0x1f\n        /* \"#utility.yul\":13137:13140   */\n      dup3\n        /* \"#utility.yul\":13134:13145   */\n      gt\n        /* \"#utility.yul\":13131:13576   */\n      iszero\n      tag_270\n      jumpi\n        /* \"#utility.yul\":13176:13213   */\n      tag_271\n        /* \"#utility.yul\":13207:13212   */\n      dup2\n        /* \"#utility.yul\":13176:13213   */\n      tag_102\n      jump\t// in\n    tag_271:\n        /* \"#utility.yul\":13259:13288   */\n      tag_272\n        /* \"#utility.yul\":13277:13287   */\n      dup5\n        /* \"#utility.yul\":13259:13288   */\n      tag_103\n      jump\t// in\n    tag_272:\n        /* \"#utility.yul\":13249:13257   */\n      dup2\n        /* \"#utility.yul\":13245:13289   */\n      add\n        /* \"#utility.yul\":13442:13444   */\n      0x20\n        /* \"#utility.yul\":13430:13440   */\n      dup6\n        /* \"#utility.yul\":13427:13445   */\n      lt\n        /* \"#utility.yul\":13424:13473   */\n      iszero\n      tag_273\n      jumpi\n        /* \"#utility.yul\":13463:13471   */\n      dup2\n        /* \"#utility.yul\":13448:13471   */\n      swap1\n      pop\n        /* \"#utility.yul\":13424:13473   */\n    tag_273:\n        /* \"#utility.yul\":13486:13566   */\n      tag_274\n        /* \"#utility.yul\":13542:13564   */\n      tag_275\n        /* \"#utility.yul\":13560:13563   */\n      dup6\n        /* \"#utility.yul\":13542:13564   */\n      tag_103\n      jump\t// in\n    tag_275:\n        /* \"#utility.yul\":13532:13540   */\n      dup4\n        /* \"#utility.yul\":13528:13565   */\n      add\n        /* \"#utility.yul\":13515:13526   */\n      dup3\n        /* \"#utility.yul\":13486:13566   */\n      tag_112\n      jump\t// in\n    tag_274:\n        /* \"#utility.yul\":13146:13576   */\n      pop\n      pop\n        /* \"#utility.yul\":13131:13576   */\n    tag_270:\n        /* \"#utility.yul\":13042:13583   */\n      pop\n      pop\n      pop\n      jump\t// out\n        /* \"#utility.yul\":13589:13706   */\n    tag_114:\n        /* \"#utility.yul\":13643:13651   */\n      0x00\n        /* \"#utility.yul\":13693:13698   */\n      dup3\n        /* \"#utility.yul\":13687:13691   */\n      dup3\n        /* \"#utility.yul\":13683:13699   */\n      shr\n        /* \"#utility.yul\":13662:13699   */\n      swap1\n      pop\n        /* \"#utility.yul\":13589:13706   */\n      swap3\n      swap2\n      pop\n      pop\n      jump\t// out\n        /* \"#utility.yul\":13712:13881   */\n    tag_115:\n        /* \"#utility.yul\":13756:13762   */\n      0x00\n        /* \"#utility.yul\":13789:13840   */\n      tag_278\n        /* \"#utility.yul\":13837:13838   */\n      0x00\n        /* \"#utility.yul\":13833:13839   */\n      not\n        /* \"#utility.yul\":13825:13830   */\n      dup5\n        /* \"#utility.yul\":13822:13823   */\n      0x08\n        /* \"#utility.yul\":13818:13831   */\n      mul\n        /* \"#utility.yul\":13789:13840   */\n      tag_114\n      jump\t// in\n    tag_278:\n        /* \"#utility.yul\":13785:13841   */\n      not\n        /* \"#utility.yul\":13870:13874   */\n      dup1\n        /* \"#utility.yul\":13864:13868   */\n      dup4\n        /* \"#utility.yul\":13860:13875   */\n      and\n        /* \"#utility.yul\":13850:13875   */\n      swap2\n      pop\n        /* \"#utility.yul\":13763:13881   */\n      pop\n        /* \"#utility.yul\":13712:13881   */\n      swap3\n      swap2\n      pop\n      pop\n      jump\t// out\n        /* \"#utility.yul\":13886:14181   */\n    tag_116:\n        /* \"#utility.yul\":13962:13966   */\n      0x00\n        /* \"#utility.yul\":14108:14137   */\n      tag_280\n        /* \"#utility.yul\":14133:14136   */\n      dup4\n        /* \"#utility.yul\":14127:14131   */\n      dup4\n        /* \"#utility.yul\":14108:14137   */\n      tag_115\n      jump\t// in\n    tag_280:\n        /* \"#utility.yul\":14100:14137   */\n      swap2\n      pop\n        /* \"#utility.yul\":14170:14173   */\n      dup3\n        /* \"#utility.yul\":14167:14168   */\n      0x02\n        /* \"#utility.yul\":14163:14174   */\n      mul\n        /* \"#utility.yul\":14157:14161   */\n      dup3\n        /* \"#utility.yul\":14154:14175   */\n      or\n        /* \"#utility.yul\":14146:14175   */\n      swap1\n      pop\n        /* \"#utility.yul\":13886:14181   */\n      swap3\n      swap2\n      pop\n      pop\n      jump\t// out\n        /* \"#utility.yul\":14186:15578   */\n    tag_54:\n        /* \"#utility.yul\":14302:14339   */\n      tag_282\n        /* \"#utility.yul\":14335:14338   */\n      dup3\n        /* \"#utility.yul\":14302:14339   */\n      tag_90\n      jump\t// in\n    tag_282:\n        /* \"#utility.yul\":14404:14422   */\n      0xffffffffffffffff\n        /* \"#utility.yul\":14396:14402   */\n      dup2\n        /* \"#utility.yul\":14393:14423   */\n      gt\n        /* \"#utility.yul\":14390:14446   */\n      iszero\n      tag_283\n      jumpi\n        /* \"#utility.yul\":14426:14444   */\n      tag_284\n      tag_67\n      jump\t// in\n    tag_284:\n        /* \"#utility.yul\":14390:14446   */\n    tag_283:\n        /* \"#utility.yul\":14470:14508   */\n      tag_285\n        /* \"#utility.yul\":14502:14506   */\n      dup3\n        /* \"#utility.yul\":14496:14507   */\n      sload\n        /* \"#utility.yul\":14470:14508   */\n      tag_45\n      jump\t// in\n    tag_285:\n        /* \"#utility.yul\":14555:14621   */\n      tag_286\n        /* \"#utility.yul\":14614:14620   */\n      dup3\n        /* \"#utility.yul\":14606:14612   */\n      dup3\n        /* \"#utility.yul\":14600:14604   */\n      dup6\n        /* \"#utility.yul\":14555:14621   */\n      tag_113\n      jump\t// in\n    tag_286:\n        /* \"#utility.yul\":14648:14649   */\n      0x00\n        /* \"#utility.yul\":14672:14676   */\n      0x20\n        /* \"#utility.yul\":14659:14676   */\n      swap1\n      pop\n        /* \"#utility.yul\":14704:14706   */\n      0x1f\n        /* \"#utility.yul\":14696:14702   */\n      dup4\n        /* \"#utility.yul\":14693:14707   */\n      gt\n        /* \"#utility.yul\":14721:14722   */\n      0x01\n        /* \"#utility.yul\":14716:15333   */\n      dup2\n      eq\n      tag_288\n      jumpi\n        /* \"#utility.yul\":15377:15378   */\n      0x00\n        /* \"#utility.yul\":15394:15400   */\n      dup5\n        /* \"#utility.yul\":15391:15468   */\n      iszero\n      tag_289\n      jumpi\n        /* \"#utility.yul\":15443:15452   */\n      dup3\n        /* \"#utility.yul\":15438:15441   */\n      dup8\n        /* \"#utility.yul\":15434:15453   */\n      add\n        /* \"#utility.yul\":15428:15454   */\n      mload\n        /* \"#utility.yul\":15419:15454   */\n      swap1\n      pop\n        /* \"#utility.yul\":15391:15468   */\n    tag_289:\n        /* \"#utility.yul\":15494:15561   */\n      tag_290\n        /* \"#utility.yul\":15554:15560   */\n      dup6\n        /* \"#utility.yul\":15547:15552   */\n      dup3\n        /* \"#utility.yul\":15494:15561   */\n      tag_116\n      jump\t// in\n    tag_290:\n        /* \"#utility.yul\":15488:15492   */\n      dup7\n        /* \"#utility.yul\":15481:15562   */\n      sstore\n        /* \"#utility.yul\":15350:15572   */\n      pop\n        /* \"#utility.yul\":14686:15572   */\n      jump(tag_287)\n        /* \"#utility.yul\":14716:15333   */\n    tag_288:\n        /* \"#utility.yul\":14768:14772   */\n      0x1f\n        /* \"#utility.yul\":14764:14773   */\n      not\n        /* \"#utility.yul\":14756:14762   */\n      dup5\n        /* \"#utility.yul\":14752:14774   */\n      and\n        /* \"#utility.yul\":14802:14838   */\n      tag_291\n        /* \"#utility.yul\":14833:14837   */\n      dup7\n        /* \"#utility.yul\":14802:14838   */\n      tag_102\n      jump\t// in\n    tag_291:\n        /* \"#utility.yul\":14860:14861   */\n      0x00\n        /* \"#utility.yul\":14874:15082   */\n    tag_292:\n        /* \"#utility.yul\":14888:14895   */\n      dup3\n        /* \"#utility.yul\":14885:14886   */\n      dup2\n        /* \"#utility.yul\":14882:14896   */\n      lt\n        /* \"#utility.yul\":14874:15082   */\n      iszero\n      tag_294\n      jumpi\n        /* \"#utility.yul\":14967:14976   */\n      dup5\n        /* \"#utility.yul\":14962:14965   */\n      dup10\n        /* \"#utility.yul\":14958:14977   */\n      add\n        /* \"#utility.yul\":14952:14978   */\n      mload\n        /* \"#utility.yul\":14944:14950   */\n      dup3\n        /* \"#utility.yul\":14937:14979   */\n      sstore\n        /* \"#utility.yul\":15018:15019   */\n      0x01\n        /* \"#utility.yul\":15010:15016   */\n      dup3\n        /* \"#utility.yul\":15006:15020   */\n      add\n        /* \"#utility.yul\":14996:15020   */\n      swap2\n      pop\n        /* \"#utility.yul\":15065:15067   */\n      0x20\n        /* \"#utility.yul\":15054:15063   */\n      dup6\n        /* \"#utility.yul\":15050:15068   */\n      add\n        /* \"#utility.yul\":15037:15068   */\n      swap5\n      pop\n        /* \"#utility.yul\":14911:14915   */\n      0x20\n        /* \"#utility.yul\":14908:14909   */\n      dup2\n        /* \"#utility.yul\":14904:14916   */\n      add\n        /* \"#utility.yul\":14899:14916   */\n      swap1\n      pop\n        /* \"#utility.yul\":14874:15082   */\n      jump(tag_292)\n    tag_294:\n        /* \"#utility.yul\":15110:15116   */\n      dup7\n        /* \"#utility.yul\":15101:15108   */\n      dup4\n        /* \"#utility.yul\":15098:15117   */\n      lt\n        /* \"#utility.yul\":15095:15274   */\n      iszero\n      tag_295\n      jumpi\n        /* \"#utility.yul\":15168:15177   */\n      dup5\n        /* \"#utility.yul\":15163:15166   */\n      dup10\n        /* \"#utility.yul\":15159:15178   */\n      add\n        /* \"#utility.yul\":15153:15179   */\n      mload\n        /* \"#utility.yul\":15211:15259   */\n      tag_296\n        /* \"#utility.yul\":15253:15257   */\n      0x1f\n        /* \"#utility.yul\":15245:15251   */\n      dup10\n        /* \"#utility.yul\":15241:15258   */\n      and\n        /* \"#utility.yul\":15230:15239   */\n      dup3\n        /* \"#utility.yul\":15211:15259   */\n      tag_115\n      jump\t// in\n    tag_296:\n        /* \"#utility.yul\":15203:15209   */\n      dup4\n        /* \"#utility.yul\":15196:15260   */\n      sstore\n        /* \"#utility.yul\":15118:15274   */\n      pop\n        /* \"#utility.yul\":15095:15274   */\n    tag_295:\n        /* \"#utility.yul\":15320:15321   */\n      0x01\n        /* \"#utility.yul\":15316:15317   */\n      0x02\n        /* \"#utility.yul\":15308:15314   */\n      dup9\n        /* \"#utility.yul\":15304:15318   */\n      mul\n        /* \"#utility.yul\":15300:15322   */\n      add\n        /* \"#utility.yul\":15294:15298   */\n      dup9\n        /* \"#utility.yul\":15287:15323   */\n      sstore\n        /* \"#utility.yul\":14723:15333   */\n      pop\n      pop\n      pop\n        /* \"#utility.yul\":14686:15572   */\n    tag_287:\n      pop\n        /* \"#utility.yul\":14277:15578   */\n      pop\n      pop\n      pop\n        /* \"#utility.yul\":14186:15578   */\n      pop\n      pop\n      jump\t// out\n        /* \"#utility.yul\":15584:16974   */\n    tag_59:\n        /* \"#utility.yul\":15699:15735   */\n      tag_298\n        /* \"#utility.yul\":15731:15734   */\n      dup3\n        /* \"#utility.yul\":15699:15735   */\n      tag_74\n      jump\t// in\n    tag_298:\n        /* \"#utility.yul\":15800:15818   */\n      0xffffffffffffffff\n        /* \"#utility.yul\":15792:15798   */\n      dup2\n        /* \"#utility.yul\":15789:15819   */\n      gt\n        /* \"#utility.yul\":15786:15842   */\n      iszero\n      tag_299\n      jumpi\n        /* \"#utility.yul\":15822:15840   */\n      tag_300\n      tag_67\n      jump\t// in\n    tag_300:\n        /* \"#utility.yul\":15786:15842   */\n    tag_299:\n        /* \"#utility.yul\":15866:15904   */\n      tag_301\n        /* \"#utility.yul\":15898:15902   */\n      dup3\n        /* \"#utility.yul\":15892:15903   */\n      sload\n        /* \"#utility.yul\":15866:15904   */\n      tag_45\n      jump\t// in\n    tag_301:\n        /* \"#utility.yul\":15951:16017   */\n      tag_302\n        /* \"#utility.yul\":16010:16016   */\n      dup3\n        /* \"#utility.yul\":16002:16008   */\n      dup3\n        /* \"#utility.yul\":15996:16000   */\n      dup6\n        /* \"#utility.yul\":15951:16017   */\n      tag_113\n      jump\t// in\n    tag_302:\n        /* \"#utility.yul\":16044:16045   */\n      0x00\n        /* \"#utility.yul\":16068:16072   */\n      0x20\n        /* \"#utility.yul\":16055:16072   */\n      swap1\n      pop\n        /* \"#utility.yul\":16100:16102   */\n      0x1f\n        /* \"#utility.yul\":16092:16098   */\n      dup4\n        /* \"#utility.yul\":16089:16103   */\n      gt\n        /* \"#utility.yul\":16117:16118   */\n      0x01\n        /* \"#utility.yul\":16112:16729   */\n      dup2\n      eq\n      tag_304\n      jumpi\n        /* \"#utility.yul\":16773:16774   */\n      0x00\n        /* \"#utility.yul\":16790:16796   */\n      dup5\n        /* \"#utility.yul\":16787:16864   */\n      iszero\n      tag_305\n      jumpi\n        /* \"#utility.yul\":16839:16848   */\n      dup3\n        /* \"#utility.yul\":16834:16837   */\n      dup8\n        /* \"#utility.yul\":16830:16849   */\n      add\n        /* \"#utility.yul\":16824:16850   */\n      mload\n        /* \"#utility.yul\":16815:16850   */\n      swap1\n      pop\n        /* \"#utility.yul\":16787:16864   */\n    tag_305:\n        /* \"#utility.yul\":16890:16957   */\n      tag_306\n        /* \"#utility.yul\":16950:16956   */\n      dup6\n        /* \"#utility.yul\":16943:16948   */\n      dup3\n        /* \"#utility.yul\":16890:16957   */\n      tag_116\n      jump\t// in\n    tag_306:\n        /* \"#utility.yul\":16884:16888   */\n      dup7\n        /* \"#utility.yul\":16877:16958   */\n      sstore\n        /* \"#utility.yul\":16746:16968   */\n      pop\n        /* \"#utility.yul\":16082:16968   */\n      jump(tag_303)\n        /* \"#utility.yul\":16112:16729   */\n    tag_304:\n        /* \"#utility.yul\":16164:16168   */\n      0x1f\n        /* \"#utility.yul\":16160:16169   */\n      not\n        /* \"#utility.yul\":16152:16158   */\n      dup5\n        /* \"#utility.yul\":16148:16170   */\n      and\n        /* \"#utility.yul\":16198:16234   */\n      tag_307\n        /* \"#utility.yul\":16229:16233   */\n      dup7\n        /* \"#utility.yul\":16198:16234   */\n      tag_102\n      jump\t// in\n    tag_307:\n        /* \"#utility.yul\":16256:16257   */\n      0x00\n        /* \"#utility.yul\":16270:16478   */\n    tag_308:\n        /* \"#utility.yul\":16284:16291   */\n      dup3\n        /* \"#utility.yul\":16281:16282   */\n      dup2\n        /* \"#utility.yul\":16278:16292   */\n      lt\n        /* \"#utility.yul\":16270:16478   */\n      iszero\n      tag_310\n      jumpi\n        /* \"#utility.yul\":16363:16372   */\n      dup5\n        /* \"#utility.yul\":16358:16361   */\n      dup10\n        /* \"#utility.yul\":16354:16373   */\n      add\n        /* \"#utility.yul\":16348:16374   */\n      mload\n        /* \"#utility.yul\":16340:16346   */\n      dup3\n        /* \"#utility.yul\":16333:16375   */\n      sstore\n        /* \"#utility.yul\":16414:16415   */\n      0x01\n        /* \"#utility.yul\":16406:16412   */\n      dup3\n        /* \"#utility.yul\":16402:16416   */\n      add\n        /* \"#utility.yul\":16392:16416   */\n      swap2\n      pop\n        /* \"#utility.yul\":16461:16463   */\n      0x20\n        /* \"#utility.yul\":16450:16459   */\n      dup6\n        /* \"#utility.yul\":16446:16464   */\n      add\n        /* \"#utility.yul\":16433:16464   */\n      swap5\n      pop\n        /* \"#utility.yul\":16307:16311   */\n      0x20\n        /* \"#utility.yul\":16304:16305   */\n      dup2\n        /* \"#utility.yul\":16300:16312   */\n      add\n        /* \"#utility.yul\":16295:16312   */\n      swap1\n      pop\n        /* \"#utility.yul\":16270:16478   */\n      jump(tag_308)\n    tag_310:\n        /* \"#utility.yul\":16506:16512   */\n      dup7\n        /* \"#utility.yul\":16497:16504   */\n      dup4\n        /* \"#utility.yul\":16494:16513   */\n      lt\n        /* \"#utility.yul\":16491:16670   */\n      iszero\n      tag_311\n      jumpi\n        /* \"#utility.yul\":16564:16573   */\n      dup5\n        /* \"#utility.yul\":16559:16562   */\n      dup10\n        /* \"#utility.yul\":16555:16574   */\n      add\n        /* \"#utility.yul\":16549:16575   */\n      mload\n        /* \"#utility.yul\":16607:16655   */\n      tag_312\n        /* \"#utility.yul\":16649:16653   */\n      0x1f\n        /* \"#utility.yul\":16641:16647   */\n      dup10\n        /* \"#utility.yul\":16637:16654   */\n      and\n        /* \"#utility.yul\":16626:16635   */\n      dup3\n        /* \"#utility.yul\":16607:16655   */\n      tag_115\n      jump\t// in\n    tag_312:\n        /* \"#utility.yul\":16599:16605   */\n      dup4\n        /* \"#utility.yul\":16592:16656   */\n      sstore\n        /* \"#utility.yul\":16514:16670   */\n      pop\n        /* \"#utility.yul\":16491:16670   */\n    tag_311:\n        /* \"#utility.yul\":16716:16717   */\n      0x01\n        /* \"#utility.yul\":16712:16713   */\n      0x02\n        /* \"#utility.yul\":16704:16710   */\n      dup9\n        /* \"#utility.yul\":16700:16714   */\n      mul\n        /* \"#utility.yul\":16696:16718   */\n      add\n        /* \"#utility.yul\":16690:16694   */\n      dup9\n        /* \"#utility.yul\":16683:16719   */\n      sstore\n        /* \"#utility.yul\":16119:16729   */\n      pop\n      pop\n      pop\n        /* \"#utility.yul\":16082:16968   */\n    tag_303:\n      pop\n        /* \"#utility.yul\":15674:16974   */\n      pop\n      pop\n      pop\n        /* \"#utility.yul\":15584:16974   */\n      pop\n      pop\n      jump\t// out\n\n    auxdata: 0xa2646970667358221220d08aeef903ecd59e2a807c94ee67fe64f68feaced3ff55d3982bfacab7f6b19964736f6c63430008180033\n}\n",
				"bytecode": {
					"linkReferences": {},
					"object": "608060405234801561000f575f80fd5b50610c7c8061001d5f395ff3fe608060405260043610610037575f3560e01c8063693ec85e14610050578063a42929e01461008c578063aac438c0146100b457610046565b36610046576100446100dc565b005b61004e6100dc565b005b34801561005b575f80fd5b506100766004803603810190610071919061047f565b610182565b6040516100839190610540565b60405180910390f35b348015610097575f80fd5b506100b260048036038101906100ad9190610593565b610292565b005b3480156100bf575f80fd5b506100da60048036038101906100d5919061065c565b6102e4565b005b5f80365f906004926100f0939291906106be565b906100fb9190610739565b90505f80366004908092610111939291906106be565b8080601f0160208091040260200160405190810160405280939291908181526020018383808284375f81840152601f19601f82011690508083019250505050505050905061017e827bffffffffffffffffffffffffffffffffffffffffffffffffffffffff1916826102e4565b5050565b60605f7fffffffff00000000000000000000000000000000000000000000000000000000836040516020016101b791906107db565b6040516020818303038152906040528051906020012016905061020133826040516020016101e6929190610886565b60405160208183030381529060405280519060200120610329565b5f01805461020e906108de565b80601f016020809104026020016040519081016040528092919081815260200182805461023a906108de565b80156102855780601f1061025c57610100808354040283529160200191610285565b820191905f5260205f20905b81548152906001019060200180831161026857829003601f168201915b5050505050915050919050565b60405180602001604052805f8152506102d233836040516020016102b7929190610886565b60405160208183030381529060405280519060200120610329565b5f0190816102e09190610aa8565b5050565b8061031633846040516020016102fb929190610886565b60405160208183030381529060405280519060200120610329565b5f0190816103249190610b77565b505050565b5f819050919050565b5f604051905090565b5f80fd5b5f80fd5b5f80fd5b5f80fd5b5f601f19601f8301169050919050565b7f4e487b71000000000000000000000000000000000000000000000000000000005f52604160045260245ffd5b6103918261034b565b810181811067ffffffffffffffff821117156103b0576103af61035b565b5b80604052505050565b5f6103c2610332565b90506103ce8282610388565b919050565b5f67ffffffffffffffff8211156103ed576103ec61035b565b5b6103f68261034b565b9050602081019050919050565b828183375f83830152505050565b5f61042361041e846103d3565b6103b9565b90508281526020810184848401111561043f5761043e610347565b5b61044a848285610403565b509392505050565b5f82601f83011261046657610465610343565b5b8135610476848260208601610411565b91505092915050565b5f602082840312156104945761049361033b565b5b5f82013567ffffffffffffffff8111156104b1576104b061033f565b5b6104bd84828501610452565b91505092915050565b5f81519050919050565b5f82825260208201905092915050565b5f5b838110156104fd5780820151818401526020810190506104e2565b5f8484015250505050565b5f610512826104c6565b61051c81856104d0565b935061052c8185602086016104e0565b6105358161034b565b840191505092915050565b5f6020820190508181035f8301526105588184610508565b905092915050565b5f819050919050565b61057281610560565b811461057c575f80fd5b50565b5f8135905061058d81610569565b92915050565b5f602082840312156105a8576105a761033b565b5b5f6105b58482850161057f565b91505092915050565b5f67ffffffffffffffff8211156105d8576105d761035b565b5b6105e18261034b565b9050602081019050919050565b5f6106006105fb846105be565b6103b9565b90508281526020810184848401111561061c5761061b610347565b5b610627848285610403565b509392505050565b5f82601f83011261064357610642610343565b5b81356106538482602086016105ee565b91505092915050565b5f80604083850312156106725761067161033b565b5b5f61067f8582860161057f565b925050602083013567ffffffffffffffff8111156106a05761069f61033f565b5b6106ac8582860161062f565b9150509250929050565b5f80fd5b5f80fd5b5f80858511156106d1576106d06106b6565b5b838611156106e2576106e16106ba565b5b6001850283019150848603905094509492505050565b5f82905092915050565b5f7fffffffff0000000000000000000000000000000000000000000000000000000082169050919050565b5f82821b905092915050565b5f61074483836106f8565b8261074f8135610702565b9250600482101561078f5761078a7fffffffff000000000000000000000000000000000000000000000000000000008360040360080261072d565b831692505b505092915050565b5f81519050919050565b5f81905092915050565b5f6107b582610797565b6107bf81856107a1565b93506107cf8185602086016104e0565b80840191505092915050565b5f6107e682846107ab565b915081905092915050565b5f73ffffffffffffffffffffffffffffffffffffffff82169050919050565b5f61081a826107f1565b9050919050565b5f8160601b9050919050565b5f61083782610821565b9050919050565b5f6108488261082d565b9050919050565b61086061085b82610810565b61083e565b82525050565b5f819050919050565b61088061087b82610560565b610866565b82525050565b5f610891828561084f565b6014820191506108a1828461086f565b6020820191508190509392505050565b7f4e487b71000000000000000000000000000000000000000000000000000000005f52602260045260245ffd5b5f60028204905060018216806108f557607f821691505b602082108103610908576109076108b1565b5b50919050565b5f819050815f5260205f209050919050565b5f6020601f8301049050919050565b5f6008830261095e7fffffffffffffffffffffffffffffffffffffffffffffffffffffffffffffffff8261072d565b610968868361072d565b95508019841693508086168417925050509392505050565b5f819050919050565b5f819050919050565b5f6109ac6109a76109a284610980565b610989565b610980565b9050919050565b5f819050919050565b6109c583610992565b6109d96109d1826109b3565b84845461092f565b825550505050565b5f90565b6109ed6109e1565b6109f88184846109bc565b505050565b5b81811015610a1b57610a105f826109e5565b6001810190506109fe565b5050565b601f821115610a6057610a318161090e565b610a3a84610920565b81016020851015610a49578190505b610a5d610a5585610920565b8301826109fd565b50505b505050565b5f82821c905092915050565b5f610a805f1984600802610a65565b1980831691505092915050565b5f610a988383610a71565b9150826002028217905092915050565b610ab182610797565b67ffffffffffffffff811115610aca57610ac961035b565b5b610ad482546108de565b610adf828285610a1f565b5f60209050601f831160018114610b10575f8415610afe578287015190505b610b088582610a8d565b865550610b6f565b601f198416610b1e8661090e565b5f5b82811015610b4557848901518255600182019150602085019450602081019050610b20565b86831015610b625784890151610b5e601f891682610a71565b8355505b6001600288020188555050505b505050505050565b610b80826104c6565b67ffffffffffffffff811115610b9957610b9861035b565b5b610ba382546108de565b610bae828285610a1f565b5f60209050601f831160018114610bdf575f8415610bcd578287015190505b610bd78582610a8d565b865550610c3e565b601f198416610bed8661090e565b5f5b82811015610c1457848901518255600182019150602085019450602081019050610bef565b86831015610c315784890151610c2d601f891682610a71565b8355505b6001600288020188555050505b50505050505056fea2646970667358221220d08aeef903ecd59e2a807c94ee67fe64f68feaced3ff55d3982bfacab7f6b19964736f6c63430008180033",
					"opcodes": "PUSH1 0x80 PUSH1 0x40 MSTORE CALLVALUE DUP1 ISZERO PUSH2 0xF JUMPI PUSH0 DUP1 REVERT JUMPDEST POP PUSH2 0xC7C DUP1 PUSH2 0x1D PUSH0 CODECOPY PUSH0 RETURN INVALID PUSH1 0x80 PUSH1 0x40 MSTORE PUSH1 0x4 CALLDATASIZE LT PUSH2 0x37 JUMPI PUSH0 CALLDATALOAD PUSH1 0xE0 SHR DUP1 PUSH4 0x693EC85E EQ PUSH2 0x50 JUMPI DUP1 PUSH4 0xA42929E0 EQ PUSH2 0x8C JUMPI DUP1 PUSH4 0xAAC438C0 EQ PUSH2 0xB4 JUMPI PUSH2 0x46 JUMP JUMPDEST CALLDATASIZE PUSH2 0x46 JUMPI PUSH2 0x44 PUSH2 0xDC JUMP JUMPDEST STOP JUMPDEST PUSH2 0x4E PUSH2 0xDC JUMP JUMPDEST STOP JUMPDEST CALLVALUE DUP1 ISZERO PUSH2 0x5B JUMPI PUSH0 DUP1 REVERT JUMPDEST POP PUSH2 0x76 PUSH1 0x4 DUP1 CALLDATASIZE SUB DUP2 ADD SWAP1 PUSH2 0x71 SWAP2 SWAP1 PUSH2 0x47F JUMP JUMPDEST PUSH2 0x182 JUMP JUMPDEST PUSH1 0x40 MLOAD PUSH2 0x83 SWAP2 SWAP1 PUSH2 0x540 JUMP JUMPDEST PUSH1 0x40 MLOAD DUP1 SWAP2 SUB SWAP1 RETURN JUMPDEST CALLVALUE DUP1 ISZERO PUSH2 0x97 JUMPI PUSH0 DUP1 REVERT JUMPDEST POP PUSH2 0xB2 PUSH1 0x4 DUP1 CALLDATASIZE SUB DUP2 ADD SWAP1 PUSH2 0xAD SWAP2 SWAP1 PUSH2 0x593 JUMP JUMPDEST PUSH2 0x292 JUMP JUMPDEST STOP JUMPDEST CALLVALUE DUP1 ISZERO PUSH2 0xBF JUMPI PUSH0 DUP1 REVERT JUMPDEST POP PUSH2 0xDA PUSH1 0x4 DUP1 CALLDATASIZE SUB DUP2 ADD SWAP1 PUSH2 0xD5 SWAP2 SWAP1 PUSH2 0x65C JUMP JUMPDEST PUSH2 0x2E4 JUMP JUMPDEST STOP JUMPDEST PUSH0 DUP1 CALLDATASIZE PUSH0 SWAP1 PUSH1 0x4 SWAP3 PUSH2 0xF0 SWAP4 SWAP3 SWAP2 SWAP1 PUSH2 0x6BE JUMP JUMPDEST SWAP1 PUSH2 0xFB SWAP2 SWAP1 PUSH2 0x739 JUMP JUMPDEST SWAP1 POP PUSH0 DUP1 CALLDATASIZE PUSH1 0x4 SWAP1 DUP1 SWAP3 PUSH2 0x111 SWAP4 SWAP3 SWAP2 SWAP1 PUSH2 0x6BE JUMP JUMPDEST DUP1 DUP1 PUSH1 0x1F ADD PUSH1 0x20 DUP1 SWAP2 DIV MUL PUSH1 0x20 ADD PUSH1 0x40 MLOAD SWAP1 DUP2 ADD PUSH1 0x40 MSTORE DUP1 SWAP4 SWAP3 SWAP2 SWAP1 DUP2 DUP2 MSTORE PUSH1 0x20 ADD DUP4 DUP4 DUP1 DUP3 DUP5 CALLDATACOPY PUSH0 DUP2 DUP5 ADD MSTORE PUSH1 0x1F NOT PUSH1 0x1F DUP3 ADD AND SWAP1 POP DUP1 DUP4 ADD SWAP3 POP POP POP POP POP POP POP SWAP1 POP PUSH2 0x17E DUP3 PUSH28 0xFFFFFFFFFFFFFFFFFFFFFFFFFFFFFFFFFFFFFFFFFFFFFFFFFFFFFFFF NOT AND DUP3 PUSH2 0x2E4 JUMP JUMPDEST POP POP JUMP JUMPDEST PUSH1 0x60 PUSH0 PUSH32 0xFFFFFFFF00000000000000000000000000000000000000000000000000000000 DUP4 PUSH1 0x40 MLOAD PUSH1 0x20 ADD PUSH2 0x1B7 SWAP2 SWAP1 PUSH2 0x7DB JUMP JUMPDEST PUSH1 0x40 MLOAD PUSH1 0x20 DUP2 DUP4 SUB SUB DUP2 MSTORE SWAP1 PUSH1 0x40 MSTORE DUP1 MLOAD SWAP1 PUSH1 0x20 ADD KECCAK256 AND SWAP1 POP PUSH2 0x201 CALLER DUP3 PUSH1 0x40 MLOAD PUSH1 0x20 ADD PUSH2 0x1E6 SWAP3 SWAP2 SWAP1 PUSH2 0x886 JUMP JUMPDEST PUSH1 0x40 MLOAD PUSH1 0x20 DUP2 DUP4 SUB SUB DUP2 MSTORE SWAP1 PUSH1 0x40 MSTORE DUP1 MLOAD SWAP1 PUSH1 0x20 ADD KECCAK256 PUSH2 0x329 JUMP JUMPDEST PUSH0 ADD DUP1 SLOAD PUSH2 0x20E SWAP1 PUSH2 0x8DE JUMP JUMPDEST DUP1 PUSH1 0x1F ADD PUSH1 0x20 DUP1 SWAP2 DIV MUL PUSH1 0x20 ADD PUSH1 0x40 MLOAD SWAP1 DUP2 ADD PUSH1 0x40 MSTORE DUP1 SWAP3 SWAP2 SWAP1 DUP2 DUP2 MSTORE PUSH1 0x20 ADD DUP3 DUP1 SLOAD PUSH2 0x23A SWAP1 PUSH2 0x8DE JUMP JUMPDEST DUP1 ISZERO PUSH2 0x285 JUMPI DUP1 PUSH1 0x1F LT PUSH2 0x25C JUMPI PUSH2 0x100 DUP1 DUP4 SLOAD DIV MUL DUP4 MSTORE SWAP2 PUSH1 0x20 ADD SWAP2 PUSH2 0x285 JUMP JUMPDEST DUP3 ADD SWAP2 SWAP1 PUSH0 MSTORE PUSH1 0x20 PUSH0 KECCAK256 SWAP1 JUMPDEST DUP2 SLOAD DUP2 MSTORE SWAP1 PUSH1 0x1 ADD SWAP1 PUSH1 0x20 ADD DUP1 DUP4 GT PUSH2 0x268 JUMPI DUP3 SWAP1 SUB PUSH1 0x1F AND DUP3 ADD SWAP2 JUMPDEST POP POP POP POP POP SWAP2 POP POP SWAP2 SWAP1 POP JUMP JUMPDEST PUSH1 0x40 MLOAD DUP1 PUSH1 0x20 ADD PUSH1 0x40 MSTORE DUP1 PUSH0 DUP2 MSTORE POP PUSH2 0x2D2 CALLER DUP4 PUSH1 0x40 MLOAD PUSH1 0x20 ADD PUSH2 0x2B7 SWAP3 SWAP2 SWAP1 PUSH2 0x886 JUMP JUMPDEST PUSH1 0x40 MLOAD PUSH1 0x20 DUP2 DUP4 SUB SUB DUP2 MSTORE SWAP1 PUSH1 0x40 MSTORE DUP1 MLOAD SWAP1 PUSH1 0x20 ADD KECCAK256 PUSH2 0x329 JUMP JUMPDEST PUSH0 ADD SWAP1 DUP2 PUSH2 0x2E0 SWAP2 SWAP1 PUSH2 0xAA8 JUMP JUMPDEST POP POP JUMP JUMPDEST DUP1 PUSH2 0x316 CALLER DUP5 PUSH1 0x40 MLOAD PUSH1 0x20 ADD PUSH2 0x2FB SWAP3 SWAP2 SWAP1 PUSH2 0x886 JUMP JUMPDEST PUSH1 0x40 MLOAD PUSH1 0x20 DUP2 DUP4 SUB SUB DUP2 MSTORE SWAP1 PUSH1 0x40 MSTORE DUP1 MLOAD SWAP1 PUSH1 0x20 ADD KECCAK256 PUSH2 0x329 JUMP JUMPDEST PUSH0 ADD SWAP1 DUP2 PUSH2 0x324 SWAP2 SWAP1 PUSH2 0xB77 JUMP JUMPDEST POP POP POP JUMP JUMPDEST PUSH0 DUP2 SWAP1 POP SWAP2 SWAP1 POP JUMP JUMPDEST PUSH0 PUSH1 0x40 MLOAD SWAP1 POP SWAP1 JUMP JUMPDEST PUSH0 DUP1 REVERT JUMPDEST PUSH0 DUP1 REVERT JUMPDEST PUSH0 DUP1 REVERT JUMPDEST PUSH0 DUP1 REVERT JUMPDEST PUSH0 PUSH1 0x1F NOT PUSH1 0x1F DUP4 ADD AND SWAP1 POP SWAP2 SWAP1 POP JUMP JUMPDEST PUSH32 0x4E487B7100000000000000000000000000000000000000000000000000000000 PUSH0 MSTORE PUSH1 0x41 PUSH1 0x4 MSTORE PUSH1 0x24 PUSH0 REVERT JUMPDEST PUSH2 0x391 DUP3 PUSH2 0x34B JUMP JUMPDEST DUP2 ADD DUP2 DUP2 LT PUSH8 0xFFFFFFFFFFFFFFFF DUP3 GT OR ISZERO PUSH2 0x3B0 JUMPI PUSH2 0x3AF PUSH2 0x35B JUMP JUMPDEST JUMPDEST DUP1 PUSH1 0x40 MSTORE POP POP POP JUMP JUMPDEST PUSH0 PUSH2 0x3C2 PUSH2 0x332 JUMP JUMPDEST SWAP1 POP PUSH2 0x3CE DUP3 DUP3 PUSH2 0x388 JUMP JUMPDEST SWAP2 SWAP1 POP JUMP JUMPDEST PUSH0 PUSH8 0xFFFFFFFFFFFFFFFF DUP3 GT ISZERO PUSH2 0x3ED JUMPI PUSH2 0x3EC PUSH2 0x35B JUMP JUMPDEST JUMPDEST PUSH2 0x3F6 DUP3 PUSH2 0x34B JUMP JUMPDEST SWAP1 POP PUSH1 0x20 DUP2 ADD SWAP1 POP SWAP2 SWAP1 POP JUMP JUMPDEST DUP3 DUP2 DUP4 CALLDATACOPY PUSH0 DUP4 DUP4 ADD MSTORE POP POP POP JUMP JUMPDEST PUSH0 PUSH2 0x423 PUSH2 0x41E DUP5 PUSH2 0x3D3 JUMP JUMPDEST PUSH2 0x3B9 JUMP JUMPDEST SWAP1 POP DUP3 DUP2 MSTORE PUSH1 0x20 DUP2 ADD DUP5 DUP5 DUP5 ADD GT ISZERO PUSH2 0x43F JUMPI PUSH2 0x43E PUSH2 0x347 JUMP JUMPDEST JUMPDEST PUSH2 0x44A DUP5 DUP3 DUP6 PUSH2 0x403 JUMP JUMPDEST POP SWAP4 SWAP3 POP POP POP JUMP JUMPDEST PUSH0 DUP3 PUSH1 0x1F DUP4 ADD SLT PUSH2 0x466 JUMPI PUSH2 0x465 PUSH2 0x343 JUMP JUMPDEST JUMPDEST DUP2 CALLDATALOAD PUSH2 0x476 DUP5 DUP3 PUSH1 0x20 DUP7 ADD PUSH2 0x411 JUMP JUMPDEST SWAP2 POP POP SWAP3 SWAP2 POP POP JUMP JUMPDEST PUSH0 PUSH1 0x20 DUP3 DUP5 SUB SLT ISZERO PUSH2 0x494 JUMPI PUSH2 0x493 PUSH2 0x33B JUMP JUMPDEST JUMPDEST PUSH0 DUP3 ADD CALLDATALOAD PUSH8 0xFFFFFFFFFFFFFFFF DUP2 GT ISZERO PUSH2 0x4B1 JUMPI PUSH2 0x4B0 PUSH2 0x33F JUMP JUMPDEST JUMPDEST PUSH2 0x4BD DUP5 DUP3 DUP6 ADD PUSH2 0x452 JUMP JUMPDEST SWAP2 POP POP SWAP3 SWAP2 POP POP JUMP JUMPDEST PUSH0 DUP2 MLOAD SWAP1 POP SWAP2 SWAP1 POP JUMP JUMPDEST PUSH0 DUP3 DUP3 MSTORE PUSH1 0x20 DUP3 ADD SWAP1 POP SWAP3 SWAP2 POP POP JUMP JUMPDEST PUSH0 JUMPDEST DUP4 DUP2 LT ISZERO PUSH2 0x4FD JUMPI DUP1 DUP3 ADD MLOAD DUP2 DUP5 ADD MSTORE PUSH1 0x20 DUP2 ADD SWAP1 POP PUSH2 0x4E2 JUMP JUMPDEST PUSH0 DUP5 DUP5 ADD MSTORE POP POP POP POP JUMP JUMPDEST PUSH0 PUSH2 0x512 DUP3 PUSH2 0x4C6 JUMP JUMPDEST PUSH2 0x51C DUP2 DUP6 PUSH2 0x4D0 JUMP JUMPDEST SWAP4 POP PUSH2 0x52C DUP2 DUP6 PUSH1 0x20 DUP7 ADD PUSH2 0x4E0 JUMP JUMPDEST PUSH2 0x535 DUP2 PUSH2 0x34B JUMP JUMPDEST DUP5 ADD SWAP2 POP POP SWAP3 SWAP2 POP POP JUMP JUMPDEST PUSH0 PUSH1 0x20 DUP3 ADD SWAP1 POP DUP2 DUP2 SUB PUSH0 DUP4 ADD MSTORE PUSH2 0x558 DUP2 DUP5 PUSH2 0x508 JUMP JUMPDEST SWAP1 POP SWAP3 SWAP2 POP POP JUMP JUMPDEST PUSH0 DUP2 SWAP1 POP SWAP2 SWAP1 POP JUMP JUMPDEST PUSH2 0x572 DUP2 PUSH2 0x560 JUMP JUMPDEST DUP2 EQ PUSH2 0x57C JUMPI PUSH0 DUP1 REVERT JUMPDEST POP JUMP JUMPDEST PUSH0 DUP2 CALLDATALOAD SWAP1 POP PUSH2 0x58D DUP2 PUSH2 0x569 JUMP JUMPDEST SWAP3 SWAP2 POP POP JUMP JUMPDEST PUSH0 PUSH1 0x20 DUP3 DUP5 SUB SLT ISZERO PUSH2 0x5A8 JUMPI PUSH2 0x5A7 PUSH2 0x33B JUMP JUMPDEST JUMPDEST PUSH0 PUSH2 0x5B5 DUP5 DUP3 DUP6 ADD PUSH2 0x57F JUMP JUMPDEST SWAP2 POP POP SWAP3 SWAP2 POP POP JUMP JUMPDEST PUSH0 PUSH8 0xFFFFFFFFFFFFFFFF DUP3 GT ISZERO PUSH2 0x5D8 JUMPI PUSH2 0x5D7 PUSH2 0x35B JUMP JUMPDEST JUMPDEST PUSH2 0x5E1 DUP3 PUSH2 0x34B JUMP JUMPDEST SWAP1 POP PUSH1 0x20 DUP2 ADD SWAP1 POP SWAP2 SWAP1 POP JUMP JUMPDEST PUSH0 PUSH2 0x600 PUSH2 0x5FB DUP5 PUSH2 0x5BE JUMP JUMPDEST PUSH2 0x3B9 JUMP JUMPDEST SWAP1 POP DUP3 DUP2 MSTORE PUSH1 0x20 DUP2 ADD DUP5 DUP5 DUP5 ADD GT ISZERO PUSH2 0x61C JUMPI PUSH2 0x61B PUSH2 0x347 JUMP JUMPDEST JUMPDEST PUSH2 0x627 DUP5 DUP3 DUP6 PUSH2 0x403 JUMP JUMPDEST POP SWAP4 SWAP3 POP POP POP JUMP JUMPDEST PUSH0 DUP3 PUSH1 0x1F DUP4 ADD SLT PUSH2 0x643 JUMPI PUSH2 0x642 PUSH2 0x343 JUMP JUMPDEST JUMPDEST DUP2 CALLDATALOAD PUSH2 0x653 DUP5 DUP3 PUSH1 0x20 DUP7 ADD PUSH2 0x5EE JUMP JUMPDEST SWAP2 POP POP SWAP3 SWAP2 POP POP JUMP JUMPDEST PUSH0 DUP1 PUSH1 0x40 DUP4 DUP6 SUB SLT ISZERO PUSH2 0x672 JUMPI PUSH2 0x671 PUSH2 0x33B JUMP JUMPDEST JUMPDEST PUSH0 PUSH2 0x67F DUP6 DUP3 DUP7 ADD PUSH2 0x57F JUMP JUMPDEST SWAP3 POP POP PUSH1 0x20 DUP4 ADD CALLDATALOAD PUSH8 0xFFFFFFFFFFFFFFFF DUP2 GT ISZERO PUSH2 0x6A0 JUMPI PUSH2 0x69F PUSH2 0x33F JUMP JUMPDEST JUMPDEST PUSH2 0x6AC DUP6 DUP3 DUP7 ADD PUSH2 0x62F JUMP JUMPDEST SWAP2 POP POP SWAP3 POP SWAP3 SWAP1 POP JUMP JUMPDEST PUSH0 DUP1 REVERT JUMPDEST PUSH0 DUP1 REVERT JUMPDEST PUSH0 DUP1 DUP6 DUP6 GT ISZERO PUSH2 0x6D1 JUMPI PUSH2 0x6D0 PUSH2 0x6B6 JUMP JUMPDEST JUMPDEST DUP4 DUP7 GT ISZERO PUSH2 0x6E2 JUMPI PUSH2 0x6E1 PUSH2 0x6BA JUMP JUMPDEST JUMPDEST PUSH1 0x1 DUP6 MUL DUP4 ADD SWAP2 POP DUP5 DUP7 SUB SWAP1 POP SWAP5 POP SWAP5 SWAP3 POP POP POP JUMP JUMPDEST PUSH0 DUP3 SWAP1 POP SWAP3 SWAP2 POP POP JUMP JUMPDEST PUSH0 PUSH32 0xFFFFFFFF00000000000000000000000000000000000000000000000000000000 DUP3 AND SWAP1 POP SWAP2 SWAP1 POP JUMP JUMPDEST PUSH0 DUP3 DUP3 SHL SWAP1 POP SWAP3 SWAP2 POP POP JUMP JUMPDEST PUSH0 PUSH2 0x744 DUP4 DUP4 PUSH2 0x6F8 JUMP JUMPDEST DUP3 PUSH2 0x74F DUP2 CALLDATALOAD PUSH2 0x702 JUMP JUMPDEST SWAP3 POP PUSH1 0x4 DUP3 LT ISZERO PUSH2 0x78F JUMPI PUSH2 0x78A PUSH32 0xFFFFFFFF00000000000000000000000000000000000000000000000000000000 DUP4 PUSH1 0x4 SUB PUSH1 0x8 MUL PUSH2 0x72D JUMP JUMPDEST DUP4 AND SWAP3 POP JUMPDEST POP POP SWAP3 SWAP2 POP POP JUMP JUMPDEST PUSH0 DUP2 MLOAD SWAP1 POP SWAP2 SWAP1 POP JUMP JUMPDEST PUSH0 DUP2 SWAP1 POP SWAP3 SWAP2 POP POP JUMP JUMPDEST PUSH0 PUSH2 0x7B5 DUP3 PUSH2 0x797 JUMP JUMPDEST PUSH2 0x7BF DUP2 DUP6 PUSH2 0x7A1 JUMP JUMPDEST SWAP4 POP PUSH2 0x7CF DUP2 DUP6 PUSH1 0x20 DUP7 ADD PUSH2 0x4E0 JUMP JUMPDEST DUP1 DUP5 ADD SWAP2 POP POP SWAP3 SWAP2 POP POP JUMP JUMPDEST PUSH0 PUSH2 0x7E6 DUP3 DUP5 PUSH2 0x7AB JUMP JUMPDEST SWAP2 POP DUP2 SWAP1 POP SWAP3 SWAP2 POP POP JUMP JUMPDEST PUSH0 PUSH20 0xFFFFFFFFFFFFFFFFFFFFFFFFFFFFFFFFFFFFFFFF DUP3 AND SWAP1 POP SWAP2 SWAP1 POP JUMP JUMPDEST PUSH0 PUSH2 0x81A DUP3 PUSH2 0x7F1 JUMP JUMPDEST SWAP1 POP SWAP2 SWAP1 POP JUMP JUMPDEST PUSH0 DUP2 PUSH1 0x60 SHL SWAP1 POP SWAP2 SWAP1 POP JUMP JUMPDEST PUSH0 PUSH2 0x837 DUP3 PUSH2 0x821 JUMP JUMPDEST SWAP1 POP SWAP2 SWAP1 POP JUMP JUMPDEST PUSH0 PUSH2 0x848 DUP3 PUSH2 0x82D JUMP JUMPDEST SWAP1 POP SWAP2 SWAP1 POP JUMP JUMPDEST PUSH2 0x860 PUSH2 0x85B DUP3 PUSH2 0x810 JUMP JUMPDEST PUSH2 0x83E JUMP JUMPDEST DUP3 MSTORE POP POP JUMP JUMPDEST PUSH0 DUP2 SWAP1 POP SWAP2 SWAP1 POP JUMP JUMPDEST PUSH2 0x880 PUSH2 0x87B DUP3 PUSH2 0x560 JUMP JUMPDEST PUSH2 0x866 JUMP JUMPDEST DUP3 MSTORE POP POP JUMP JUMPDEST PUSH0 PUSH2 0x891 DUP3 DUP6 PUSH2 0x84F JUMP JUMPDEST PUSH1 0x14 DUP3 ADD SWAP2 POP PUSH2 0x8A1 DUP3 DUP5 PUSH2 0x86F JUMP JUMPDEST PUSH1 0x20 DUP3 ADD SWAP2 POP DUP2 SWAP1 POP SWAP4 SWAP3 POP POP POP JUMP JUMPDEST PUSH32 0x4E487B7100000000000000000000000000000000000000000000000000000000 PUSH0 MSTORE PUSH1 0x22 PUSH1 0x4 MSTORE PUSH1 0x24 PUSH0 REVERT JUMPDEST PUSH0 PUSH1 0x2 DUP3 DIV SWAP1 POP PUSH1 0x1 DUP3 AND DUP1 PUSH2 0x8F5 JUMPI PUSH1 0x7F DUP3 AND SWAP2 POP JUMPDEST PUSH1 0x20 DUP3 LT DUP2 SUB PUSH2 0x908 JUMPI PUSH2 0x907 PUSH2 0x8B1 JUMP JUMPDEST JUMPDEST POP SWAP2 SWAP1 POP JUMP JUMPDEST PUSH0 DUP2 SWAP1 POP DUP2 PUSH0 MSTORE PUSH1 0x20 PUSH0 KECCAK256 SWAP1 POP SWAP2 SWAP1 POP JUMP JUMPDEST PUSH0 PUSH1 0x20 PUSH1 0x1F DUP4 ADD DIV SWAP1 POP SWAP2 SWAP1 POP JUMP JUMPDEST PUSH0 PUSH1 0x8 DUP4 MUL PUSH2 0x95E PUSH32 0xFFFFFFFFFFFFFFFFFFFFFFFFFFFFFFFFFFFFFFFFFFFFFFFFFFFFFFFFFFFFFFFF DUP3 PUSH2 0x72D JUMP JUMPDEST PUSH2 0x968 DUP7 DUP4 PUSH2 0x72D JUMP JUMPDEST SWAP6 POP DUP1 NOT DUP5 AND SWAP4 POP DUP1 DUP7 AND DUP5 OR SWAP3 POP POP POP SWAP4 SWAP3 POP POP POP JUMP JUMPDEST PUSH0 DUP2 SWAP1 POP SWAP2 SWAP1 POP JUMP JUMPDEST PUSH0 DUP2 SWAP1 POP SWAP2 SWAP1 POP JUMP JUMPDEST PUSH0 PUSH2 0x9AC PUSH2 0x9A7 PUSH2 0x9A2 DUP5 PUSH2 0x980 JUMP JUMPDEST PUSH2 0x989 JUMP JUMPDEST PUSH2 0x980 JUMP JUMPDEST SWAP1 POP SWAP2 SWAP1 POP JUMP JUMPDEST PUSH0 DUP2 SWAP1 POP SWAP2 SWAP1 POP JUMP JUMPDEST PUSH2 0x9C5 DUP4 PUSH2 0x992 JUMP JUMPDEST PUSH2 0x9D9 PUSH2 0x9D1 DUP3 PUSH2 0x9B3 JUMP JUMPDEST DUP5 DUP5 SLOAD PUSH2 0x92F JUMP JUMPDEST DUP3 SSTORE POP POP POP POP JUMP JUMPDEST PUSH0 SWAP1 JUMP JUMPDEST PUSH2 0x9ED PUSH2 0x9E1 JUMP JUMPDEST PUSH2 0x9F8 DUP2 DUP5 DUP5 PUSH2 0x9BC JUMP JUMPDEST POP POP POP JUMP JUMPDEST JUMPDEST DUP2 DUP2 LT ISZERO PUSH2 0xA1B JUMPI PUSH2 0xA10 PUSH0 DUP3 PUSH2 0x9E5 JUMP JUMPDEST PUSH1 0x1 DUP2 ADD SWAP1 POP PUSH2 0x9FE JUMP JUMPDEST POP POP JUMP JUMPDEST PUSH1 0x1F DUP3 GT ISZERO PUSH2 0xA60 JUMPI PUSH2 0xA31 DUP2 PUSH2 0x90E JUMP JUMPDEST PUSH2 0xA3A DUP5 PUSH2 0x920 JUMP JUMPDEST DUP2 ADD PUSH1 0x20 DUP6 LT ISZERO PUSH2 0xA49 JUMPI DUP2 SWAP1 POP JUMPDEST PUSH2 0xA5D PUSH2 0xA55 DUP6 PUSH2 0x920 JUMP JUMPDEST DUP4 ADD DUP3 PUSH2 0x9FD JUMP JUMPDEST POP POP JUMPDEST POP POP POP JUMP JUMPDEST PUSH0 DUP3 DUP3 SHR SWAP1 POP SWAP3 SWAP2 POP POP JUMP JUMPDEST PUSH0 PUSH2 0xA80 PUSH0 NOT DUP5 PUSH1 0x8 MUL PUSH2 0xA65 JUMP JUMPDEST NOT DUP1 DUP4 AND SWAP2 POP POP SWAP3 SWAP2 POP POP JUMP JUMPDEST PUSH0 PUSH2 0xA98 DUP4 DUP4 PUSH2 0xA71 JUMP JUMPDEST SWAP2 POP DUP3 PUSH1 0x2 MUL DUP3 OR SWAP1 POP SWAP3 SWAP2 POP POP JUMP JUMPDEST PUSH2 0xAB1 DUP3 PUSH2 0x797 JUMP JUMPDEST PUSH8 0xFFFFFFFFFFFFFFFF DUP2 GT ISZERO PUSH2 0xACA JUMPI PUSH2 0xAC9 PUSH2 0x35B JUMP JUMPDEST JUMPDEST PUSH2 0xAD4 DUP3 SLOAD PUSH2 0x8DE JUMP JUMPDEST PUSH2 0xADF DUP3 DUP3 DUP6 PUSH2 0xA1F JUMP JUMPDEST PUSH0 PUSH1 0x20 SWAP1 POP PUSH1 0x1F DUP4 GT PUSH1 0x1 DUP2 EQ PUSH2 0xB10 JUMPI PUSH0 DUP5 ISZERO PUSH2 0xAFE JUMPI DUP3 DUP8 ADD MLOAD SWAP1 POP JUMPDEST PUSH2 0xB08 DUP6 DUP3 PUSH2 0xA8D JUMP JUMPDEST DUP7 SSTORE POP PUSH2 0xB6F JUMP JUMPDEST PUSH1 0x1F NOT DUP5 AND PUSH2 0xB1E DUP7 PUSH2 0x90E JUMP JUMPDEST PUSH0 JUMPDEST DUP3 DUP2 LT ISZERO PUSH2 0xB45 JUMPI DUP5 DUP10 ADD MLOAD DUP3 SSTORE PUSH1 0x1 DUP3 ADD SWAP2 POP PUSH1 0x20 DUP6 ADD SWAP5 POP PUSH1 0x20 DUP2 ADD SWAP1 POP PUSH2 0xB20 JUMP JUMPDEST DUP7 DUP4 LT ISZERO PUSH2 0xB62 JUMPI DUP5 DUP10 ADD MLOAD PUSH2 0xB5E PUSH1 0x1F DUP10 AND DUP3 PUSH2 0xA71 JUMP JUMPDEST DUP4 SSTORE POP JUMPDEST PUSH1 0x1 PUSH1 0x2 DUP9 MUL ADD DUP9 SSTORE POP POP POP JUMPDEST POP POP POP POP POP POP JUMP JUMPDEST PUSH2 0xB80 DUP3 PUSH2 0x4C6 JUMP JUMPDEST PUSH8 0xFFFFFFFFFFFFFFFF DUP2 GT ISZERO PUSH2 0xB99 JUMPI PUSH2 0xB98 PUSH2 0x35B JUMP JUMPDEST JUMPDEST PUSH2 0xBA3 DUP3 SLOAD PUSH2 0x8DE JUMP JUMPDEST PUSH2 0xBAE DUP3 DUP3 DUP6 PUSH2 0xA1F JUMP JUMPDEST PUSH0 PUSH1 0x20 SWAP1 POP PUSH1 0x1F DUP4 GT PUSH1 0x1 DUP2 EQ PUSH2 0xBDF JUMPI PUSH0 DUP5 ISZERO PUSH2 0xBCD JUMPI DUP3 DUP8 ADD MLOAD SWAP1 POP JUMPDEST PUSH2 0xBD7 DUP6 DUP3 PUSH2 0xA8D JUMP JUMPDEST DUP7 SSTORE POP PUSH2 0xC3E JUMP JUMPDEST PUSH1 0x1F NOT DUP5 AND PUSH2 0xBED DUP7 PUSH2 0x90E JUMP JUMPDEST PUSH0 JUMPDEST DUP3 DUP2 LT ISZERO PUSH2 0xC14 JUMPI DUP5 DUP10 ADD MLOAD DUP3 SSTORE PUSH1 0x1 DUP3 ADD SWAP2 POP PUSH1 0x20 DUP6 ADD SWAP5 POP PUSH1 0x20 DUP2 ADD SWAP1 POP PUSH2 0xBEF JUMP JUMPDEST DUP7 DUP4 LT ISZERO PUSH2 0xC31 JUMPI DUP5 DUP10 ADD MLOAD PUSH2 0xC2D PUSH1 0x1F DUP10 AND DUP3 PUSH2 0xA71 JUMP JUMPDEST DUP4 SSTORE POP JUMPDEST PUSH1 0x1 PUSH1 0x2 DUP9 MUL ADD DUP9 SSTORE POP POP POP JUMPDEST POP POP POP POP POP POP JUMP INVALID LOG2 PUSH5 0x6970667358 0x22 SLT KECCAK256 0xD0 DUP11 0xEE 0xF9 SUB 0xEC 0xD5 SWAP15 0x2A DUP1 PUSH29 0x94EE67FE64F68FEACED3FF55D3982BFACAB7F6B19964736F6C63430008 XOR STOP CALLER "
				},
				"gasEstimates": {
					"creation": {
						"codeDepositCost": "639200",
						"executionCost": "668",
						"totalCost": "639868"
					},
					"external": {
						"": "infinite",
						"del(bytes32)": "infinite",
						"get(string)": "infinite",
						"set(bytes32,bytes)": "infinite"
					},
					"internal": {
						"_fallback()": "infinite"
					}
				},
				"methodIdentifiers": {
					"del(bytes32)": "a42929e0",
					"get(string)": "693ec85e",
					"set(bytes32,bytes)": "aac438c0"
				}
			},
			"storageLayout": {
				"storage": [],
				"types": null
			},
			"userdoc": {
				"kind": "user",
				"methods": {},
				"version": 1
			}
		}
	}
}